:100000000C944F010C9480010C9480010C9480019D
:100010000C9480010C9480010C9480010C9480015C
:100020000C9480010C9460060C9460060C9460069D
:100030000C9480010C94B4060C9480010C94800103
:100040000C9480010C942E090C9480010C94800176
:100050000C9480010C9480010C9480010C946A062D
:100060000C9480010C9423080C94F9070C948001E3
:100070000C9480010C9480010C9480010C948001FC
:100080000C9480010C9480010C9480010C948001EC
:100090000C9480010C9480010C9480010C94D6097E
:1000A0000C9480010C9480010C9480010C948001CC
:1000B0000C9480010C9480010C9480010C944D08E8
:1000C0000C9480010C9480010C9480010C94CF0757
:1000D0000C94A5070C9480010C947B070C94510799
:1000E0000C9480010C94BB010C947F030C94C5010B
:1000F0000C94E1010C9463050C94B5010C94BF01C0
:100100000C94CE030C94A6010C94A0010C94C40290
:100110000C94D3010C94C9010C9454050C94D70190
:100120000C94AA050C9453050C946F020C946E0267
:100130000C94AA010C94EC050C9476050C94FA0A24
:100140000C9404060C94B5020C947D050C94CD011E
:100150000C946D020C9432030C94E0010C94D802C0
:100160000C94B2010C94E5010C94E6020C94DB01B2
:100170000C94410F0C94AE010000200023002600D7
:1001800029002C002F0032000001000003010601AD
:1001900009010200002100240027002A002D003060
:1001A00000330001010000040107010A01000022E0
:1001B00000250028002B002E003100340002010031
:1001C00000050108010B01050505050705080808DC
:1001D00008020202020A0A080804040404010101D8
:1001E00001010101010303030303030303040707E0
:1001F000070C0C0C0C0C0C0C0C020202020606067E
:1002000006060606060B0B0B0B0B0B0B0B01021065
:100210002020080810204010204080020102010820
:1002200004020101020408102040808040201008D0
:100230000402018004020180402010080402010829
:100240000402010102040810204080010204081089
:1002500020408000000A0B02090C0D0E0807030461
:10026000010000000000000000000000000000008D
:10027000000000000000000000000000000000126C
:10028000111000000000000000000000000000004D
:1002900000000000000000000000FA0A410F1124D5
:1002A0001FBECFEFD1E2DEBFCDBF00E00CBF12E03A
:1002B000A0E0B2E0ECE0F3E200E00BBF02C0079088
:1002C0000D92A034B107D9F727E0A0E4B2E001C055
:1002D0001D92A032B207E1F711E0CEE4D1E000E0D8
:1002E00006C021970109802FFE010E94560FCD34D0
:1002F000D10780E00807A9F70E94F80C0C9474114C
:100300000C9400008150823108F05AC0E82FF0E0D0
:100310008827E257FE4F8F4F0C94560FAE01B20163
:10032000A001A601AA01E001B501BB01BF01C50101
:10033000C901CD01D301D701E001DB01E101E501F4
:10034000809180008F778093800008958091800055
:100350008F7DF9CF80918000877FF5CF84B58F772F
:1003600084BD089584B58F7DFBCF8091B0008F77D9
:100370008093B00008958091B0008F7DF9CF809177
:1003800090008F77809390000895809190008F7DEA
:10039000F9CF80919000877FF5CF8091A0008F7773
:1003A0008093A00008958091A0008F7DF9CF809167
:1003B000A000877FF5CF809120018F778093200167
:1003C0000895809120018F7DF9CF80912001877F52
:1003D000F5CF1F93CF93DF93282F30E0F901ED5A2B
:1003E000FD4F8491F901E35FFD4FD491F901E95389
:1003F000FE4FC491CC23A9F0162F81110E948201D7
:10040000EC2FF0E0EE0FFF1FE355FE4FA591B491E6
:100410008FB7F894EC91111108C0D095DE23DC93CE
:100420008FBFDF91CF911F910895DE2BF8CFCF932F
:10043000DF9390E0FC01E35FFD4F249189539E4FD1
:10044000FC0184918823D1F090E0880F991FFC0172
:10045000ED56FE4FA591B491FC01E355FE4FC591B9
:10046000D49161110EC09FB7F8948C91E22FE09562
:100470008E238C932881E223E8839FBFDF91CF9165
:1004800008958FB7F894EC91E22BEC938FBFF6CFE1
:100490003FB7F8948091CF029091D002A091D10201
:1004A000B091D20226B5A89B05C02F3F19F0019646
:1004B000A11DB11D3FBFBA2FA92F982F8827BC01BE
:1004C000CD01620F711D811D911D42E0660F771FE6
:1004D000881F991F4A95D1F7089508950895AF92FE
:1004E000BF92CF92DF92EF92FF920F931F93CF9321
:1004F000DF936C017B018B01040F151FEB015E0183
:10050000AE18BF08C017D10759F06991D601ED9117
:10051000FC910190F081E02DC6011995892B79F7A6
:10052000C501DF91CF911F910F91FF90EF90DF9068
:10053000CF90BF90AF900895FC01A089B1898C91B4
:10054000A689B78982FD0FC09C91818D8F5F8F73C3
:10055000228D821749F0A18DAE0FBF2FB11D5D9680
:100560009C93818F08958C910895FC01538D448D47
:10057000252F30E0842F90E0821B930B541710F04E
:10058000CF96089501970895FC01918D828D98175B
:1005900061F0A28DAE0FBF2FB11D5D968C91928D33
:1005A0009F5F9F73928F90E008958FEF9FEF089564
:1005B000FC01918D828D981731F0828DE80FF11D2D
:1005C000858D90E008958FEF9FEF0895FC01918D48
:1005D000228D892F90E0805C9F4F821B91098F7341
:1005E0009927089585E293E00E94E60221E0892B95
:1005F00009F420E0822F089582EC93E00E94E60245
:1006000021E0892B09F420E0822F08958FE594E002
:100610000E94E60221E0892B09F420E0822F089550
:10062000FC01A48DA80FB92FB11DA35ABF4F2C9167
:10063000848D90E001968F739927848FA689B7895E
:100640002C93A089B1898C91837080648C93938D55
:10065000848D981306C00288F389E02D80818F7DF8
:1006600080830895EF92FF920F931F93CF93DF93B0
:10067000EC0181E0888F9B8D8C8D98131AC0E889DE
:10068000F989808185FF15C09FB7F894EE89FF89AD
:100690006083E889F98980818370806480839FBF4B
:1006A00081E090E0DF91CF911F910F91FF90EF904B
:1006B0000895F62E0B8D10E00F5F1F4F0F7311275B
:1006C000E02E8C8D8E110CC00FB607FCFACFE88996
:1006D000F989808185FFF5CFCE010E941003F1CF0B
:1006E000EB8DEC0FFD2FF11DE35AFF4FF0829FB70A
:1006F000F8940B8FEA89FB8980818062CFCFCF93FA
:10070000DF93EC01888D8823B9F0AA89BB89E88939
:10071000F9898C9185FD03C0808186FD0DC00FB6DF
:1007200007FCF7CF8C9185FFF2CF808185FFEDCF5D
:10073000CE010E941003E9CFDF91CF910895F0E040
:10074000E0E0199480E090E0892B29F00E940603F4
:1007500081110E94000080E090E0892B49F080E048
:1007600090E0892B29F00E94000081110E94000076
:100770000E94FC0281110E949F0380E090E0892B7F
:1007800029F00E94F20281110C94000008958EBDA0
:1007900000000DB407FEFDCF8EB508950895209199
:1007A0009A02260F3327331F21323105ECF42091B2
:1007B000FB02FC0190E080E0243069F082E00895C3
:1007C000A0919A022191AC0146585D4FA40FB52F1C
:1007D000B11D2C930196861798F380919A02680FA9
:1007E00060939A0280E0089581E008951092FB02E0
:1007F00081E08093FA021092D50261E084E10E94C8
:10080000E90161E085E10E94E901E9EBF0E0808126
:100810008E7F808380818D7F808388E48093B80081
:1008200085E48093BC000895CF93DF9391E090938B
:1008300079028823B9F0C091B800D091BA008091B4
:10084000BC008A7B8093BC0060E084E10E94E901E7
:1008500060E085E10E94E9010E94F603D093BA00AE
:10086000C093B800DF91CF910895CF92DF92EF92BD
:10087000FF920F931F93CF93DF93D091240381E0D6
:10088000D13208F09CC0C09123030E9448026B0142
:100890007C018091FB0281116CC082E08093FB029D
:1008A00081E08093FA028FEF8093F9021092F802B0
:1008B000D093F702A3E0B3E0E7EDF2E080E0D813D5
:1008C0008DC01092D6028091D602CC0FC82BC09357
:1008D000D6028091D502813009F084C01092D502F1
:1008E0000E9448026B017C018091D6028093BB007C
:1008F0008091FD029091FE02A091FF02B091000351
:10090000892B8A2B8B2BA1F00E9448020091FD02BB
:100910001091FE022091FF02309100036C197D09B5
:100920008E099F09061717072807390708F442C0E0
:100930008091BC0083FDD8CF85EC8093BC000E94E1
:1009400048026B017C018091FB02823009F44CC0AB
:100950008091F9028F3F09F469C08091F9028032D9
:1009600009F466C08091F902803309F463C084E021
:1009700026C08091FD029091FE02A091FF02B091ED
:100980000003892B8A2B8B2B09F483CF0E9448020A
:100990000091FD021091FE022091FF0230910003B0
:1009A0006C197D098E099F09061717072807390753
:1009B00008F06FCF8091FC020E94140485E0109231
:1009C00002031092240310920103DF91CF911F9133
:1009D0000F91FF90EF90DF90CF9008959D919193AC
:1009E0008F5F6DCF85EEA9CF8091FD029091FE02C1
:1009F000A091FF02B0910003892B8A2B8B2B09F465
:100A0000A2CF0E9448020091FD021091FE022091A7
:100A1000FF02309100036C197D098E099F090617AA
:100A200017072807390708F08ECFC4CF80E0C7CF5B
:100A300082E0C5CF83E0C3CF0F931F93CF93DF93A3
:100A4000162F072FC3EDD6E0AA85BB859C8521E034
:100A50002093010390932303109202031092240326
:100A6000ED91FC9111970190F081E02D682FCD015F
:100A700019958A859B85DC01ED91FC910190F081AF
:100A8000E02D602F19958A859B85DC01ED91FC9105
:100A90000190F081E02D612F1995DF91CF911F9189
:100AA0000F910C9435040895E091C9028091C80219
:100AB000E81730F4F0E0E75AFD4F808190E00895A8
:100AC0008FEF9FEF08959091C9028091C8022FEF98
:100AD0003FEF981748F4E92FF0E0E75AFD4F2081E7
:100AE00030E09F5F9093C902C90108958091C802C8
:100AF0009091C902891B990B0895CF92DF92EF92D2
:100B0000FF920F931F93CF93DF937C01CB018A0158
:100B100020910103222389F0EB016B01C40ED51E45
:100B2000CC15DD0569F06991D701ED91FC9101903B
:100B3000F081E02DC7011995F3CF642F0E94CF03F8
:100B4000C801DF91CF911F910F91FF90EF90DF903F
:100B5000CF900895CF93DF931F92CDB7DEB769830F
:100B6000209101032223F9F020912403203258F030
:100B700021E030E0FC013383228390E080E00F909D
:100B8000DF91CF91089580910203E82FF0E0ED5FAF
:100B9000FC4F998190838F5F80930203809324039D
:100BA00081E090E0ECCF61E0CE0101960E94CF039E
:100BB000F7CFFC01248131E030930103209323031C
:100BC00010920203109224038485682B8AE097E038
:100BD0000E94AA050C94350490E080E008950F93DC
:100BE0001F93CF938C01C62F64600E94D9056C2F90
:100BF0006B7FC8010E94D90583EC90E00197F1F763
:100C0000CF911F910F9108950F931F93CF93DF936F
:100C10008C01C62FD62FD07FD1606D2F0E94D905B1
:100C20006D2FC8010E94EF0580E1C89FE0011124EB
:100C3000C1606C2FC8010E94D9056C2FC8010E94A9
:100C4000EF0581E090E0DF91CF911F910F91089522
:100C500085ED8093BC008091FD029091FE02A091F1
:100C6000FF02B09100030796A11DB11D23E0B695C8
:100C7000A795979587952A95D1F72091BC0024FDDB
:100C800003C01092FB0208954091FD025091FE02B4
:100C90006091FF0270910003452B462B472B69F3AF
:100CA0000097A105B10541F02AE22A95F1F700C0AD
:100CB0000197A109B109E1CF8091FC020C941404C1
:100CC0001F920F920FB60F9211240F900FBE0F902C
:100CD0001F9018951F920F920FB60F9211242F9309
:100CE0003F938F939F93AF93BF938091CB0290914B
:100CF000CC02A091CD02B091CE023091CA0223E085
:100D0000230F2D3758F50196A11DB11D2093CA025E
:100D10008093CB029093CC02A093CD02B093CE02ED
:100D20008091CF029091D002A091D102B091D202D5
:100D30000196A11DB11D8093CF029093D002A09384
:100D4000D102B093D202BF91AF919F918F913F9109
:100D50002F910F900FBE0F901F90189526E8230F2C
:100D60000296A11DB11DD2CF1F920F920FB60F9206
:100D700011240BB60F922F933F934F935F936F9372
:100D80007F938F939F93AF93BF93EF93FF93809144
:100D9000BF029091C002A091C102B091C202892B02
:100DA0008A2B8B2BD1F19091BE0280910000892774
:100DB000809300008091BF029091C002A091C10277
:100DC000B091C202181619061A061B069CF48091EF
:100DD000BF029091C002A091C102B091C2020197DE
:100DE000A109B1098093BF029093C002A093C102F0
:100DF000B093C202FF91EF91BF91AF919F918F91FC
:100E00007F916F915F914F913F912F910F900BBE0A
:100E10000F900FBE0F901F90189580910002E2E98D
:100E2000F1E0E4919FEF90930002E230E9F040F4AA
:100E3000EE2389F0E13091F060E00E94E901DACF21
:100E4000E43049F110F1E530B9F7909173009D7FDE
:100E500090937300F1CF10926E00EECF90916F00DF
:100E60009D7F90936F00E8CF909170009D7F90934D
:100E7000700091E09093B0009091B100987F9460E1
:100E80009093B1001092B300D7CF909171009D7FE5
:100E900090937100D1CF909172009D7F90937200DA
:100EA000CBCF1F920F920FB60F9211240BB60F9259
:100EB0002F933F934F935F936F937F938F939F9362
:100EC000AF93BF93EF93FF9385E293E00E941003EB
:100ED000FF91EF91BF91AF919F918F917F916F9112
:100EE0005F914F913F912F910F900BBE0F900FBECE
:100EF0000F901F9018951F920F920FB60F9211240A
:100F00000BB60F922F933F934F935F936F937F9303
:100F10008F939F93AF93BF93EF93FF9385E293E0FB
:100F20000E949C02FF91EF91BF91AF919F918F9191
:100F30007F916F915F914F913F912F910F900BBED9
:100F40000F900FBE0F901F9018951F920F920FB623
:100F50000F9211240BB60F922F933F934F935F93F1
:100F60006F937F938F939F93AF93BF93EF93FF9371
:100F700082EC93E00E941003FF91EF91BF91AF913B
:100F80009F918F917F916F915F914F913F912F91A1
:100F90000F900BBE0F900FBE0F901F9018951F92D1
:100FA0000F920FB60F9211240BB60F922F933F930F
:100FB0004F935F936F937F938F939F93AF93BF9361
:100FC000EF93FF9382EC93E00E949C02FF91EF91DC
:100FD000BF91AF919F918F917F916F915F914F9151
:100FE0003F912F910F900BBE0F900FBE0F901F904F
:100FF00018951F920F920FB60F9211240BB60F92F5
:101000002F933F934F935F936F937F938F939F9310
:10101000AF93BF93EF93FF938FE594E00E9410038B
:10102000FF91EF91BF91AF919F918F917F916F91C0
:101030005F914F913F912F910F900BBE0F900FBE7C
:101040000F901F9018951F920F920FB60F921124B8
:101050000BB60F922F933F934F935F936F937F93B2
:101060008F939F93AF93BF93EF93FF938FE594E09C
:101070000E949C02FF91EF91BF91AF919F918F9140
:101080007F916F915F914F913F912F910F900BBE88
:101090000F900FBE0F901F9018951F920F920FB6D2
:1010A0000F9211240BB60F922F933F934F935F93A0
:1010B0006F937F938F939F93AF93BF93CF93DF9360
:1010C000EF93FF932091FD0430E0F901ED5AFD4FBD
:1010D0008491F901E35FFD4FD491F901E953FE4F8B
:1010E000C491CC2379F081110E948201EC2FF0E0B1
:1010F000EE0FFF1FE858FE4FA591B491EC91ED2340
:1011000081E009F480E020910105309102052F5F14
:101110003F4F3093020520930105909100059536CD
:1011200018F096E09093FC049091FC04943009F43C
:1011300066C0B8F49230F1F0933009F444C0909155
:10114000FF04992309F46BC081117EC08091FE04D5
:10115000882309F463C08091FE0461E00E94E901E4
:101160005EC0953009F457C0963049F791E09093EE
:10117000CD054FC08111E3CF2091010530910205CB
:101180002436310528F41092020510920105D7CFBC
:101190001092CD0510920005E091000591E09E0FA0
:1011A00090930005F0E02091010530910205EE0FCB
:1011B000FF1FE450FB4F30872783109202051092E7
:1011C000010593E019C0813009F0B9CFE091000525
:1011D00091E09E0F90930005F0E020910105309181
:1011E0000205EE0FFF1FE450FB4F3087278310925C
:1011F00002051092010594E09093FC04A0CF88238F
:1012000059F220910105309102052536310508F487
:1012100096CF95E0F1CF811192CFB5CF2F9AFF9164
:10122000EF91DF91CF91BF91AF919F918F917F917E
:101230006F915F914F913F912F910F900BBE0F9047
:101240000FBE0F901F9018958091FE04882321F007
:101250008091FE0460E082CF2F98E1CF1F920F9221
:101260000FB60F9211240BB60F922F933F934F930B
:101270005F936F937F938F939F93AF93BF93CF931E
:10128000DF93EF93FF938091BD02C0910A06D0E0F7
:1012900087FF23C010928500109284008091BD02C8
:1012A0008F5F8093BD028091BD02082E000C990BC8
:1012B0008C179D0724F48091BD028C3074F18091CD
:1012C00084009091850084349C4908F465C0809125
:1012D000840090918500049661C08091BD02082E23
:1012E000000C990B8C179D07CCF63091BD0225E0C0
:1012F0003203F0011124E253FA4F808186FFCECFF2
:101300003091BD023203F0011124E253FA4F808183
:1013100060E08F730E94E901C1CF809184009091B9
:1013200085003091BD0225E03203F0011124E25323
:10133000FA4F41815281840F951F909389008093C9
:1013400088003091BD023203F0011124E253FA4FBC
:10135000808186FF0CC03091BD023203F001112460
:10136000E253FA4F808161E08F730E94E901FF919F
:10137000EF91DF91CF91BF91AF919F918F917F912D
:101380006F915F914F913F912F910F900BBE0F90F6
:101390000FBE0F901F90189580E49CE990938900F0
:1013A000809388008FEF8093BD02E1CF1F920F9250
:1013B0000FB60F9211240BB60F922F933F934F93BA
:1013C0005F936F937F938F939F93AF93BF93EF93AD
:1013D000FF938091B900887F803609F44DC008F0F2
:1013E00040C0883209F4A9C028F5803109F49DC0B5
:1013F000C8F4882309F4FBC0883009F496C0FF9133
:10140000EF91BF91AF919F918F917F916F915F917C
:101410004F913F912F910F900BBE0F900FBE0F90E9
:101420001F901895883109F488C0803241F7809365
:10143000F90214C0803409F49DC040F48033B9F33C
:101440008833E9F68093F90285ECB0C0803509F461
:1014500085C0883509F496C0883489F60E9428062C
:10146000CECF883909F48CC038F5883729F050F48C
:10147000883611F0803719F683E08093FB021092D2
:10148000BC0257C0883809F47BC0803919F0803815
:1014900009F0B5CF8091BC02803208F071C0E091B4
:1014A000BC0281E08E0F8093BC028091BB00F0E013
:1014B000E456FD4F80833DC0803B39F0E0F4803A34
:1014C00009F479C0883A09F09ACF84E08093FB024E
:1014D00010929B0210929A02E091C602F091C7020C
:1014E000199580919A0281110FC081E080939A0230
:1014F00010927A0209C0803C09F4A6CF883C09F416
:10150000A3CF883B09F07BCFE0919B0281E08E0F57
:1015100080939B02F0E0E658FD4F80818093BB00F2
:1015200090919B0280919A0229C08091D60280936B
:10153000BB0085EC8093BC0062CF9091F802809153
:10154000F702981758F5E091F80281E08E0F80932A
:10155000F802F0E0E952FD4F8081E9CFE091F80216
:1015600081E08E0F8093F8028091BB00F0E0E95299
:10157000FD4F80839091F8028091F7029817C8F28E
:1015800085E8D8CFE091F80281E08E0F8093F802D1
:101590008091BB00F0E0E952FD4F80838091FA0218
:1015A00081115CCF81E08093D50284EA8093BC00F6
:1015B0001092FB0224CF85EC8093BC001092FB02BA
:1015C0008091BC02803230F4E091BC02F0E0E4563D
:1015D000FD4F10826091BC0270E0E091C402F09176
:1015E000C5028CE992E019951092BC0208CF1092C6
:1015F000F90234CF109228031092270348EE53E0EB
:1016000060E070E04093290350932A0360932B031A
:1016100070932C0383E192E090932603809325033B
:1016200025E331E0309332032093310324E331E0AA
:10163000309334032093330320E331E030933603B7
:101640002093350321E331E03093380320933703AF
:1016500022E331E030933A032093390326E331E06B
:1016600030933C0320933B0310923E0310923F03C0
:1016700010924003109241031092C5031092C403CC
:101680004093C6035093C7036093C8037093C90384
:101690009093C3038093C20325ED30E03093CF03D2
:1016A0002093CE0324ED30E03093D1032093D00378
:1016B00020ED30E03093D3032093D20321ED30E0CE
:1016C0003093D5032093D40322ED30E03093D70339
:1016D0002093D60326ED30E03093D9032093D8032E
:1016E0001092DB031092DC031092DD031092DE03F4
:1016F0001092620410926104409363045093640456
:1017000060936504709366049093600480935F0413
:1017100085EC90E090936C0480936B0484EC90E0F3
:1017200090936E0480936D0480EC90E0909370042D
:1017300080936F0481EC90E0909372048093710425
:1017400082EC90E0909374048093730486EC90E0B4
:101750009093760480937504109278041092790423
:1017600010927A0410927B048091070290910802F3
:10177000A0910902B0910A028093F4069093F506B5
:10178000A093F606B093F70680910B0290910C029D
:10179000A0910D02B0910E028093F8069093F90685
:1017A000A093FA06B093FB0684E08093FC0687E0E2
:1017B0008093FD061092FE0684EB8093FF0686E17F
:1017C0008093000788E18093010787E180930207F7
:1017D00089E180930307E0910A06EC3008F4ACC07D
:1017E0008FEF80930407E0910A06EC3008F4B5C04F
:1017F0008FEF809305078CE08093D30684E280937B
:10180000D40686E08093D50685E08093D6068FE1E6
:101810008093D7068EE18093D80683E28093D90621
:1018200082E28093DA0685E48093DB0684E4809389
:10183000DC0680E48093DF061092E4061092E50651
:101840001092E6061092E7061092E8061092E9065A
:101850001092EA061092EB06E5E1F6E023ED36E0A1
:101860008FEF9FEFDC0112821382148215821682A1
:1018700017821086118683879487A587B687878706
:10188000908BA18BB28B12861182108273962E17C9
:101890003F0749F78DE090E00E945E0FFC01138244
:1018A000128285E292E091838083118687E28483AD
:1018B00084E1828784E083871486F0931206E093A4
:1018C0001106109213061092140685E28093FD040F
:1018D0001092FF0410920C0610920B0610920E0646
:1018E00010920D061092100610920F0661E070E043
:1018F00090E080E00E948310009709F43FC090932D
:101900000C0680930B0610920E0610920D06209185
:101910000F0630911006232B11F4FC011082109257
:10192000100610920F066FE372E080910B06909103
:101930000C060E946D1136C081E08E0F80930A065E
:10194000E093040785E0E89FF0011124E253FA4F89
:1019500088EB9BE09283818346CF81E08E0F80935A
:101960000A06E093050785E0E89FF0011124E253A1
:10197000FA4F88EB9BE0928381833DCF80910B06E9
:1019800090910C06009711F00E94FA0F10920C062D
:1019900010920B061092100610920F0610920E066F
:1019A00010920D0610920D0710920C0788EE93E02E
:1019B000A0E0B0E080930E0790930F07A09310076C
:1019C000B093110781E392E090930B0780930A078D
:1019D00010921707109216071092180786ED809341
:1019E0001B0781E090E090931A07809319070895F0
:1019F000789484B5826084BD84B5816084BD85B5EA
:101A0000826085BD85B5816085BD80916E008160F5
:101A100080936E001092810080918100826080939B
:101A2000810080918100816080938100809180009D
:101A30008160809380008091B10084608093B100C8
:101A40008091B00081608093B000809191008260AD
:101A500080939100809191008160809391008091AA
:101A600090008160809390008091A10082608093BB
:101A7000A1008091A10081608093A1008091A000CD
:101A800081608093A0008091210182608093210178
:101A900080912101816080932101809120018160EA
:101AA0008093200180917A00846080937A008091F5
:101AB0007A00826080937A0080917A0081608093BE
:101AC0007A0080917A00806880937A001092C10039
:101AD000E0916F04F091700482E08083E0916B04E8
:101AE000F0916C041082E0916D04F0916E048FEC23
:101AF000808310927704E0917304F091740486E07F
:101B00008083E0917104F091720480818061808310
:101B1000E0917104F0917204808188608083E0918B
:101B20007104F0917204808180688083E091710477
:101B3000F091720480818F7D808361E08091D40672
:101B40000E94170260E08091D4060E94E90160E0E3
:101B50008091D3060E9417028AE097E09093DE06F8
:101B60008093DD061092C9021092C80210920203FF
:101B7000109224030E94F6038DE692E09093C70230
:101B80008093C6028EE692E09093C5028093C402D1
:101B900080E090E1A0E0B0E08093E0069093E10661
:101BA000A093E206B093E3068AE090E0A0E0B0E004
:101BB0008093E4069093E506A093E606B093E706CB
:101BC00080E090E0A0E0B0E48093E8069093E9061E
:101BD000A093EA06B093EB0660E070E185E00E9416
:101BE0001C056FE979E380E00E941C0505ED16E015
:101BF000C3EDD6E05CEFA52E51E0B52E62E4862E53
:101C000062E0962E7BECE72E77E0F72EEBE8CE2E07
:101C1000DD24D394F801928181918F01898F9A8F6D
:101C200061E00E94170261E08A8D0E941702F801AC
:101C3000958183818D8F9E8F61E00E94170260E005
:101C40008E8D0E94170261E08D8D0E94E9017FB6A2
:101C5000F8948091C302811125C0F5018491F401AB
:101C60009491E82FF0E0EE0FFF1FED56FE4FA59187
:101C7000B4918C91982321F461E085E30E94E901FD
:101C800061E085E30E9417028CB580618CBD8CB544
:101C900080648CBD61E084E30E94170261E083E30D
:101CA0000E9417028091C3028F5F8093C3027FBEA0
:101CB000C7010197F1F760E08D8D0E94E90188E886
:101CC0000E94C70383E00E94C70361E08D8D0E94DC
:101CD000E901C7010197F1F760E08D8D0E94E901EC
:101CE00088E90E94C70380E00E94C70380E00E9449
:101CF000C70380E00E94C70380E00E94C70361E041
:101D00008D8D0E94E901C6010197F1F760E08D8D8C
:101D10000E94E90180EE0E94C70361E08D8D0E9460
:101D2000E9012296F6E0C73DDF0709F073CF08EF1F
:101D300016E0C4EFD6E060E0F80181918F010E94C7
:101D40001702F6E00C3F1F07B1F788EFE82E86E098
:101D5000F82E04EF16E095E0D92E2CE0B22E32E0FA
:101D6000C32E88898C3008F043C0A88461E08A2D96
:101D70000E9417028889D89EF0011124E253FA4F7D
:101D80002A2D2F739081907C922B90831382148242
:101D90006B2D0E944A0F8B9DA001112430E020E0A2
:101DA000BA01620F731FD69EF001D79EF00D112469
:101DB000E253FA4F908196FD12C02F5F3F4F2C30B7
:101DC000310571F781110BC010928000C092810023
:101DD0001092850010928400C6BAC0926F00E88904
:101DE000DE9EF0011124E253FA4F808180648083EB
:101DF0009E858C85F801828B938B60E00E94170290
:101E000061E0F80183890E94170260E0F80183898C
:101E10000E94E90121960E5F1F4FE016F10609F0BE
:101E2000A0CFF8941092200189E08093210180E2F4
:101E300093E090932901809328011092250110923C
:101E4000240182E08093730078948093FC041092C4
:101E500000058091FD0460E00E94170261E08EE2BF
:101E60000E94170261E08CE20E94170261E08FE29B
:101E70000E94170261E08DE20E9417020E94A203F5
:101E8000FDCF80910B0690910C06009711F00C94F9
:101E9000FA0F0895991B79E004C0991F961708F06E
:101EA000961B881F7A95C9F780950895EE0FFF1F3E
:101EB000881F8BBF0790F691E02D19940F931F9305
:101EC000CF93DF938230910510F482E090E0E091AF
:101ED0001E07F0911F0730E020E0B0E0A0E030974F
:101EE00099F42115310509F44AC0281B390B243017
:101EF0003105D8F58A819B816115710589F1FB0156
:101F000093838283FE0111C040815181028113813C
:101F100048175907E0F04817590799F4109761F0EE
:101F200012960C93129713961C933296CF01DF9161
:101F3000CF911F910F91089500931E0710931F07D3
:101F4000F4CF2115310551F04217530738F0A9019C
:101F5000DB019A01BD01DF01F801C1CFEF01F9CF2B
:101F600090931F0780931E07CDCFFE01E20FF31F52
:101F7000819391932250310939832883D7CF2091BF
:101F80001C0730911D07232B41F42091030230914F
:101F9000040230931D0720931C0720910102309109
:101FA00002022115310541F42DB73EB740910502DB
:101FB00050910602241B350BE0911C07F0911D0780
:101FC000E217F307A0F42E1B3F0B2817390778F010
:101FD000AC014E5F5F4F2417350748F04E0F5F1F6F
:101FE00050931D0740931C07819391939FCFF0E07E
:101FF000E0E09CCFCF93DF930097E9F0FC013297AC
:1020000013821282A0911E07B0911F07ED0130E0EC
:1020100020E01097A1F420813181820F931F20913D
:102020001C0730911D072817390709F061C0F0938C
:102030001D07E0931C07DF91CF910895EA01CE17A9
:10204000DF07E8F54A815B819E0141155105B1F733
:10205000E901FB83EA8349915991C40FD51FEC171D
:10206000FD0761F4808191810296840F951FE9013B
:1020700099838883828193819B838A83F0E0E0E067
:1020800012968D919C9113970097B9F52D913C91E3
:102090001197CD010296820F931F20911C0730915A
:1020A0001D072817390739F6309751F510921F0789
:1020B00010921E07B0931D07A0931C07BCCFD383BB
:1020C000C28340815181840F951FC817D90761F4DD
:1020D0004E5F5F4F88819981480F591F518340831C
:1020E0008A819B81938382832115310509F0B0CFCA
:1020F000F0931F07E0931E079ECFFD01DC01C0CFC8
:1021000013821282D7CF4F925F926F927F928F92FB
:102110009F92AF92BF92CF92DF92EF92FF920F9376
:102120001F93CF93DF938C01009799F4CB01DF913C
:10213000CF911F910F91FF90EF90DF90CF90BF90C4
:10214000AF909F908F907F906F905F904F900C9486
:102150005E0FFC01E60FF71F9C0122503109E217C8
:10216000F30708F4AEC0D901CD91DC911197C617E1
:10217000D70720F1C530D10578F0CE010497861736
:10218000970750F0C61BD70B2297C193D1936D933D
:102190007C93CF010E94FA0FC801DF91CF911F916C
:1021A0000F91FF90EF90DF90CF90BF90AF909F90F6
:1021B0008F907F906F905F904F9008955B01AC1A65
:1021C000BD0A4C018C0E9D1EA0911E07B0911F07E9
:1021D000512C412CF12CE12C109731F580911C07EA
:1021E00090911D078815990509F05CC046165706A1
:1021F00008F058C08091010290910202009741F4CA
:102200008DB79EB74091050250910602841B950B35
:10221000E817F90708F055C0F0931D07E0931C0775
:10222000F90171836083B8CF8D919C9111971296BB
:102230006C90129713967C901397A815B90559F5D1
:102240006C0142E0C40ED11CCA14DB0420F1AC01C5
:102250004A195B09DA011296159780F0628273823F
:1022600051834083D9016D937C93E114F10471F0A3
:10227000D7011396FC93EE9312978ECF22968C0F74
:102280009D1FF90191838083F301EFCFF0931F0726
:10229000E0931E0781CF4816590608F42C017D01F2
:1022A000D3019ACFCB010E945E0F7C01009749F0C9
:1022B000AE01B8010E946411C8010E94FA0F8701A3
:1022C0006BCF10E000E068CFFB01DC0102C00190A1
:1022D0000D9241505040D8F70895FB01DC01019068
:1022E0000D920020E1F7089511E0CEE4D1E000E086
:1022F00006C0802FFE010E94560F2196011DCF348B
:0C230000D10780E00807A9F7F894FFCF90
:10230C00FF000020078000363738391B1D1A1C00CF
:10231C0000000032036F02B5027F03E602C402D84C
:10232C00020000000004066F02EC05CE0300000062
:10233C0000AA057D05EC05530576056305540500DB
:00000001FF
