:100000000C9471010C94A2010C94A2010C94A20115
:100010000C94A2010C94A2010C94A2010C94A201D4
:100020000C94A2010C9460080C9460080C94600875
:100030000C94A2010C94B4080C94A2010C94A2019B
:100040000C94A2010C942E0B0C94A2010C94A2010E
:100050000C94A2010C94A2010C94A2010C946A08C5
:100060000C94A2010C94230A0C94F9090C94A2019B
:100070000C94A2010C94A2010C94A2010C94A20174
:100080000C94A2010C94A2010C94A2010C94A20164
:100090000C94A2010C94A2010C94A2010C94D60B16
:1000A0000C94A2010C94A2010C94A2010C94A20144
:1000B0000C94A2010C94A2010C94A2010C944D0A80
:1000C0000C94A2010C94A2010C94A2010C94CF09EF
:1000D0000C94A5090C94A2010C947B090C94510971
:1000E0000C94A2010C9453130C9454030C94E1014E
:1000F0000C94F9010C94EB010C94D4010C94910232
:100100000C94FD010C94C2010C94ED040C940302B8
:100110000C94FA0C0C94CA040C94C0040C940702BE
:100120000C94AC040C9490020C94F5010C94CC014A
:100130000C9401050C94E3040C94E7010C947904ED
:100140000C94B3070C9468040C9402020C940207FC
:100150000C947E040C9412070C94D9040C949B0705
:100160000C94D0010C9425070C948F020C94E60299
:100170000C94F7040C94B6040C9403070C94C80177
:100180000C94A4040C9492040C94D7010C94DD01FB
:100190000C94D7020C94FA020C9459070C942C0777
:1001A0000C9488040C94A1030C949C040C940B05EF
:1001B0000C947D050C9408030C94EF0100002000C2
:1001C0002300260029002C002F003200000100002F
:1001D0000301060109010200002100240027002A72
:1001E000002D003000330001010000040107010A66
:1001F0000100002200250028002B002E00310034D1
:100200000002010000050108010B010505050507B5
:100210000508080808020202020A0A080804040481
:1002200004010101010101010103030303030303AD
:1002300003040707070C0C0C0C0C0C0C0C0202023C
:100240000206060606060606060B0B0B0B0B0B0B2F
:100250000B010210202008081020401020408002CE
:1002600001020108040201010204081020408080FC
:100270004020100804020180040201804020100880
:100280000402010804020101020408102040800158
:100290000204081020408000000A0B02090C0D0E19
:1002A0000807030401000000000000000000000037
:1002B000000000000000000000000000000000003E
:1002C00000000012111000000000000000000000FB
:1002D0000000000000000000000000000000FA0C18
:1002E000531311241FBECFEFD1E2DEBFCDBF00E01C
:1002F0000CBF12E0A0E0B2E0EAEFFFE200E00BBFCB
:1003000002C007900D92AE34B107D9F727E0AEE4F2
:10031000B2E001C01D92A234B207E1F711E0C0E7DC
:10032000D1E000E006C021970109802FFE010E9464
:10033000AE14CF36D10780E00807A9F70E94F80E67
:100340000C94EB170C9400008150823108F05AC0D5
:10035000E82FF0E08827E055FE4F8F4F0C94AE1445
:10036000D001D401C201C801CC010202D701DD01D4
:10037000E101E701EB01EF01F501F9010202FD01E5
:1003800003020702809180008F7780938000089598
:10039000809180008F7DF9CF80918000877FF5CF9D
:1003A00084B58F7784BD089584B58F7DFBCF809110
:1003B000B0008F778093B00008958091B0008F7D5A
:1003C000F9CF809190008F7780939000089580916D
:1003D00090008F7DF9CF80919000877FF5CF80913D
:1003E000A0008F778093A00008958091A0008F7D5A
:1003F000F9CF8091A000877FF5CF809120018F7782
:10040000809320010895809120018F7DF9CF809104
:100410002001877FF5CF1F93CF93DF93282F30E004
:10042000F901E956FD4F8491F901EF5AFD4FD4913E
:10043000F901E55FFD4FC491CC23A9F0162F81117E
:100440000E94A401EC2FF0E0EE0FFF1FEF50FE4FD3
:10045000A591B4918FB7F894EC91111108C0D09583
:10046000DE23DC938FBFDF91CF911F910895DE2BA8
:10047000F8CFCF93DF9390E0FC01EF5AFD4F24912A
:10048000855F9D4FFC0184918823D1F090E0880F17
:10049000991FFC01E952FE4FA591B491FC01EF5068
:1004A000FE4FC591D49161110EC09FB7F8948C9105
:1004B000E22FE0958E238C932881E223E8839FBF6F
:1004C000DF91CF9108958FB7F894EC91E22BEC93E4
:1004D0008FBFF6CF3FB7F8948091F1029091F2026E
:1004E000A091F302B091F40226B5A89B05C02F3F5E
:1004F00019F00196A11DB11D3FBFBA2FA92F982F4A
:100500008827BC01CD01620F711D811D911D42E044
:10051000660F771F881F991F4A95D1F70895089590
:100520000895AF92BF92CF92DF92EF92FF920F9316
:100530001F93CF93DF936C017B018B01040F151F79
:10054000EB015E01AE18BF08C017D10759F06991E1
:10055000D601ED91FC910190F081E02DC601199535
:10056000892B79F7C501DF91CF911F910F91FF90F2
:10057000EF90DF90CF90BF90AF900895FC01A089DD
:10058000B1898C91A689B78982FD0FC09C91818D1C
:100590008F5F8F73228D821749F0A18DAE0FBF2F11
:1005A000B11D5D969C93818F08958C910895FC01F7
:1005B000538D448D252F30E0842F90E0821B930BC8
:1005C000541710F0CF96089501970895FC01918D6E
:1005D000828D981761F0A28DAE0FBF2FB11D5D9671
:1005E0008C91928D9F5F9F73928F90E008958FEF13
:1005F0009FEF0895FC01918D828D981731F0828DC7
:10060000E80FF11D858D90E008958FEF9FEF08951D
:10061000FC01918D228D892F90E0805C9F4F821B81
:1006200091098F739927089587E493E00E94080346
:1006300021E0892B09F420E0822F089584EE93E0D5
:100640000E94080321E0892B09F420E0822F0895FD
:1006500081E894E00E94080321E0892B09F420E05E
:10066000822F0895FC01A48DA80FB92FB11DA35AA4
:10067000BF4F2C91848D90E001968F739927848FC2
:10068000A689B7892C93A089B1898C9183708064E5
:100690008C93938D848D981306C00288F389E02D86
:1006A00080818F7D80830895EF92FF920F931F9337
:1006B000CF93DF93EC0181E0888F9B8D8C8D981315
:1006C0001AC0E889F989808185FF15C09FB7F89421
:1006D000EE89FF896083E889F9898081837080646D
:1006E00080839FBF81E090E0DF91CF911F910F91B8
:1006F000FF90EF900895F62E0B8D10E00F5F1F4FC7
:100700000F731127E02E8C8D8E110CC00FB607FCD5
:10071000FACFE889F989808185FFF5CFCE010E9463
:100720003203F1CFEB8DEC0FFD2FF11DE35AFF4F9C
:10073000F0829FB7F8940B8FEA89FB8980818062F1
:10074000CFCFCF93DF93EC01888D8823B9F0AA89AE
:10075000BB89E889F9898C9185FD03C0808186FD7C
:100760000DC00FB607FCF7CF8C9185FFF2CF8081CB
:1007700085FFEDCFCE010E943203E9CFDF91CF910B
:100780000895F0E0E0E0199480E090E0892B29F0F2
:100790000E94280381110E94000080E090E0892BD4
:1007A00049F080E090E0892B29F00E94000081113F
:1007B0000E9400000E941E0381110E94C10380E07C
:1007C00090E0892B29F00E94140381110C94000001
:1007D00008958F929F92AF92BF92CF92DF92EF9245
:1007E000FF920F931F93CF93DF93EC016A017B017C
:1007F00020E030E04FE753E4CB01B6010E94C21382
:100800004B015C0120E030E0A9010E94CB151816D5
:100810008CF5C501B4010E9495158B01B98020E0CB
:1008200030E0A901C701B6010E94CB1560E018169F
:100830000CF061E08B2D0E940B020F3F110509F0B7
:10084000ECF41127C88161E08C2F0E943902011558
:100850001105B9F460E08C2FDF91CF911F910F91BA
:10086000FF90EF90DF90CF90BF90AF909F908F90D0
:100870000C940B02C501B4019058CDCF0FEF10E0DE
:10088000E1CF0F3F110511F461E0E5CFEC2FF0E06F
:10089000E956FD4FE491E150E23108F0BCC0F0E0D0
:1008A0008827EA5AFB4F8F4F0C94AE1468047904E2
:1008B0007E04880492040B059C04A404AC04B604D2
:1008C000C004CA04D904E3040B05ED04F7040105D0
:1008D00084B5806884BD07BDDF91CF911F910F91D2
:1008E000FF90EF90DF90CF90BF90AF909F908F9050
:1008F000089584B5806284BD08BDEECF80918000EC
:100900008068809380001093890000938800E4CF72
:100910008091800080628093800010938B00009310
:100920008A00DACF809180008860809380001093E5
:100930008D0000938C00D0CF8091B00080688093B0
:10094000B0000093B300C8CF8091B0008062809364
:10095000B0000093B400C0CF809190008068809375
:1009600090001093990000939800B6CF809190006A
:1009700080628093900010939B0000939A00ACCF0C
:100980008091900088608093900010939D00009368
:100990009C00A2CF8091A00080688093A0008091ED
:1009A000A0008F7B8093A0001093A9000093A80063
:1009B00093CF8091A00080628093A0001093AB0041
:1009C0000093AA0089CF8091A00088608093A00046
:1009D0001093AD000093AC007FCF80912001806820
:1009E00080932001109329010093280175CF8091F5
:1009F000200180628093200110932B0100932A0133
:100A00006BCF8091200188608093200110932D018D
:100A100000932C0161CF003811050CF035CF1ACFAF
:100A20008EBD00000DB407FEFDCF8EB50895AF92C8
:100A3000BF92CF92DF92EF92FF920F931F93CF93CB
:100A4000DF93CDB7DEB760970FB6F894DEBF0FBE69
:100A5000CDBF6C0160E0FC0180810E940B0280E64A
:100A60000E9410059E012F5F3F4F79015E0131E129
:100A7000A30EB11C870180E00E94100590E0B0E059
:100A8000A0E0F80181939193A193B1938F01EA15AE
:100A9000FB0589F761E0F60180810E940B0280E08E
:100AA00090E0DC01F70141915191619171917F01D9
:100AB000BA2FA92F982F8827840F951FA61FB71F1D
:100AC000E017F10779F79C01AD0166277727CB0185
:100AD000621B730B840B950B60960FB6F894DEBF08
:100AE0000FBECDBFDF91CF911F910F91FF90EF907F
:100AF000DF90CF90BF90AF90089508952091A80205
:100B0000260F3327331F21323105ECF420911D03CA
:100B1000FC0190E080E0243069F082E00895A0912B
:100B2000A8022191AC0148575D4FA40FB52FB11D0C
:100B30002C930196861798F38091A802680F609312
:100B4000A80280E0089581E0089510921D0381E0DD
:100B500080931C031092F70261E084E10E940B0273
:100B600061E085E10E940B02E9EBF0E080818E7F7D
:100B7000808380818D7F808388E48093B80085E4C2
:100B80008093BC000895CF93DF9391E09093870208
:100B90008823B9F0C091B800D091BA008091BC0010
:100BA0008A7B8093BC0060E084E10E940B0260E0DD
:100BB00085E10E940B020E94A505D093BA00C09364
:100BC000B800DF91CF910895CF92DF92EF92FF921C
:100BD0000F931F93CF93DF93D091460381E0D132DF
:100BE00008F09CC0C09145030E946A026B017C0121
:100BF00080911D0381116CC082E080931D0381E010
:100C000080931C038FEF80931B0310921A03D093E1
:100C10001903A5E2B3E0E9EFF2E080E0D8138DC05C
:100C20001092F8028091F802CC0FC82BC093F80202
:100C30008091F702813009F084C01092F7020E947F
:100C40006A026B017C018091F8028093BB00809165
:100C50001F0390912003A0912103B0912203892BBF
:100C60008A2B8B2BA1F00E946A0200911F03109126
:100C7000200320912103309122036C197D098E09F4
:100C80009F09061717072807390708F442C0809103
:100C9000BC0083FDD8CF85EC8093BC000E946A0223
:100CA0006B017C0180911D03823009F44CC080915E
:100CB0001B038F3F09F469C080911B03803209F444
:100CC00066C080911B03803309F463C084E026C0B2
:100CD00080911F0390912003A0912103B0912203E2
:100CE000892B8A2B8B2B09F483CF0E946A020091F7
:100CF0001F031091200320912103309122036C19CE
:100D00007D098E099F09061717072807390708F07C
:100D10006FCF80911E030E94C30585E010922403CB
:100D20001092460310922303DF91CF911F910F91F0
:100D3000FF90EF90DF90CF9008959D9191938F5FFA
:100D40006DCF85EEA9CF80911F0390912003A091D4
:100D50002103B0912203892B8A2B8B2B09F4A2CF7C
:100D60000E946A0200911F03109120032091210329
:100D7000309122036C197D098E099F090617170708
:100D80002807390708F08ECFC4CF80E0C7CF82E0B4
:100D9000C5CF83E0C3CF0F931F93CF93DF93162F5D
:100DA000072FC5EFD6E0AA85BB859C8521E020935F
:100DB0002303909345031092240310924603ED9170
:100DC000FC9111970190F081E02D682FCD011995CC
:100DD0008A859B85DC01ED91FC910190F081E02DED
:100DE000602F19958A859B85DC01ED91FC9101901E
:100DF000F081E02D612F1995DF91CF911F910F9117
:100E00000C94E4050895E091D7028091D602E8178A
:100E100030F4F0E0E959FD4F808190E008958FEFC4
:100E20009FEF08959091D7028091D6022FEF3FEF68
:100E3000981748F4E92FF0E0E959FD4F208130E0A0
:100E40009F5F9093D702C90108958091D602909137
:100E5000D702891B990B0895CF92DF92EF92FF92F0
:100E60000F931F93CF93DF937C01CB018A012091D5
:100E70002303222389F0EB016B01C40ED51ECC1590
:100E8000DD0569F06991D701ED91FC910190F08148
:100E9000E02DC7011995F3CF642F0E947E05C8018C
:100EA000DF91CF911F910F91FF90EF90DF90CF9046
:100EB0000895CF93DF931F92CDB7DEB7698320915A
:100EC00023032223F9F020914603203258F021E039
:100ED00030E0FC013383228390E080E00F90DF91CB
:100EE000CF91089580912403E82FF0E0EB5DFC4F53
:100EF000998190838F5F809324038093460381E0E0
:100F000090E0ECCF61E0CE0101960E947E05F7CF24
:100F1000FC01248131E03093230320934503109298
:100F20002403109246038485682B8CE297E00E948C
:100F300059070C94E40590E080E008950F931F9307
:100F4000CF938C01C62F64600E9488076C2F6B7F43
:100F5000C8010E94880783EC90E00197F1F7CF91D8
:100F60001F910F9108950F931F93CF93DF938C01DF
:100F7000C62FD62FD07FD1606D2F0E9488076D2F8E
:100F8000C8010E949E0780E1C89FE0011124C16052
:100F90006C2FC8010E9488076C2FC8010E949E0711
:100FA00081E090E0DF91CF911F910F910895FC01B6
:100FB00001900020E9F73197AF01481B590BBC01A4
:100FC00081E894E00C9491028F929F92AF92BF922D
:100FD0000F931F93CF93DF93CDB7DEB7A1970FB6D3
:100FE000F894DEBF0FBECDBF19A2423008F44AE02C
:100FF0008E010F5D1F4F842E912CB12CA12CA501C9
:1010000094010E948014E62FB901CA01EA30F4F479
:10101000E05DD801EE938D01232B242B252B79F74E
:1010200090E080E0109719F0CD010E94D707A196BB
:101030000FB6F894DEBF0FBECDBFDF91CF911F91E9
:101040000F91BF90AF909F908F900895E95CE1CF92
:1010500085ED8093BC0080911F0390912003A091A7
:101060002103B09122030796A11DB11D23E0B6957F
:10107000A795979587952A95D1F72091BC0024FDD7
:1010800003C010921D03089540911F035091200347
:101090006091210370912203452B462B472B69F366
:1010A0000097A105B10541F02AE22A95F1F700C0A9
:1010B0000197A109B109E1CF80911E030C94C305EA
:1010C0001F920F920FB60F9211240F900FBE0F9028
:1010D0001F9018951F920F920FB60F9211242F9305
:1010E0003F938F939F93AF93BF938091ED02909125
:1010F000EE02A091EF02B091F0023091EC0223E0F9
:10110000230F2D3758F50196A11DB11D2093EC0238
:101110008093ED029093EE02A093EF02B093F00261
:101120008091F1029091F202A091F302B091F40249
:101130000196A11DB11D8093F1029093F202A0933C
:10114000F302B093F402BF91AF919F918F913F91C1
:101150002F910F900FBE0F901F90189526E8230F28
:101160000296A11DB11DD2CF1F920F920FB60F9202
:1011700011240BB60F922F933F934F935F936F936E
:101180007F938F939F93AF93BF93EF93FF93809140
:10119000CD029091CE02A091CF02B091D002892BC6
:1011A0008A2B8B2BD1F19091CC0280910000892762
:1011B000809300008091CD029091CE02A091CF0249
:1011C000B091D002181619061A061B069CF48091DD
:1011D000CD029091CE02A091CF02B091D0020197A2
:1011E000A109B1098093CD029093CE02A093CF02C2
:1011F000B093D002FF91EF91BF91AF919F918F91EA
:101200007F916F915F914F913F912F910F900BBE06
:101210000F900FBE0F901F90189580910002E6ED81
:10122000F1E0E4919FEF90930002E230E9F040F4A6
:10123000EE2389F0E13091F060E00E940B02DACFFA
:10124000E43049F110F1E530B9F7909173009D7FDA
:1012500090937300F1CF10926E00EECF90916F00DB
:101260009D7F90936F00E8CF909170009D7F909349
:10127000700091E09093B0009091B100987F9460DD
:101280009093B1001092B300D7CF909171009D7FE1
:1012900090937100D1CF909172009D7F90937200D6
:1012A000CBCF1F920F920FB60F9211240BB60F9255
:1012B0002F933F934F935F936F937F938F939F935E
:1012C000AF93BF93EF93FF9387E493E00E943203C1
:1012D000FF91EF91BF91AF919F918F917F916F910E
:1012E0005F914F913F912F910F900BBE0F900FBECA
:1012F0000F901F9018951F920F920FB60F92112406
:101300000BB60F922F933F934F935F936F937F93FF
:101310008F939F93AF93BF93EF93FF9387E493E0F3
:101320000E94BE02FF91EF91BF91AF919F918F916B
:101330007F916F915F914F913F912F910F900BBED5
:101340000F900FBE0F901F9018951F920F920FB61F
:101350000F9211240BB60F922F933F934F935F93ED
:101360006F937F938F939F93AF93BF93EF93FF936D
:1013700084EE93E00E943203FF91EF91BF91AF9111
:101380009F918F917F916F915F914F913F912F919D
:101390000F900BBE0F900FBE0F901F9018951F92CD
:1013A0000F920FB60F9211240BB60F922F933F930B
:1013B0004F935F936F937F938F939F93AF93BF935D
:1013C000EF93FF9384EE93E00E94BE02FF91EF91B2
:1013D000BF91AF919F918F917F916F915F914F914D
:1013E0003F912F910F900BBE0F900FBE0F901F904B
:1013F00018951F920F920FB60F9211240BB60F92F1
:101400002F933F934F935F936F937F938F939F930C
:10141000AF93BF93EF93FF9381E894E00E94320370
:10142000FF91EF91BF91AF919F918F917F916F91BC
:101430005F914F913F912F910F900BBE0F900FBE78
:101440000F901F9018951F920F920FB60F921124B4
:101450000BB60F922F933F934F935F936F937F93AE
:101460008F939F93AF93BF93EF93FF9381E894E0A3
:101470000E94BE02FF91EF91BF91AF919F918F911A
:101480007F916F915F914F913F912F910F900BBE84
:101490000F900FBE0F901F9018951F920F920FB6CE
:1014A0000F9211240BB60F922F933F934F935F939C
:1014B0006F937F938F939F93AF93BF93CF93DF935C
:1014C000EF93FF9320911F0530E0F901E956FD4F9E
:1014D0008491F901EF5AFD4FD491F901E55FFD4F79
:1014E000C491CC2379F081110E94A401EC2FF0E08B
:1014F000EE0FFF1FE454FE4FA591B491EC91ED2344
:1015000081E009F480E020912305309124052F5FCC
:101510003F4F309324052093230590912205953663
:1015200018F096E090931E0590911E05943009F4F2
:1015300066C0B8F49230F1F0933009F444C0909151
:101540002105992309F46BC081117EC0809120058B
:10155000882309F463C08091200561E00E940B029A
:101560005EC0953009F457C0963049F791E09093EA
:10157000EF054FC08111E3CF209123053091240561
:101580002436310528F41092240510922305D7CF74
:101590001092EF0510922205E091220591E09E0F36
:1015A00090932205F0E02091230530912405EE0F61
:1015B000FF1FE25EFA4F30872783109224051092B6
:1015C000230593E019C0813009F0B9CFE0912205DD
:1015D00091E09E0F90932205F0E020912305309139
:1015E0002405EE0FFF1FE25EFA4F3087278310922B
:1015F00024051092230594E090931E05A0CF882324
:1016000059F220912305309124052536310508F43F
:1016100096CF95E0F1CF811192CFB5CF2F9AFF9160
:10162000EF91DF91CF91BF91AF919F918F917F917A
:101630006F915F914F913F912F910F900BBE0F9043
:101640000FBE0F901F90189580912005882321F0E0
:101650008091200560E082CF2F98E1CF1F920F92FA
:101660000FB60F9211240BB60F922F933F934F9307
:101670005F936F937F938F939F93AF93BF93CF931A
:10168000DF93EF93FF938091CB02C0912C06D0E0C3
:1016900087FF23C010928500109284008091CB02B6
:1016A0008F5F8093CB028091CB02082E000C990BA8
:1016B0008C179D0724F48091CB028C3074F18091BB
:1016C00084009091850084349C4908F465C0809121
:1016D000840090918500049661C08091CB02082E11
:1016E000000C990B8C179D07CCF63091CB0225E0AE
:1016F0003203F0011124E051FA4F808186FFCECFF2
:101700003091CB023203F0011124E051FA4F808175
:1017100060E08F730E940B02C1CF80918400909192
:1017200085003091CB0225E03203F0011124E05115
:10173000FA4F41815281840F951F909389008093C5
:1017400088003091CB023203F0011124E051FA4FAE
:10175000808186FF0CC03091CB023203F00111244E
:10176000E051FA4F808161E08F730E940B02FF917C
:10177000EF91DF91CF91BF91AF919F918F917F9129
:101780006F915F914F913F912F910F900BBE0F90F2
:101790000FBE0F901F90189580E49CE990938900EC
:1017A000809388008FEF8093CB02E1CF1F920F923E
:1017B0000FB60F9211240BB60F922F933F934F93B6
:1017C0005F936F937F938F939F93AF93BF93EF93A9
:1017D000FF938091B900887F803609F44DC008F0EE
:1017E00040C0883209F4A9C028F5803109F49DC0B1
:1017F000C8F4882309F4FBC0883009F496C0FF912F
:10180000EF91BF91AF919F918F917F916F915F9178
:101810004F913F912F910F900BBE0F900FBE0F90E5
:101820001F901895883109F488C0803241F7809361
:101830001B0314C0803409F49DC040F48033B9F315
:101840008833E9F680931B0385ECB0C0803509F43A
:1018500085C0883509F496C0883489F60E94280826
:10186000CECF883909F48CC038F5883729F050F488
:10187000883611F0803719F683E080931D031092AB
:10188000CA0257C0883809F47BC0803919F0803803
:1018900009F0B5CF8091CA02803208F071C0E091A2
:1018A000CA0281E08E0F8093CA028091BB00F0E0F3
:1018B000E655FD4F80833DC0803B39F0E0F4803A2F
:1018C00009F479C0883A09F09ACF84E080931D0327
:1018D0001092A9021092A802E091D402F091D502D0
:1018E00019958091A80281110FC081E08093A80210
:1018F0001092880209C0803C09F4A6CF883C09F404
:10190000A3CF883B09F07BCFE091A90281E08E0F45
:101910008093A902F0E0E857FD4F80818093BB00DF
:101920009091A9028091A80229C08091F802809329
:10193000BB0085EC8093BC0062CF90911A0380912C
:101940001903981758F5E0911A0381E08E0F8093E0
:101950001A03F0E0E750FD4F8081E9CFE0911A03D0
:1019600081E08E0F80931A038091BB00F0E0E75076
:10197000FD4F808390911A03809119039817C8F244
:1019800085E8D8CFE0911A0381E08E0F80931A0387
:101990008091BB00F0E0E750FD4F808380911C03F5
:1019A00081115CCF81E08093F70284EA8093BC00D0
:1019B00010921D0324CF85EC8093BC0010921D0370
:1019C0008091CA02803230F4E091CA02F0E0E6551C
:1019D000FD4F10826091CA0270E0E091D202F09156
:1019E000D3028AEA92E019951092CA0208CF1092A7
:1019F0001B0334CF10924A031092490348EE53E080
:101A000060E070E040934B0350934C0360934D03B0
:101A100070934E0383E192E09093480380934703D1
:101A200025E331E0309354032093530324E331E062
:101A3000309356032093550320E331E0309358034D
:101A40002093570321E331E030935A032093590345
:101A500022E331E030935C0320935B0326E331E023
:101A600030935E0320935D03109260031092610334
:101A700010926203109263031092E7031092E60340
:101A80004093E8035093E9036093EA037093EB03F8
:101A90009093E5038093E40325ED30E03093F10368
:101AA0002093F00324ED30E03093F3032093F2030E
:101AB00020ED30E03093F5032093F40321ED30E086
:101AC0003093F7032093F60322ED30E03093F903CF
:101AD0002093F80326ED30E03093FB032093FA03C4
:101AE0001092FD031092FE031092FF031092000467
:101AF00010928404109283044093850450938604CA
:101B00006093870470938804909382048093810487
:101B100085EC90E090938E0480938D0484EC90E0AB
:101B20009093900480938F0480EC90E090939204C3
:101B30008093910481EC90E09093940480939304BB
:101B400082EC90E0909396048093950486EC90E06C
:101B5000909398048093970410929A0410929B0497
:101B600010929C0410929D048091070290910802AB
:101B7000A0910902B0910A0280931607909317076B
:101B8000A0931807B093190780910B0290910C0253
:101B9000A0910D02B0910E0280931A0790931B073B
:101BA000A0931C07B0931D0784E080931E0787E075
:101BB00080931F071092200784EB8093210786E112
:101BC0008093220788E18093230787E1809324078D
:101BD00089E180932507E0912C06EC3008F4ACC035
:101BE0008FEF80932607E0912C06EC3008F4B5C007
:101BF0008FEF809327078CE08093F50684E2809333
:101C0000F60686E08093F70685E08093F8068FE17C
:101C10008093F9068EE18093FA0683E28093FB06B7
:101C200082E28093FC0685E48093FD0684E4809341
:101C3000FE0680E4809301071092060710920707C2
:101C4000109208071092090710920A0710920B07CA
:101C500010920C0710920D07E7E3F6E025EF36E04F
:101C60008FEF9FEFDC01128213821482158216829D
:101C700017821086118683879487A587B687878702
:101C8000908BA18BB28B12861182108273962E17C5
:101C90003F0749F78DE090E00E94D515FC011382C3
:101CA000128285E292E091838083118687E28483A9
:101CB00084E1828784E083871486F0933406E0937E
:101CC0003306109235061092360685E280931F0582
:101CD0001092210510922E0610922D0610923006B9
:101CE00010922F06109232061092310661E070E0D9
:101CF00090E080E00E94FA16009709F43FC09093AC
:101D00002E0680932D061092300610922F062091F9
:101D1000310630913206232B11F4FC01108210920F
:101D20003206109231066DE472E080912D0690919A
:101D30002E060E94E41736C081E08E0F80932C0699
:101D4000E093260785E0E89FF0011124E051FA4F67
:101D500088EB9BE09283818346CF81E08E0F809356
:101D60002C06E093270785E0E89FF0011124E0515D
:101D7000FA4F88EB9BE0928381833DCF80912D06C3
:101D800090912E06009711F00E94711610922E0667
:101D900010922D06109232061092310610923006E3
:101DA00010922F0610922F0710922E0788EE93E0C4
:101DB000A0E0B0E08093300790933107A093320702
:101DC000B093330781E392E090932D0780932C0723
:101DD000109239071092380710923A0786ED8093D7
:101DE0003D0781E090E090933C0780933B07089586
:101DF000CF93DF9300D01F92CDB7DEB7789484B530
:101E0000826084BD84B5816084BD85B5826085BDF6
:101E100085B5816085BD80916E00816080936E0084
:101E20001092810080918100826080938100809176
:101E30008100816080938100809180008160809327
:101E400080008091B10084608093B1008091B000E7
:101E500081608093B00080919100826080939100B6
:101E600080919100816080939100809190008160C9
:101E7000809390008091A10082608093A100809166
:101E8000A10081608093A1008091A0008160809377
:101E9000A000809121018260809321018091210125
:101EA00081608093210180912001816080932001D5
:101EB00080917A00846080937A0080917A008260B9
:101EC00080937A0080917A00816080937A0080917B
:101ED0007A00806880937A001092C100E0919104AA
:101EE000F091920482E08083E0918D04F0918E0461
:101EF0001082E0918F04F09190048FEC8083109217
:101F00009904E0919504F091960486E08083E09135
:101F10009304F0919404808180618083E091930424
:101F2000F0919404808188608083E0919304F09123
:101F30009404808180688083E0919304F0919404FC
:101F400080818F7D808361E08091F6060E94390256
:101F500060E08091F6060E940B0260E08091F50639
:101F60000E9439028CE297E0909300078093FF066D
:101F70001092D7021092D6021092240310924603B8
:101F80000E94A5058FE892E09093D5028093D40239
:101F900080E992E09093D3028093D20280E090E1B6
:101FA000A0E0B0E08093020790930307A09304079A
:101FB000B09305078AE090E0A0E0B0E080930607C8
:101FC00090930707A0930807B093090780E090E07B
:101FD000A0E0B0E480930A0790930B07A0930C074E
:101FE000B0930D0760E070E185E00E94CB066FE9D9
:101FF00079E380E00E94CB0607EF16E085EF96E0DC
:102000009A83898350E4A52E52E0B52E66E8862E89
:1020100062E0962E7BECE72E77E0F72EEBE8CE2EF3
:10202000DD24D394D80112969C91F80181918F01FF
:10203000A981BA8159968C9359975A969C9361E0DD
:102040000E94390261E0E981FA81828D0E943902A1
:10205000D80115969C91159713968C91E981FA8178
:10206000858F968F61E00E94390260E0A981BA8174
:102070005E968C910E94390261E0E981FA81858D3A
:102080000E940B027FB6F8948091D102811125C085
:10209000F5018491F4019491E82FF0E0EE0FFF1F19
:1020A000E952FE4FA591B4918C91982321F461E0FF
:1020B00085E30E940B0261E085E30E9439028CB542
:1020C00080618CBD8CB580648CBD61E084E30E942E
:1020D000390261E083E30E9439028091D1028F5F6F
:1020E0008093D1027FBEC7010197F1F760E0A9811B
:1020F000BA815D968C910E940B0288E80E941005BF
:1021000083E00E94100561E0E981FA81858D0E94DB
:102110000B02C7010197F1F760E0A981BA815D96D2
:102120008C910E940B0288E90E94100580E00E94B9
:10213000100580E00E94100580E00E94100580E0FC
:102140000E94100561E0E981FA81858D0E940B02F1
:10215000C6010197F1F760E0A981BA815D968C9183
:102160000E940B0280EE0E94100561E0E981FA8175
:10217000858D0E940B0289819A8102969A838983B8
:10218000895F964009F04ECFEAE1F7E0FA83E983F0
:1021900006E117E060E0A981BA818D91BA83A98335
:1021A0000E943902E981FA81EE51F74099F78EE1F8
:1021B00097E09A8389838AE1E82E87E0F82E95E0FC
:1021C000D92E2CE0B22E32E0C32EA981BA81AD9077
:1021D000BA83A98317968C918C3008F047C061E0D0
:1021E0008A2D0E943902E981FA818781D89EF00107
:1021F0001124E051FA4F2A2D2F739081907C922B5D
:102200009083138214826B2D0E94A2148B9DA001D7
:10221000112430E020E0BA01620F731FD69EF00156
:10222000D79EF00D1124E051FA4F908196FD12C017
:102230002F5F3F4F2C30310571F781110BC0109289
:102240008000C09281001092850010928400C6BA6E
:10225000C0926F00A981BA811796EC91DE9EF001C1
:102260001124E051FA4F808180648083E981FA81F2
:1022700095818381D80152968C93529753969C9363
:1022800060E00E94390261E0F80183890E9439020E
:1022900060E0D80153968C910E940B020E5F1F4F95
:1022A000E016F10609F091CFF8941092200189E030
:1022B0008093210180E293E090932901809328018B
:1022C000109225011092240182E08093730078948B
:1022D00080931E051092220580911F0560E00E94E8
:1022E000390261E08EE20E94390261E08CE20E94D4
:1022F000390261E08FE20E94390261E08DE20E94C2
:1023000039024DEC5CEC6CE47EEB8EE097E00E94D1
:10231000E9032DEC3CEC4CE45EE36091E802709143
:10232000E9028091EA029091EB020E94B714AB019E
:10233000BC01705880E197E00E94E90382E197E0D8
:102340000E94170597FFFDC082E197E00E941705E4
:1023500090958095709561957F4F8F4F9F4F0E940C
:1023600063136B017C0184E197E00E941705161648
:102370001706180619060CF0E9C084E197E00E94E0
:1023800017050E9463139B01AC01C701B6010E94AF
:10239000B6146B017C018091E8029091E902A09152
:1023A000EA02B091EB0289839A83AB83BC832FB797
:1023B000F8946091ED027091EE028091EF0290919D
:1023C000F0022FBF0E9461132091E0023091E102E0
:1023D0004091E2025091E3020E94B61420E030E006
:1023E0004AE754E40E9423154B015C0120E030E0F1
:1023F000A9010E945C1318160CF0B4C08092DC0294
:102400009092DD02A092DE02B092DF022FB7F89424
:102410006091ED027091EE028091EF029091F002D6
:102420002FBF0E9461136093E0027093E1028093DA
:10243000E2029093E3024090DC025090DD02609053
:10244000DE027090DF02A3019201C701B6010E9473
:10245000C2132091D8023091D9024091DA025091F2
:10246000DB020E94B7144B015C018092D80290926B
:10247000D902A092DA02B092DB022091E4023091FC
:10248000E5024091E6025091E702C701B6010E94C1
:10249000B614A30192010E9423152B013C01C092A6
:1024A000E402D092E502E092E602F092E70222E82E
:1024B00038EA4BEF57E3C701B6010E94C2136B0124
:1024C0007C0120E030E0A901C501B4010E94C213E3
:1024D0009B01AC01C701B6010E94B7146B017C01DE
:1024E0002CEA35EC47EA57E3C301B2010E94C2135C
:1024F0009B01AC01C701B6010E94B71429813A8142
:102500004B815C810E94B7146B017C014B015C0123
:10251000C092E802D092E902E092EA02F092EB0265
:10252000AC019B010E94D015882349F18FE392E012
:102530000E94D7078BE492E00E94D7070E94C40351
:10254000E0CE82E197E00E94170509CF84E197E091
:102550000E94170590958095709561957F4F8F4FDC
:102560009F4F0FCF8DEB97E3A6E8B5E38093DC0296
:102570009093DD02A093DE02B093DF0247CF2601E5
:102580003701E89477F82FEF3FEF4FE75FE7C3019C
:10259000B2010E94D01581110DC02FEF3FEF4FE720
:1025A0005FE7C301B2010E945C1318161CF483E4B8
:1025B00092E0BECF2FEF3FEF4FE75FE4C701B601D8
:1025C0000E94CB1518161CF487E492E0B1CF2FEFD0
:1025D0003FEF4FE75FECC701B6010E945C1387FD38
:1025E000F3CF20E030E0A901C701B6010E945C13DF
:1025F00087FF0BC06DE281E894E00E94540346011E
:102600005701B7FAB094B7F8B0942AE037ED43EA2F
:102610005BE3C501B4010E94B7144B015C010E9449
:102620009C156B017C010E9461139B01AC01C501EB
:10263000B4010E94B6144B015C014AE0C701B60127
:102640000E94E4076EE281E894E00E94540320E0D7
:1026500030E040E251E4C501B4010E94C2134B01D5
:102660005C010E949C156B01F12CE12C4AE0C70132
:10267000B6010E94E407C701B6010E9461139B01E5
:10268000AC01C501B4010E94B61420E030E040E284
:1026900051E40E94C2130E949C1590E080E04AE041
:1026A0000E94E40747CF80912D0690912E06009757
:1026B00011F00C94711608950E949E1308F481E0A5
:1026C0000895E89409C097FB3EF490958095709525
:1026D00061957F4F8F4F9F4F9923A9F0F92F96E96E
:1026E000BB279395F695879577956795B795F111E3
:1026F000F8CFFAF4BB0F11F460FF1BC06F5F7F4F80
:102700008F4F9F4F16C0882311F096E911C0772391
:1027100021F09EE8872F762F05C0662371F096E89A
:10272000862F70E060E02AF09A95660F771F881F69
:10273000DAF7880F9695879597F90895990F00080D
:10274000550FAA0BE0E8FEEF16161706E807F90783
:10275000C0F012161306E407F50798F0621B730B1E
:10276000840B950B39F40A2661F0232B242B252B9F
:1027700021F408950A2609F4A140A6958FEF811D42
:10278000811D08950E94D5130C9446140E9438149C
:1027900038F00E943F1420F0952311F00C942F1470
:1027A0000C94351411240C947A140E94571470F36D
:1027B000959FC1F3950F50E0551F629FF001729FE6
:1027C000BB27F00DB11D639FAA27F00DB11DAA1FF5
:1027D000649F6627B00DA11D661F829F2227B00D42
:1027E000A11D621F739FB00DA11D621F839FA00DCD
:1027F000611D221F749F3327A00D611D231F849F1D
:10280000600D211D822F762F6A2F11249F57504073
:102810009AF0F1F088234AF0EE0FFF1FBB1F661FEE
:10282000771F881F91505040A9F79E3F510580F0B7
:102830000C942F140C947A145F3FE4F3983ED4F375
:10284000869577956795B795F795E7959F5FC1F75B
:10285000FE2B880F911D9695879597F9089597F906
:102860009F6780E870E060E008959FEF80EC089536
:1028700000240A941616170618060906089500245F
:102880000A9412161306140605060895092E0394D9
:10289000000C11F4882352F0BB0F40F4BF2B11F44D
:1028A00060FF04C06F5F7F4F8F4F9F4F089557FDAC
:1028B0009058440F551F59F05F3F71F04795880FAE
:1028C00097FB991F61F09F3F79F087950895121645
:1028D00013061406551FF2CF4695F1DF08C01616F1
:1028E00017061806991FF1CF8695710561050894A2
:1028F0000895E894BB2766277727CB0197F90895B9
:10290000A1E21A2EAA1BBB1BFD010DC0AA1FBB1FF3
:10291000EE1FFF1FA217B307E407F50720F0A21B65
:10292000B30BE40BF50B661F771F881F991F1A94D2
:1029300069F760957095809590959B01AC01BD01FC
:10294000CF010895991B79E004C0991F961708F0EC
:10295000961B881F7A95C9F780950895EE0FFF1F83
:10296000881F8BBF0790F691E02D19945058BB2714
:10297000AA270E94CE140C9446140E94381438F0F2
:102980000E943F1420F039F49F3F19F426F40C9470
:1029900035140EF4E095E7FB0C942F14E92F0E94F8
:1029A000571458F3BA17620773078407950720F086
:1029B00079F4A6F50C9479140EF4E0950B2EBA2F49
:1029C000A02D0B01B90190010C01CA01A001112435
:1029D000FF27591B99F0593F50F4503E68F11A16E1
:1029E000F040A22F232F342F4427585FF3CF469572
:1029F00037952795A795F0405395C9F77EF41F1694
:102A0000BA0B620B730B840BBAF09150A1F0FF0F5D
:102A1000BB1F661F771F881FC2F70EC0BA0F621F49
:102A2000731F841F48F4879577956795B795F79539
:102A30009E3F08F0B0CF9395880F08F09927EE0FCE
:102A40009795879508950E9437150C9446140E9417
:102A50003F1458F00E94381440F029F45F3F29F0E9
:102A60000C942F1451110C947A140C9435140E9468
:102A7000571468F39923B1F3552391F3951B550B24
:102A8000BB27AA2762177307840738F09F5F5F4F41
:102A9000220F331F441FAA1FA9F335D00E2E3AF080
:102AA000E0E832D091505040E695001CCAF72BD098
:102AB000FE2F29D0660F771F881FBB1F26173707E9
:102AC0004807AB07B0E809F0BB0B802DBF01FF271B
:102AD00093585F4F3AF09E3F510578F00C942F14B5
:102AE0000C947A145F3FE4F3983ED4F3869577957F
:102AF0006795B795F7959F5FC9F7880F911D9695D4
:102B0000879597F90895E1E0660F771F881FBB1F2F
:102B1000621773078407BA0720F0621B730B840BDC
:102B2000BA0BEE1F88F7E09508950E949C156894F3
:102B3000B1110C947A1408950E945F1488F09F5785
:102B400098F0B92F9927B751B0F0E1F0660F771FD1
:102B5000881F991F1AF0BA95C9F714C0B13091F0C7
:102B60000E947914B1E008950C947914672F782F9E
:102B70008827B85F39F0B93FCCF38695779567958C
:102B8000B395D9F73EF490958095709561957F4FF8
:102B90008F4F9F4F08950E949E1308F48FEF089562
:102BA0000E949E13880B990B08950F931F93CF9348
:102BB000DF938230910510F482E090E0E0914007CD
:102BC000F091410730E020E0B0E0A0E0309799F4C8
:102BD0002115310509F44AC0281B390B2430310571
:102BE000D8F58A819B816115710589F1FB01938379
:102BF0008283FE0111C040815181028113814817F7
:102C00005907E0F04817590799F4109761F01296A8
:102C10000C93129713961C933296CF01DF91CF91AC
:102C20001F910F9108950093400710934107F4CF2F
:102C30002115310551F04217530738F0A901DB0186
:102C40009A01BD01DF01F801C1CFEF01F9CF9093E7
:102C5000410780934007CDCFFE01E20FF31F819320
:102C600091932250310939832883D7CF20913E0791
:102C700030913F07232B41F420910302309104024D
:102C800030933F0720933E072091010230910202CA
:102C90002115310541F42DB73EB740910502509101
:102CA0000602241B350BE0913E07F0913F07E21727
:102CB000F307A0F42E1B3F0B2817390778F0AC015F
:102CC0004E5F5F4F2417350748F04E0F5F1F50933C
:102CD0003F0740933E07819391939FCFF0E0E0E060
:102CE0009CCFCF93DF930097E9F0FC0132971382DA
:102CF0001282A0914007B0914107ED0130E020E041
:102D00001097A1F420813181820F931F20913E07FB
:102D100030913F072817390709F061C0F0933F074A
:102D2000E0933E07DF91CF910895EA01CE17DF07C8
:102D3000E8F54A815B819E0141155105B1F7E90132
:102D4000FB83EA8349915991C40FD51FEC17FD0706
:102D500061F4808191810296840F951FE901998326
:102D60008883828193819B838A83F0E0E0E01296DE
:102D70008D919C9113970097B9F52D913C911197E6
:102D8000CD010296820F931F20913E0730913F079D
:102D90002817390739F6309751F5109241071092EC
:102DA0004007B0933F07A0933E07BCCFD383C283B5
:102DB00040815181840F951FC817D90761F44E5F78
:102DC0005F4F88819981480F591F518340838A81C1
:102DD0009B81938382832115310509F0B0CFF09355
:102DE0004107E09340079ECFFD01DC01C0CF138275
:102DF0001282D7CF4F925F926F927F928F929F9263
:102E0000AF92BF92CF92DF92EF92FF920F931F93F8
:102E1000CF93DF938C01009799F4CB01DF91CF9191
:102E20001F910F91FF90EF90DF90CF90BF90AF90E8
:102E30009F908F907F906F905F904F900C94D515DE
:102E4000FC01E60FF71F9C0122503109E217F3073E
:102E500008F4AEC0D901CD91DC911197C617D70700
:102E600020F1C530D10578F0CE0104978617970779
:102E700050F0C61BD70B2297C193D1936D937C93CF
:102E8000CF010E947116C801DF91CF911F910F9160
:102E9000FF90EF90DF90CF90BF90AF909F908F907A
:102EA0007F906F905F904F9008955B01AC1ABD0AC0
:102EB0004C018C0E9D1EA0914007B0914107512CF2
:102EC000412CF12CE12C109731F580913E07909127
:102ED0003F078815990509F05CC04616570608F0AB
:102EE00058C08091010290910202009741F48DB781
:102EF0009EB74091050250910602841B950BE8177E
:102F0000F90708F055C0F0933F07E0933E07F90139
:102F100071836083B8CF8D919C91119712966C90BC
:102F2000129713967C901397A815B90559F56C0163
:102F300042E0C40ED11CCA14DB0420F1AC014A19D2
:102F40005B09DA011296159780F0628273825183D1
:102F50004083D9016D937C93E114F10471F0D701A2
:102F60001396FC93EE9312978ECF22968C0F9D1F93
:102F7000F90191838083F301EFCFF0934107E09350
:102F8000400781CF4816590608F42C017D01D30172
:102F90009ACFCB010E94D5157C01009749F0AE0174
:102FA000B8010E94DB17C8010E94711687016BCF20
:102FB00010E000E068CFFB01DC0102C001900D923F
:102FC00041505040D8F70895FB01DC0101900D926B
:102FD0000020E1F7089511E0C0E7D1E000E006C06D
:102FE000802FFE010E94AE142196011DC137D1072A
:0A2FF00080E00807A9F7F894FFCF6E
:102FFA00FF000042078000363738391B1D1A1C00B3
:10300A0000000054039102D702A1030803E602FA62
:10301A000200000000B30791029B077D0500000033
:10302A000059072C079B0702072507120703076E9B
:0E303A00616E00696E66006F7666000D0A001A
:00000001FF
