:100000000C9485010C94B6010C94B6010C94B601C5
:100010000C94B6010C94B6010C94B6010C94B60184
:100020000C94B6010C943E0A0C943E0A0C943E0AC1
:100030000C94B6010C94920A0C94B6010C94B6017F
:100040000C94B6010C940C0D0C94B6010C94B601F2
:100050000C94B6010C94B6010C94B6010C94480AA9
:100060000C94B6010C94010C0C94D70B0C94B601B3
:100070000C94B6010C94B6010C94B6010C94B60124
:100080000C94B6010C94B6010C94B6010C94B60114
:100090000C94B6010C94B6010C94B6010C94B40DFA
:1000A0000C94B6010C94B6010C94B6010C94B601F4
:1000B0000C94B6010C94B6010C94B6010C942B0C64
:1000C0000C94B6010C94B6010C94B6010C94AD0BD3
:1000D0000C94830B0C94B6010C94590B0C942F0BBD
:1000E0000C94B60107634236B79BD8A71A396856F5
:1000F00018AEBAAB558C1D3CB7CC5763BD6DEDFD4A
:10010000753EF6177231BF000000803F0C94C41496
:100110000C94F5010C940D020C94FF010C94E80171
:100120000C9414050C9411020C94D6010C947807CD
:100130000C94F6040C9417020C94D80E0C949E03A5
:100140000C94B2040C941B020C94EE040C9409025F
:100150000C94E0010C94CE070C94A1070C9452036C
:100160000C94FB010C9410080C9416020C942D05B1
:100170000C94DD080C9423050C9477070C940A0565
:100180000C9437050C94D2040C94DB020C94870772
:100190000C94E4010C9421030C9455050C94DC019F
:1001A0000C944B050C9444030C94EB010C94F1015A
:1001B0000C9430030C94DC040C94F2050C949A0714
:1001C0000C94DA020C94D9020C94C8040C94C30465
:1001D0000C94E6040C9400050C94EB030C940302BD
:1001E0000C944105000020002300260029002C006B
:1001F0002F00320000010000030106010901020086
:10020000002100240027002A002D003000330001C7
:10021000010000040107010A010000220025002856
:10022000002B002E003100340002010000050108FF
:10023000010B01050505050705080808080202026B
:10024000020A0A0808040404040101010101010171
:10025000010303030303030303040707070C0C0C48
:100260000C0C0C0C0C020202020606060606060620
:10027000060B0B0B0B0B0B0B0B01021020200808BD
:1002800010204010204080020102010804020101F8
:1002900002040810204080804020100804020180E1
:1002A0000402018040201008040201080402010138
:1002B0000204081020408001020408102040800041
:1002C000000A0B02090C0D0E0807030401000000D0
:1002D000000000000000000000000000000000001E
:1002E00000000000000000000000001211100000DB
:1002F00000000000000000000000000000000000FE
:10030000000000000000D80EC41411241FBECFEF5F
:10031000D1E2DEBFCDBF00E00CBF12E0A0E0B2E052
:10032000E8E5F4E300E00BBF02C007900D92A234B1
:10033000B107D9F727E0A2E4B2E001C01D92A233D1
:10034000B207E1F711E0C4E8D1E000E006C0219770
:100350000109802FFE010E94FD15C338D10780E0FE
:100360000807A9F70E94D6100C941A1A0C940000E2
:100370008150823108F05AC0E82FF0E08827EC5312
:10038000FE4F8F4F0C94FD15E401E801D601DC010E
:10039000E0011602EB01F101F501FB01FF0103028F
:1003A00009020D021602110217021B028091800041
:1003B0008F77809380000895809180008F7DF9CFA2
:1003C00080918000877FF5CF84B58F7784BD0895B5
:1003D00084B58F7DFBCF8091B0008F778093B00084
:1003E00008958091B0008F7DF9CF809190008F7734
:1003F000809390000895809190008F7DF9CF809137
:100400009000877FF5CF8091A0008F778093A00028
:1004100008958091A0008F7DF9CF8091A000877F03
:10042000F5CF809120018F778093200108958091EE
:1004300020018F7DF9CF80912001877FF5CF1F9319
:10044000CF93DF93282F30E0F901E154FD4F8491E1
:10045000F901E758FD4FD491F901ED5CFD4FC491CE
:10046000CC23A9F0162F81110E94B801EC2FF0E0E7
:10047000EE0FFF1FE75EFD4FA591B4918FB7F89483
:10048000EC91111108C0D095DE23DC938FBFDF9172
:10049000CF911F910895DE2BF8CFCF93DF9390E09B
:1004A000FC01E758FD4F24918D5C9D4FFC01849128
:1004B0008823D1F090E0880F991FFC01E150FE4F96
:1004C000A591B491FC01E75EFD4FC591D4916111F6
:1004D0000EC09FB7F8948C91E22FE0958E238C93F9
:1004E0002881E223E8839FBFDF91CF9108958FB7E2
:1004F000F894EC91E22BEC938FBFF6CF3FB7F894D2
:100500008091E1029091E202A091E302B091E402B5
:1005100026B5A89B05C02F3F19F00196A11DB11D5E
:100520003FBFBA2FA92F982F8827BC01CD01620F9A
:10053000711D811D911D42E0660F771F881F991F55
:100540004A95D1F708958F929F92AF92BF92CF9222
:10055000DF92EF92FF920E947E024B015C0188EED7
:10056000C82E83E0D82EE12CF12C0E947E0268195F
:1005700079098A099B09683E734081059105A8F3B2
:1005800021E0C21AD108E108F10888EE880E83E064
:10059000981EA11CB11CC114D104E104F10429F777
:1005A000FF90EF90DF90CF90BF90AF909F908F9093
:1005B000089508950895AF92BF92CF92DF92EF927F
:1005C000FF920F931F93CF93DF936C017B018B01FD
:1005D000040F151FEB015E01AE18BF08C017D1074D
:1005E00059F06991D601ED91FC910190F081E02DD7
:1005F000C6011995892B79F7C501DF91CF911F911C
:100600000F91FF90EF90DF90CF90BF90AF90089543
:10061000FC01A089B1898C91A689B78982FD0FC0A0
:100620009C91818D8F5F8F73228D821749F0A18DF0
:10063000AE0FBF2FB11D5D969C93818F08958C9155
:100640000895FC01538D448D252F30E0842F90E0D8
:10065000821B930B541710F0CF96089501970895BD
:10066000FC01918D828D981761F0A28DAE0FBF2F86
:10067000B11D5D968C91928D9F5F9F73928F90E0DC
:1006800008958FEF9FEF0895FC01918D828D98174B
:1006900031F0828DE80FF11D858D90E008958FEF88
:1006A0009FEF0895FC01918D228D892F90E0805C51
:1006B0009F4F821B91098F739927089587E393E0D9
:1006C0000E94520321E0892B09F420E0822F089533
:1006D00084ED93E00E94520321E0892B09F420E08D
:1006E000822F089581E794E00E94520321E0892B34
:1006F00009F420E0822F0895FC01A48DA80FB92FE2
:10070000B11DA35ABF4F2C91848D90E001968F7339
:100710009927848FA689B7892C93A089B1898C9158
:10072000837080648C93938D848D981306C00288A7
:10073000F389E02D80818F7D80830895EF92FF9271
:100740000F931F93CF93DF93EC0181E0888F9B8DF4
:100750008C8D98131AC0E889F989808185FF15C0AE
:100760009FB7F894EE89FF896083E889F9898081D1
:100770008370806480839FBF81E090E0DF91CF91A0
:100780001F910F91FF90EF900895F62E0B8D10E0C2
:100790000F5F1F4F0F731127E02E8C8D8E110CC031
:1007A0000FB607FCFACFE889F989808185FFF5CF7C
:1007B000CE010E947C03F1CFEB8DEC0FFD2FF11DDC
:1007C000E35AFF4FF0829FB7F8940B8FEA89FB89B9
:1007D00080818062CFCFCF93DF93EC01888D882317
:1007E000B9F0AA89BB89E889F9898C9185FD03C094
:1007F000808186FD0DC00FB607FCF7CF8C9185FF79
:10080000F2CF808185FFEDCFCE010E947C03E9CF3E
:10081000DF91CF910895F0E0E0E0199480E090E05E
:10082000892B29F00E94720381110E94000080E050
:1008300090E0892B49F080E090E0892B29F00E941C
:10084000000081110E9400000E94680381110E9433
:100850000B0480E090E0892B29F00E945E03811157
:100860000C94000008958F929F92AF92BF92CF9206
:10087000DF92EF92FF920F931F93CF93DF93EC01E0
:100880006A017B0120E030E04FE753E4CB01B60181
:100890000E9433154B015C0120E030E0A9010E9469
:1008A0007B1718168CF5C501B4010E941E178B0129
:1008B000B98020E030E0A901C701B6010E947B1792
:1008C00060E018160CF061E08B2D0E941F020F3FB4
:1008D000110509F0ECF41127C88161E08C2F0E940A
:1008E0004D0201151105B9F460E08C2FDF91CF9115
:1008F0001F910F91FF90EF90DF90CF90BF90AF903E
:100900009F908F900C941F02C501B4019058CDCFD9
:100910000FEF10E0E1CF0F3F110511F461E0E5CFDB
:10092000EC2FF0E0E154FD4FE491E150E23108F0AA
:10093000BCC0F0E08827E056FB4F8F4F0C94FD15AC
:10094000B204C304C804D204DC045505E604EE0472
:10095000F60400050A05140523052D055505370580
:1009600041054B0584B5806884BD07BDDF91CF91FB
:100970001F910F91FF90EF90DF90CF90BF90AF90BD
:100980009F908F90089584B5806284BD08BDEECF9E
:10099000809180008068809380001093890000938C
:1009A0008800E4CF80918000806280938000109363
:1009B0008B0000938A00DACF80918000886080935A
:1009C000800010938D0000938C00D0CF8091B000F8
:1009D00080688093B0000093B300C8CF8091B000CE
:1009E00080628093B0000093B400C0CF80919000EB
:1009F0008068809390001093990000939800B6CF80
:100A00008091900080628093900010939B000093EF
:100A10009A00ACCF809190008860809390001093F2
:100A20009D0000939C00A2CF8091A00080688093DD
:100A3000A0008091A0008F7B8093A0001093A9005C
:100A40000093A80093CF8091A00080628093A000C3
:100A50001093AB000093AA0089CF8091A00088601A
:100A60008093A0001093AD000093AC007FCF8091E5
:100A700020018068809320011093290100932801B0
:100A800075CF8091200180628093200110932B010B
:100A900000932A016BCF8091200188608093200110
:100AA00010932D0100932C0161CF003811050CF03B
:100AB00035CF1ACF8EBD00000DB407FEFDCF8EB529
:100AC0000895CF93DF93EC0160E088810E941F02BC
:100AD00088E90E945A0580E00E945A0580E00E9441
:100AE0005A0580E00E945A0580E00E945A0561E0A4
:100AF00088810E941F028BE891E00197F1F760E086
:100B000088810E941F0280EE0E945A0561E0888160
:100B1000DF91CF910C941F02AF92BF92CF92DF92E0
:100B2000EF92FF920F931F93CF93DF93CDB7DEB772
:100B300060970FB6F894DEBF0FBECDBF6C0160E0CA
:100B4000FC0180810E941F0280E60E945A059E01DE
:100B50002F5F3F4F79015E0131E1A30EB11C870188
:100B600080E00E945A0590E0B0E0A0E0F801819397
:100B70009193A193B1938F01EA15FB0589F761E089
:100B8000F60180810E941F0280E090E0DC01F70105
:100B900041915191619171917F01BA2FA92F982FA5
:100BA0008827840F951FA61FB71FE017F10779F755
:100BB0009C01AD0166277727CB01621B730B840B69
:100BC000950B60960FB6F894DEBF0FBECDBFDF91D8
:100BD000CF911F910F91FF90EF90DF90CF90BF903A
:100BE000AF90089508952091A802260F3327331F50
:100BF00021323105ECF420910D03FC0190E080E0FE
:100C0000243069F082E00895A091A8022191AC01FE
:100C100048575D4FA40FB52FB11D2C930196861731
:100C200098F38091A802680F6093A80280E008956D
:100C300081E0089510920D0381E080930C031092DF
:100C4000E70261E084E10E941F0261E085E10E9409
:100C50001F02E9EBF0E080818E7F808380818D7FB1
:100C6000808388E48093B80085E48093BC00089575
:100C7000CF93DF9391E0909387028823B9F0C091DE
:100C8000B800D091BA008091BC008A7B8093BC00F0
:100C900060E084E10E941F0260E085E10E941F0283
:100CA0000E941A06D093BA00C093B800DF91CF918A
:100CB0000895CF92DF92EF92FF920F931F93CF93FD
:100CC000DF93D091360381E0D13208F09CC0C0910F
:100CD00035030E947E026B017C0180910D0381111E
:100CE0006CC082E080930D0381E080930C038FEF52
:100CF00080930B0310920A03D0930903A5E1B3E09C
:100D0000E9EEF2E080E0D8138DC01092E802809105
:100D1000E802CC0FC82BC093E8028091E702813033
:100D200009F084C01092E7020E947E026B017C01F0
:100D30008091E8028093BB0080910F039091100393
:100D4000A0911103B0911203892B8A2B8B2BA1F058
:100D50000E947E0200910F03109110032091110355
:100D6000309112036C197D098E099F090617170728
:100D70002807390708F442C08091BC0083FDD8CF12
:100D800085EC8093BC000E947E026B017C01809107
:100D90000D03823009F44CC080910B038F3F09F49E
:100DA00069C080910B03803209F466C080910B0307
:100DB000803309F463C084E026C080910F039091D2
:100DC0001003A0911103B0911203892B8A2B8B2B56
:100DD00009F483CF0E947E0200910F03109110034B
:100DE00020911103309112036C197D098E099F091E
:100DF000061717072807390708F06FCF80910E03F1
:100E00000E94380685E01092140310923603109267
:100E10001303DF91CF911F910F91FF90EF90DF901F
:100E2000CF9008959D9191938F5F6DCF85EEA9CF5F
:100E300080910F0390911003A0911103B0911203C0
:100E4000892B8A2B8B2B09F4A2CF0E947E02009162
:100E50000F031091100320911103309112036C19AC
:100E60007D098E099F09061717072807390708F01B
:100E70008ECFC4CF80E0C7CF82E0C5CF83E0C3CFA1
:100E80000F931F93CF93DF93162F072FC5EED6E056
:100E9000AA85BB859C8521E020931303909335039D
:100EA0001092140310923603ED91FC91119701906A
:100EB000F081E02D682FCD0119958A859B85DC0195
:100EC000ED91FC910190F081E02D602F19958A85BC
:100ED0009B85DC01ED91FC910190F081E02D612F6B
:100EE0001995DF91CF911F910F910C945906089598
:100EF000E091D7028091D602E81730F4F0E0E9598A
:100F0000FD4F808190E008958FEF9FEF08959091BD
:100F1000D7028091D6022FEF3FEF981748F4E92FC0
:100F2000F0E0E959FD4F208130E09F5F9093D702B8
:100F3000C90108958091D6029091D702891B990B1F
:100F40000895CF92DF92EF92FF920F931F93CF936A
:100F5000DF937C01CB018A0120911303222389F0C6
:100F6000EB016B01C40ED51ECC15DD0569F069914E
:100F7000D701ED91FC910190F081E02DC701199509
:100F8000F3CF642F0E94F305C801DF91CF911F9129
:100F90000F91FF90EF90DF90CF900895CF93DF9364
:100FA0001F92CDB7DEB76983209113032223F9F096
:100FB00020913603203258F021E030E0FC013383E9
:100FC000228390E080E00F90DF91CF91089580918F
:100FD0001403E82FF0E0EB5EFC4F998190838F5F64
:100FE000809314038093360381E090E0ECCF61E0BE
:100FF000CE0101960E94F305F7CFFC01248131E078
:101000003093130320933503109214031092360388
:101010008485682B8CE197E00E94CE070C945906DA
:1010200090E080E008954F925F926F927F928F924E
:101030009F92AF92BF92CF92DF92EF92FF92CF93A7
:10104000DF936B017C01EA012FB7F8946091DD0218
:101050007091DE028091DF029091E0022FBF0E942A
:10106000D214209163023091640240916502509144
:1010700066020E94051620E030E04AE754E40E9430
:10108000721660935F027093600280936102909386
:1010900062022FB7F8946091DD027091DE028091B8
:1010A000DF029091E0022FBF0E94D214609363028E
:1010B00070936402809365029093660240905F0291
:1010C000509060026090610270906202A7019601E8
:1010D000C301B2010E94331520915B0230915C0282
:1010E00040915D0250915E020E9406164B015C0128
:1010F00080925B0290925C02A0925D02B0925E02CE
:10110000288139814A815B81C701B6010E94051699
:10111000A30192010E9472162B013C01C882D98260
:10112000EA82FB8222E838EA4BEF57E3C701B601B7
:101130000E9433156B017C0120E030E0A901C5015C
:10114000B4010E9433159B01AC01C701B6010E9496
:1011500006166B017C012CEA35EC47EA57E3C30124
:10116000B2010E9433159B01AC01C701B6010E9478
:101170000616DF91CF91FF90EF90DF90CF90BF9058
:10118000AF909F908F907F906F905F904F90089559
:101190000F931F93CF938C01C62F64600E94FD07AD
:1011A0006C2F6B7FC8010E94FD0783EC90E00197D4
:1011B000F1F7CF911F910F9108950F931F93CF9344
:1011C000DF938C01C62FD62FD07FD1606D2F0E9468
:1011D000FD076D2FC8010E94C80880E1C89FE0018B
:1011E0001124C1606C2FC8010E94FD076C2FC8013B
:1011F0000E94C80881E090E0DF91CF911F910F918C
:101200000895CF93DF93FC0101900020E9F7319717
:10121000AF01481B590BBC0181E794E00E94DB023F
:10122000EC0142E050E06FE372E081E794E00E945D
:10123000DB028C0F9D1FDF91CF91089585ED809388
:10124000BC0080910F0390911003A0911103B09105
:1012500012030796A11DB11D23E0B695A79597959A
:1012600087952A95D1F72091BC0024FD03C01092E8
:101270000D03089540910F035091100360911103E5
:1012800070911203452B462B472B69F30097A1055C
:10129000B10541F02AE22A95F1F700C00197A109B2
:1012A000B109E1CF80910E030C9438064F925F9202
:1012B0006F927F928F929F92AF92BF92CF92DF9266
:1012C000EF92FF920F931F93CF93DF9300D000D044
:1012D0001F921F92CDB7DEB769837A838B839C837D
:1012E0002D833E834F8358874701C801B70132E001
:1012F00096958795779567953A95D1F70E94D21480
:101300002B013C016D817E818F8198850E94D214D2
:101310006B017C01A30192010E94CD1487FF57C08D
:10132000A3019201C701B6010E94721620E030E0CD
:1013300040EC50E40E94331520E030E040E450E4FB
:101340000E94051690580E94EC1620E030E040E81C
:101350005FE30E9406169B01AC0160E070E080E84C
:101360009FE30E94721629813A814B815C810E9421
:1013700033156B017C012AE939E949E15EE30E94FA
:10138000CD1487FD6BC020E030E040E85FE3C7018B
:10139000B6010E947B1718160CF469C0C701B6018C
:1013A00028960FB6F894DEBF0FBECDBFDF91CF9168
:1013B0001F910F91FF90EF90DF90CF90BF90AF9073
:1013C0009F908F907F906F905F904F900895C8018D
:1013D000B40196958795779567950E94D2144B0135
:1013E0005C01AC019B01C701B6010E947B1787FD20
:1013F00030C0A5019401C701B6010E940516A501E0
:1014000094010E94721620E030E040EC50E40E940B
:10141000331520E030E040E450E40E940516905877
:101420000E94EC1620E030E040E85FE30E940616E0
:101430009B01AC0160E070E080E89FE30E947216BF
:101440009B01AC0160E070E080E89FE30E9405161C
:101450008ACF60E070E080E89FE385CF9AE9C92EEB
:1014600099E9D92E99E1E92E9EE3F92E97CFC12C67
:10147000D12C80E8E82E8FE3F82E90CF1F920F92A8
:101480000FB60F9211240F900FBE0F901F9018955A
:101490001F920F920FB60F9211242F933F938F93A9
:1014A0009F93AF93BF938091DD029091DE02A09154
:1014B000DF02B091E0023091DC0223E0230F2D37F0
:1014C00058F50196A11DB11D2093DC028093DD0229
:1014D0009093DE02A093DF02B093E0028091E102DC
:1014E0009091E202A091E302B091E4020196A11D65
:1014F000B11D8093E1029093E202A093E302B093C6
:10150000E402BF91AF919F918F913F912F910F90E6
:101510000FBE0F901F90189526E8230F0296A11D6D
:10152000B11DD2CF1F920F920FB60F9211240BB69E
:101530000F922F933F934F935F936F937F938F936C
:101540009F93AF93BF93EF93FF938091CD029091C0
:10155000CE02A091CF02B091D002892B8A2B8B2B87
:10156000D1F19091CC0280910000892780930000F6
:101570008091CD029091CE02A091CF02B091D00285
:10158000181619061A061B069CF48091CD0290913C
:10159000CE02A091CF02B091D0020197A109B1096A
:1015A0008093CD029093CE02A093CF02B093D0024D
:1015B000FF91EF91BF91AF919F918F917F916F912B
:1015C0005F914F913F912F910F900BBE0F900FBEE7
:1015D0000F901F90189580910002EEEFF1E0E491DA
:1015E0009FEF90930002E230E9F040F4EE2389F09F
:1015F000E13091F060E00E941F02DACFE43049F15F
:1016000010F1E530B9F7909173009D7F90937300CE
:10161000F1CF10926E00EECF90916F009D7F90936E
:101620006F00E8CF909170009D7F9093700091E0E3
:101630009093B0009091B100987F94609093B10026
:101640001092B300D7CF909171009D7F909371005D
:10165000D1CF909172009D7F90937200CBCF1F925B
:101660000F920FB60F9211240BB60F922F933F9348
:101670004F935F936F937F938F939F93AF93BF939A
:10168000EF93FF9387E393E00E947C03FF91EF9138
:10169000BF91AF919F918F917F916F915F914F918A
:1016A0003F912F910F900BBE0F900FBE0F901F9088
:1016B00018951F920F920FB60F9211240BB60F922E
:1016C0002F933F934F935F936F937F938F939F934A
:1016D000AF93BF93EF93FF9387E393E00E940803D8
:1016E000FF91EF91BF91AF919F918F917F916F91FA
:1016F0005F914F913F912F910F900BBE0F900FBEB6
:101700000F901F9018951F920F920FB60F921124F1
:101710000BB60F922F933F934F935F936F937F93EB
:101720008F939F93AF93BF93EF93FF9384ED93E0D9
:101730000E947C03FF91EF91BF91AF919F918F9198
:101740007F916F915F914F913F912F910F900BBEC1
:101750000F900FBE0F901F9018951F920F920FB60B
:101760000F9211240BB60F922F933F934F935F93D9
:101770006F937F938F939F93AF93BF93EF93FF9359
:1017800084ED93E00E940803FF91EF91BF91AF9128
:101790009F918F917F916F915F914F913F912F9189
:1017A0000F900BBE0F900FBE0F901F9018951F92B9
:1017B0000F920FB60F9211240BB60F922F933F93F7
:1017C0004F935F936F937F938F939F93AF93BF9349
:1017D000EF93FF9381E794E00E947C03FF91EF91E8
:1017E000BF91AF919F918F917F916F915F914F9139
:1017F0003F912F910F900BBE0F900FBE0F901F9037
:1018000018951F920F920FB60F9211240BB60F92DC
:101810002F933F934F935F936F937F938F939F93F8
:10182000AF93BF93EF93FF9381E794E00E94080387
:10183000FF91EF91BF91AF919F918F917F916F91A8
:101840005F914F913F912F910F900BBE0F900FBE64
:101850000F901F9018951F920F920FB60F921124A0
:101860000BB60F922F933F934F935F936F937F939A
:101870008F939F93AF93BF93CF93DF93EF93FF9398
:1018800020910F0530E0F901E154FD4F8491F901F9
:10189000E758FD4FD491F901ED5CFD4FC491CC2385
:1018A00079F081110E94B801EC2FF0E0EE0FFF1FDC
:1018B000EC51FE4FA591B491EC91ED2381E009F438
:1018C00080E020911305309114052F5F3F4F309336
:1018D00014052093130590911205953618F096E0A3
:1018E00090930E0590910E05943009F466C0B8F4FB
:1018F0009230F1F0933009F444C09091110599238E
:1019000009F46BC081117EC080911005882309F411
:1019100063C08091100561E00E941F025EC0953097
:1019200009F457C0963049F791E09093DF054FC016
:101930008111E3CF20911305309114052436310530
:1019400028F41092140510921305D7CF1092DF05DA
:1019500010921205E091120591E09E0F90931205EE
:10196000F0E02091130530911405EE0FFF1FE25FA8
:10197000FA4F30872783109214051092130593E0D5
:1019800019C0813009F0B9CFE091120591E09E0FA6
:1019900090931205F0E02091130530911405EE0F9D
:1019A000FF1FE25FFA4F30872783109214051092D1
:1019B000130594E090930E05A0CF882359F220914F
:1019C0001305309114052536310508F496CF95E0BE
:1019D000F1CF811192CFB5CF2F9AFF91EF91DF9187
:1019E000CF91BF91AF919F918F917F916F915F91B7
:1019F0004F913F912F910F900BBE0F900FBE0F9004
:101A00001F90189580911005882321F08091100572
:101A100060E082CF2F98E1CF1F920F920FB60F9206
:101A200011240BB60F922F933F934F935F936F93B5
:101A30007F938F939F93AF93BF93CF93DF93EF9356
:101A4000FF938091CB02C0911C06D0E087FF23C09A
:101A500010928500109284008091CB028F5F80935A
:101A6000CB028091CB02082E000C990B8C179D079E
:101A700024F48091CB028C3074F180918400909199
:101A8000850084349C4908F465C08091840090915D
:101A90008500049661C08091CB02082E000C990B42
:101AA0008C179D07CCF63091CB0225E03203F00174
:101AB0001124E052FA4F808186FFCECF3091CB02C5
:101AC0003203F0011124E052FA4F808160E08F73FD
:101AD0000E941F02C1CF80918400909185003091B7
:101AE000CB0225E03203F0011124E052FA4F41818C
:101AF0005281840F951F90938900809388003091C4
:101B0000CB023203F0011124E052FA4F808186FFAC
:101B10000CC03091CB023203F0011124E052FA4F95
:101B2000808161E08F730E941F02FF91EF91DF912E
:101B3000CF91BF91AF919F918F917F916F915F9165
:101B40004F913F912F910F900BBE0F900FBE0F90B2
:101B50001F90189580E49CE99093890080938800F9
:101B60008FEF8093CB02E1CF1F920F920FB60F92AF
:101B700011240BB60F922F933F934F935F936F9364
:101B80007F938F939F93AF93BF93EF93FF93809136
:101B9000B900887F803609F44DC008F040C0883213
:101BA00009F4A9C028F5803109F49DC0C8F4882340
:101BB00009F4FBC0883009F496C0FF91EF91BF9102
:101BC000AF919F918F917F916F915F914F913F91D5
:101BD0002F910F900BBE0F900FBE0F901F90189576
:101BE000883109F488C0803241F780930B0314C018
:101BF000803409F49DC040F48033B9F38833E9F6AA
:101C000080930B0385ECB0C0803509F485C088351E
:101C100009F496C0883489F60E941E09CECF88390F
:101C200009F48CC038F5883729F050F4883611F063
:101C3000803719F683E080930D031092CA0257C0D3
:101C4000883809F47BC0803919F0803809F0B5CFA5
:101C50008091CA02803208F071C0E091CA0281E02E
:101C60008E0F8093CA028091BB00F0E0E655FD4FD5
:101C700080833DC0803B39F0E0F4803A09F479C0BC
:101C8000883A09F09ACF84E080930D031092A9025C
:101C90001092A802E091D402F091D502199580919A
:101CA000A80281110FC081E08093A80210928802DF
:101CB00009C0803C09F4A6CF883C09F4A3CF883B37
:101CC00009F07BCFE091A90281E08E0F8093A902F9
:101CD000F0E0E857FD4F80818093BB009091A9020E
:101CE0008091A80229C08091E8028093BB0085EC16
:101CF0008093BC0062CF90910A03809109039817EA
:101D000058F5E0910A0381E08E0F80930A03F0E01A
:101D1000E751FD4F8081E9CFE0910A0381E08E0F0A
:101D200080930A038091BB00F0E0E751FD4F808370
:101D300090910A03809109039817C8F285E8D8CFDB
:101D4000E0910A0381E08E0F80930A038091BB002B
:101D5000F0E0E751FD4F808380910C0381115CCF4F
:101D600081E08093E70284EA8093BC0010920D0327
:101D700024CF85EC8093BC0010920D038091CA02A1
:101D8000803230F4E091CA02F0E0E655FD4F108257
:101D90006091CA0270E0E091D202F091D3028AEA27
:101DA00092E019951092CA0208CF10920B0334CF1B
:101DB00010923A031092390348EE53E060E070E06D
:101DC00040933B0350933C0360933D0370933E0369
:101DD00083E192E0909338038093370325E331E069
:101DE000309344032093430324E331E030934603CC
:101DF0002093450320E331E03093480320934703C9
:101E000021E331E030934A032093490322E331E098
:101E100030934C0320934B0326E331E030934E0381
:101E200020934D03109250031092510310925203CD
:101E3000109253031092D7031092D6034093D80305
:101E40005093D9036093DA037093DB039093D50327
:101E50008093D40325ED30E03093E1032093E00339
:101E600024ED30E03093E3032093E20320ED30E0F3
:101E70003093E5032093E40321ED30E03093E70352
:101E80002093E60322ED30E03093E9032093E8034A
:101E900026ED30E03093EB032093EA031092ED033C
:101EA0001092EE031092EF031092F003109274045C
:101EB00010927304409375045093760460937704F2
:101EC00070937804909372048093710485EC90E091
:101ED00090937E0480937D0484EC90E09093800442
:101EE00080937F0480EC90E090938204809381043F
:101EF00081EC90E0909384048093830482EC90E0E2
:101F0000909386048093850486EC90E090938804F7
:101F10008093870410928A0410928B0410928C0490
:101F200010928D048091070290910802A0910902FD
:101F3000B0910A028093060790930707A0930807C1
:101F4000B093090780910B0290910C02A0910D02B1
:101F5000B0910E0280930A0790930B07A0930C0791
:101F6000B0930D0784E080930E0787E080930F07FE
:101F70001092100784EB8093110786E1809312077B
:101F800088E18093130787E18093140789E18093A8
:101F90001507E0911C06EC3008F4ACC08FEF80937D
:101FA0001607E0911C06EC3008F4B5C08FEF809363
:101FB00017078CE08093E50684E28093E60686E0CE
:101FC0008093E70685E08093E8068FE18093E90639
:101FD0008EE18093EA0683E28093EB0682E28093AF
:101FE000EC0685E48093ED0684E48093EE0680E4BD
:101FF0008093F1061092F6061092F7061092F806FA
:102000001092F9061092FA061092FB061092FC0646
:102010001092FD06E7E2F6E025EE36E08FEF9FEF47
:10202000DC011282138214821582168217821086B6
:10203000118683879487A587B6878787908BA18B26
:10204000B28B12861182108273962E173F0749F7C2
:102050008DE090E00E940418FC011382128285E258
:1020600092E091838083118687E2848384E1828772
:1020700084E083871486F0932406E093230610926D
:1020800025061092260685E280930F051092110511
:1020900010921E0610921D061092200610921F0626
:1020A000109222061092210661E070E090E080E03C
:1020B0000E942919009709F43FC090931E0680934F
:1020C0001D061092200610921F06209121063091C5
:1020D0002206232B11F4FC0110821092220610928A
:1020E000210661E472E080911D0690911E060E9417
:1020F000131A36C081E08E0F80931C06E0931607FA
:1021000085E0E89FF0011124E052FA4F88EB9BE054
:102110009283818346CF81E08E0F80931C06E093EB
:10212000170785E0E89FF0011124E052FA4F88EB91
:102130009BE0928381833DCF80911D0690911E0686
:10214000009711F00E94A01810921E0610921D0612
:1021500010922206109221061092200610921F065D
:1021600010921F0710921E0788EE93E0A0E0B0E0E7
:102170008093200790932107A0932207B093230711
:1021800081E392E090931D0780931C07109229072A
:102190001092280710922A0786ED80932D0781E080
:1021A00090E090932C0780932B070895CF93DF93B3
:1021B000CDB7DEB72C970FB6F894DEBF0FBECDBFFC
:1021C000789484B5826084BD84B5816084BD85B512
:1021D000826085BD85B5816085BD80916E0081601E
:1021E00080936E00109281008091810082608093C4
:1021F00081008091810081608093810080918000C6
:102200008160809380008091B10084608093B100F0
:102210008091B00081608093B000809191008260D5
:1022200080939100809191008160809391008091D2
:1022300090008160809390008091A10082608093E3
:10224000A1008091A10081608093A1008091A000F5
:1022500081608093A00080912101826080932101A0
:102260008091210181608093210180912001816012
:102270008093200180917A00846080937A0080911D
:102280007A00826080937A0080917A0081608093E6
:102290007A0080917A00806880937A001092C10061
:1022A000E0918104F091820482E08083E0917D04DA
:1022B000F0917E041082E0917F04F09180048FEC15
:1022C000808310928904E0918504F091860486E071
:1022D0008083E0918304F091840480818061808315
:1022E000E0918304F0918404808188608083E09190
:1022F0008304F0918404808180688083E09183046A
:10230000F091840480818F7D808361E08091E60676
:102310000E944D0260E08091E6060E941F0260E08C
:102320008091E5060E944D028CE197E09093F006C3
:102330008093EF061092D7021092D60210921403E7
:10234000109236030E941A0689ED92E09093D5020E
:102350008093D4028AED92E09093D3028093D202CC
:1023600080E090E1A0E0B0E08093F2069093F30665
:10237000A093F406B093F5068AE090E0A0E0B0E008
:102380008093F6069093F706A093F806B093F906AB
:1023900080E090E0A0E0B0E48093FA069093FB0622
:1023A000A093FC06B093FD0660E070E185E00E941A
:1023B00040076FE979E380E00E944007B7EEEB2E1B
:1023C000B6E0FB2E05EE16E088E6682E82E0782E59
:1023D0009EEA892E92E0992E2BECC22E27E0D22E77
:1023E000D70112969C91F70181917F01D8015996EE
:1023F0008C9359975A969C9361E00E944D0261E03C
:10240000F801828D0E944D025801FDE1AF0EB11C12
:10241000D70115969C91159713968C91F801858F8D
:10242000968F61E00E944D0260E0D8015E968C912B
:102430000E944D0261E0F801858D0E941F025FB687
:10244000F8948091D102811125C0F3018491F401A7
:102450009491E82FF0E0EE0FFF1FE150FE4FA591A1
:10246000B4918C91982321F461E085E30E941F02CE
:1024700061E085E30E944D028CB580618CBD8CB516
:1024800080648CBD61E084E30E944D0261E083E3DF
:102490000E944D028091D1028F5F8093D1025FBE76
:1024A000C6010197F1F760E0D8015D968C910E941A
:1024B0001F0288E80E945A0583E00E945A0561E0E5
:1024C000F801858D0E941F02C6010197F1F7C50131
:1024D0000E9461050E5F1F4FF6E0093E1F0709F0DD
:1024E0007FCF7AE0E72E77E0F72E06E017E060E096
:1024F000D7018D917D010E944D02BEE0EB16B7E041
:10250000FB06A9F73EE0E32E37E0F32E45E0D42E9C
:102510005CE0B52E62E0C62EF701A1907F018781B5
:102520008C3008F046C061E08A2D0E944D02D70130
:1025300017968C91D89EF0011124E052FA4F2A2D63
:102540002F739081907C922B9083138214826B2D39
:102550000E94F1158B9DA001112430E020E0BA010A
:10256000620F731FD69EF001D79EF00D1124E0522A
:10257000FA4F908196FD12C02F5F3F4F2C303105EE
:1025800071F781110BC010928000C09281001092EF
:10259000850010928400C6BAC0926F00D7011796CA
:1025A000EC91DE9EF0011124E052FA4F80818064AC
:1025B0008083F70195818381D80152968C9352973D
:1025C00053969C9360E00E944D0261E0F80183897C
:1025D0000E944D0260E0D80153968C910E941F0228
:1025E0000E5F1F4FB7E00A301B0709F095CFF89434
:1025F0001092200189E08093210180E293E0909382
:10260000290180932801109225011092240182E073
:1026100080937300789480930E0510921205809138
:102620000F0560E00E944D0261E08EE20E944D02C3
:1026300061E08CE20E944D0261E08FE20E944D0257
:1026400061E08DE20E944D0282E097E00E94610508
:1026500084E097E00E94610540E050E0BA018EEF0F
:1026600096E00E94330440E050E060E070E880E0D3
:1026700097E00E94330482E097E00E948C059095D9
:102680008095709561957F4F8F4F9F4F0E94D41416
:102690006B017C01812C912C5401A701960160E013
:1026A00078ED80ED95E40E94051620E030E0A90168
:1026B0000E947B1718160CF06FC0C701B6010E946C
:1026C00025172B013C011BE1E12E1AE1F12E00E060
:1026D00010E0AC019B0163E373E383E39FE30E949B
:1026E00056096D837E838F83988723E333E343E327
:1026F0005FE3C501B4010E940616A30192010E9486
:10270000560969877A878B879C8782E097E00E94C9
:102710008C0590958095709561957F4F8F4F9F4F59
:102720000E94D4146B017C0184E097E00E948C0528
:102730000E94D4149B01AC01C701B6010E9405168A
:102740002B013C0148ED52E00E9413089B01AC01B3
:10275000C501B4010E9406164B015C0181E492E0C0
:102760000E9401094D815E816F8178858EEF96E030
:102770000E94330449855A856B857C85705880E0BA
:1027800097E00E9433044092D8025092D90260929E
:10279000DA027092DB0281CF82E097E00E9461054D
:1027A00084E097E00E94610540E050E0BA018EEFBE
:1027B00096E00E94330440E050E060E070E880E082
:1027C00097E00E9433040E94A30282E097E00E94F7
:1027D000610584E097E00E94610540E050E0BA01A5
:1027E0008EEF96E00E94330440E050E060E070E835
:1027F00080E097E00E94330482E097E00E948C051D
:1028000097FF90C082E097E00E948C05909580959C
:10281000709561957F4F8F4F9F4F0E94D4146B012D
:102820007C019AE9892E99E9992EA92C9EE3B92E6B
:10283000A701960160E070E48CE695E40E9405161D
:1028400020E030E0A9010E947B1718160CF080C030
:10285000C701B6010E9425172B013C0114ECE12EA3
:102860001EE0F12E00E010E0A30192016AE979E98F
:1028700089E99EE30E945609AB01BC0170588EEFB6
:1028800096E00E943304A3019201C501B4010E94A5
:102890005609AB01BC01705880E097E00E943304F8
:1028A00082E097E00E948C0597FF41C082E097E0AC
:1028B0000E948C0590958095709561957F4F8F4F04
:1028C0009F4F0E94D4146B017C0184E097E00E942A
:1028D0008C05161617061806190674F584E097E09D
:1028E0000E948C050E94D4149B01AC01C701B60163
:1028F0000E9405162B013C01AE014F5F5F4F0E9405
:1029000013089B01AC01C501B4010E9406164B01DE
:102910005C0181E492E00E94010949825A826B8243
:102920007C8286CF82E097E00E948C0576CF82E0A1
:1029300097E00E948C05C5CF84E097E00E948C054B
:1029400090958095709561957F4F8F4F9F4FCACF1F
:1029500082E097E00E94610584E097E00E946105B3
:1029600040E050E0BA018EEF96E00E94330440E070
:1029700050E060E070E880E097E00E9433040E943D
:10298000A3020E940E0460CE80911D0690911E0647
:10299000009711F00C94A01808950E940F1508F4E8
:1029A00081E00895E89409C097FB3EF490958095E6
:1029B000709561957F4F8F4F9F4F9923A9F0F92F05
:1029C00096E9BB279395F695879577956795B79583
:1029D000F111F8CFFAF4BB0F11F460FF1BC06F5F69
:1029E0007F4F8F4F9F4F16C0882311F096E911C07B
:1029F000772321F09EE8872F762F05C0662371F09C
:102A000096E8862F70E060E02AF09A95660F771FAF
:102A1000881FDAF7880F9695879597F90895990F8B
:102A20000008550FAA0BE0E8FEEF16161706E80798
:102A3000F907C0F012161306E407F50798F0621BB9
:102A4000730B840B950B39F40A2661F0232B242B8E
:102A5000252B21F408950A2609F4A140A6958FEFAD
:102A6000811D811D08950E9446150C94B7150E9482
:102A7000A91538F00E94B01520F0952311F00C94A0
:102A8000A0150C94A61511240C94EB150E94C815E2
:102A900070F3959FC1F3950F50E0551F629FF001B1
:102AA000729FBB27F00DB11D639FAA27F00DB11DCA
:102AB000AA1F649F6627B00DA11D661F829F222753
:102AC000B00DA11D621F739FB00DA11D621F839FDA
:102AD000A00D611D221F749F3327A00D611D231FB0
:102AE000849F600D211D822F762F6A2F11249F57FE
:102AF00050409AF0F1F088234AF0EE0FFF1FBB1F01
:102B0000661F771F881F91505040A9F79E3F5105BF
:102B100080F00C94A0150C94EB155F3FE4F3983E05
:102B2000D4F3869577956795B795F795E7959F5F69
:102B3000C1F7FE2B880F911D9695879597F90895FB
:102B400097F99F6780E870E060E008959FEF80EC60
:102B5000089500240A941616170618060906089503
:102B600000240A9412161306140605060895092E69
:102B70000394000C11F4882352F0BB0F40F4BF2BD8
:102B800011F460FF04C06F5F7F4F8F4F9F4F089518
:102B900057FD9058440F551F59F05F3F71F047950E
:102BA000880F97FB991F61F09F3F79F087950895F3
:102BB000121613061406551FF2CF4695F1DF08C012
:102BC000161617061806991FF1CF8695710561052F
:102BD00008940895E894BB2766277727CB0197F9D7
:102BE0000895991B79E004C0991F961708F0961B69
:102BF000881F7A95C9F780950895EE0FFF1F881FEB
:102C00008BBF0790F691E02D19945058BB27AA2747
:102C10000E941D160C94B7150E94A91538F00E9449
:102C2000B01520F039F49F3F19F426F40C94A61542
:102C30000EF4E095E7FB0C94A015E92F0E94C8154F
:102C400058F3BA17620773078407950720F079F4E1
:102C5000A6F50C94EA150EF4E0950B2EBA2FA02DD4
:102C60000B01B90190010C01CA01A0011124FF2739
:102C7000591B99F0593F50F4503E68F11A16F04034
:102C8000A22F232F342F4427585FF3CF4695379533
:102C90002795A795F0405395C9F77EF41F16BA0BF8
:102CA000620B730B840BBAF09150A1F0FF0FBB1FA6
:102CB000661F771F881FC2F70EC0BA0F621F731FEF
:102CC000841F48F4879577956795B795F7959E3F4C
:102CD00008F0B0CF9395880F08F09927EE0F9795DD
:102CE000879508950E9486160C94B7150E94B0151A
:102CF00058F00E94A91540F029F45F3F29F00C9488
:102D0000A01551110C94EB150C94A6150E94C81532
:102D100068F39923B1F3552391F3951B550BBB270A
:102D2000AA2762177307840738F09F5F5F4F220F4F
:102D3000331F441FAA1FA9F335D00E2E3AF0E0E846
:102D400032D091505040E695001CCAF72BD0FE2F90
:102D500029D0660F771F881FBB1F26173707480724
:102D6000AB07B0E809F0BB0B802DBF01FF279358DC
:102D70005F4F3AF09E3F510578F00C94A0150C94EB
:102D8000EB155F3FE4F3983ED4F38695779567950E
:102D9000B795F7959F5FC9F7880F911D9695879511
:102DA00097F90895E1E0660F771F881FBB1F621730
:102DB00073078407BA0720F0621B730B840BBA0BEE
:102DC000EE1F88F7E095089529F416F00C94A015ED
:102DD0000C94EA150C94A6150E94D015A8F3963809
:102DE000A0F707F80F92E8942BE33AEA48EB5FE785
:102DF0000E9449150F920F920F924DB75EB70F9236
:102E00000E94C217E4EEF0E00E9454174F915F91C8
:102E1000EF91FF91E595EE1FFF1F49F0FE57E06827
:102E20004427EE0F441FFA95E1F74195550B0E9498
:102E30008C170F9007FE0C94801708950E94251799
:102E40006894B1110C94EB1508950E94D01588F088
:102E50009F5798F0B92F9927B751B0F0E1F0660F5E
:102E6000771F881F991F1AF0BA95C9F714C0B1309F
:102E700091F00E94EA15B1E008950C94EA15672FCD
:102E8000782F8827B85F39F0B93FCCF386957795CE
:102E90006795B395D9F73EF49095809570956195B7
:102EA0007F4F8F4F9F4F0895DF93CF931F930F93C3
:102EB000FF92EF92DF927B018C01689406C0DA2EBC
:102EC000EF010E944615FE01E894A59125913591E8
:102ED00045915591A6F3EF010E941D16FE01970141
:102EE000A801DA9469F7DF90EF90FF900F911F919E
:102EF000CF91DF9108950E940F1508F48FEF089588
:102F00009B01AC0160E070E080E89FE30C947216D6
:102F10000C94A0150C94F6170E94D015D8F39923A1
:102F2000C9F3940F511DA3F39150504094F059F000
:102F3000882332F0660F771F881F91505040C1F7E9
:102F40009E3F51052CF7880F911D9695879597F90F
:102F500008955F3FACF0983E9CF0BB27869577952F
:102F60006795B79508F4B1609395C1F7BB0F58F713
:102F700011F460FFE8CF6F5F7F4F8F4F9F4FE3CF1C
:102F80000C94EB15FA01DC01AA0FBB1F9B01AC01ED
:102F9000BF5728F4222733274427507820C0B75141
:102FA00090F4AB2F0024469537952795011CA395E7
:102FB000D2F3002071F0220F331F441FB395DAF3D0
:102FC0000ED00C94051661307105A0E88A07B94649
:102FD00030F49B01AC0166277727882790783096DC
:102FE00021F0208331834283538308959F3F31F042
:102FF000915020F4879577956795B795880F911D27
:103000009695879597F908950F931F93CF93DF9324
:103010008230910510F482E090E0E0913007F09169
:10302000310730E020E0B0E0A0E0309799F42115BE
:10303000310509F44AC0281B390B24303105D8F575
:103040008A819B816115710589F1FB0193838283DC
:10305000FE0111C040815181028113814817590737
:10306000E0F04817590799F4109761F012960C9305
:10307000129713961C933296CF01DF91CF911F9137
:103080000F9108950093300710933107F4CF211565
:10309000310551F04217530738F0A901DB019A01BD
:1030A000BD01DF01F801C1CFEF01F9CF90933107E6
:1030B00080933007CDCFFE01E20FF31F81939193F0
:1030C0002250310939832883D7CF20912E073091A0
:1030D0002F07232B41F420910302309104023093F7
:1030E0002F0720932E072091010230910202211513
:1030F000310541F42DB73EB74091050250910602CB
:10310000241B350BE0912E07F0912F07E217F307F0
:10311000A0F42E1B3F0B2817390778F0AC014E5F47
:103120005F4F2417350748F04E0F5F1F50932F074E
:1031300040932E07819391939FCFF0E0E0E09CCFE6
:10314000CF93DF930097E9F0FC013297138212824C
:10315000A0913007B0913107ED0130E020E01097E9
:10316000A1F420813181820F931F20912E0730918D
:103170002F072817390709F061C0F0932F07E09354
:103180002E07DF91CF910895EA01CE17DF07E8F50A
:103190004A815B819E0141155105B1F7E901FB832D
:1031A000EA8349915991C40FD51FEC17FD0761F4CB
:1031B000808191810296840F951FE901998388830C
:1031C000828193819B838A83F0E0E0E012968D9167
:1031D0009C9113970097B9F52D913C911197CD01D2
:1031E0000296820F931F20912E0730912F072817E8
:1031F000390739F6309751F51092310710923007A0
:10320000B0932F07A0932E07BCCFD383C2834081F6
:103210005181840F951FC817D90761F44E5F5F4F26
:1032200088819981480F591F518340838A819B81EE
:10323000938382832115310509F0B0CFF0933107D4
:10324000E09330079ECFFD01DC01C0CF13821282D4
:10325000D7CF4F925F926F927F928F929F92AF9251
:10326000BF92CF92DF92EF92FF920F931F93CF9373
:10327000DF938C01009799F4CB01DF91CF911F91DF
:103280000F91FF90EF90DF90CF90BF90AF909F9005
:103290008F907F906F905F904F900C940418FC017A
:1032A000E60FF71F9C0122503109E217F30708F4DB
:1032B000AEC0D901CD91DC911197C617D70720F187
:1032C000C530D10578F0CE0104978617970750F0E6
:1032D000C61BD70B2297C193D1936D937C93CF01DB
:1032E0000E94A018C801DF91CF911F910F91FF900C
:1032F000EF90DF90CF90BF90AF909F908F907F9096
:103300006F905F904F9008955B01AC1ABD0A4C011D
:103310008C0E9D1EA0913007B0913107512C412C8D
:10332000F12CE12C109731F580912E0790912F0709
:103330008815990509F05CC04616570608F058C074
:103340008091010290910202009741F48DB79EB7DF
:103350004091050250910602841B950BE817F9076E
:1033600008F055C0F0932F07E0932E07F901718301
:103370006083B8CF8D919C91119712966C901297A3
:1033800013967C901397A815B90559F56C0142E086
:10339000C40ED11CCA14DB0420F1AC014A195B092C
:1033A000DA011296159780F062827382518340830E
:1033B000D9016D937C93E114F10471F0D701139658
:1033C000FC93EE9312978ECF22968C0F9D1FF901DE
:1033D00091838083F301EFCFF0933107E0933007BF
:1033E00081CF4816590608F42C017D01D3019ACFEC
:1033F000CB010E9404187C01009749F0AE01B8018E
:103400000E940A1AC8010E94A01887016BCF10E021
:1034100000E068CFFB01DC0102C001900D92415039
:103420005040D8F70895FB01DC0101900D92002077
:10343000E1F7089511E0C4E8D1E000E006C0802F74
:10344000FE010E94FD152196011DC538D10780E0BF
:083450000807A9F7F894FFCF6B
:10345800FF000032078000363738391B1D1A1C0060
:103468000000009E03DB022103EB035203300344F8
:103478000300000000DD08DB021008F20500000070
:1034880000CE07A107100877079A07870778070D66
:023498000A0028
:00000001FF
