:100000000C9490010C94C1010C94C1010C94C10199
:100010000C94C1010C94C1010C94C1010C94C10158
:100020000C94C1010C940F070C940F070C940F074C
:100030000C94C1010C9463070C94C1010C94C10190
:100040000C94C1010C94DD090C94C1010C94C10104
:100050000C94C1010C94C1010C94C1010C941907BA
:100060000C94C1010C94D2080C94A8080C94C10102
:100070000C94C1010C94C1010C94C1010C94C101F8
:100080000C94C1010C94C1010C94C1010C94C101E8
:100090000C94C1010C94C1010C94C1010C94850A0B
:1000A0000C94C1010C94C1010C94C1010C94C101C8
:1000B0000C94C1010C94C1010C94C1010C94FC0876
:1000C0000C94C1010C94C1010C94C1010C947E08E4
:1000D0000C9454080C94C1010C942A080C94000848
:1000E0000C94C10107634236B79BD8A71A396856EA
:1000F00018AEBAAB558C1D3CB7CC5763BD6DEDFD4A
:10010000753EF6177231BF000000803F0800000006
:10011000BE922449123EABAAAA2ABECDCCCC4C3EFC
:1001200000000080BEABAAAAAA3E00000000BF00EB
:100130000000803F0000000000084178D3BB4387E7
:10014000D1133D190E3CC3BD4282AD2B3E68EC82FB
:1001500076BED98FE1A93E4C80EFFFBE01C4FF7F80
:100160003F00000000000C94A90B0C9400020C94BA
:10017000CD020C9462060C94CB020C9408060C94ED
:10018000C1050C9490030C9406020C9422030C9469
:1001900026020C94B2050C94E1010C94DD030C943E
:1001A00036030C940A020C9422020C94CC020C9498
:1001B000FC010C94E7010C944A060C9413030C9474
:1001C00014020C94F3010C94EB010C94DB050C94D9
:1001D000F6010C94EF010C94B1050C942C040C94D2
:1001E0001C020C9418020C94FC100C9421020C9428
:1001F0000E020C94D4050C9444030000200023004C
:10020000260029002C002F0032000001000003010D
:10021000060109010200002100240027002A002D08
:10022000003000330001010000040107010A010051
:10023000002200250028002B002E0031003400028F
:10024000010000050108010B01050505050705086A
:10025000080808020202020A0A0808040404040149
:10026000010101010101010303030303030303046B
:100270000707070C0C0C0C0C0C0C0C0202020206FB
:10028000060606060606060B0B0B0B0B0B0B0B01EB
:100290000210202008081020401020408002010297
:1002A000010804020101020408102040808040205F
:1002B000100804020180040201804020100804029A
:1002C0000108040201010204081020408001020418
:1002D000081020408000000A0B02090C0D0E0807D0
:1002E0000304010000000000000000000000000006
:1002F00000000000000000000000000000000000FE
:1003000000121110000000000000000000000000BA
:10031000000000000000000000000000A90BFC101D
:1003200011241FBECFEFD1E2DEBFCDBF00E00CBF76
:1003300012E0A0E0B2E0E6E5FEE200E00BBF02C0A2
:1003400007900D92AE34B107D9F727E0AEE4B2E0E2
:1003500001C01D92AE32B207E1F711E0CFE8D1E063
:1003600000E006C021970109802FFE010E9457126C
:10037000CE38D10780E00807A9F70E94A70D0C949A
:1003800019170C9400008150823108F05AC0E82FF0
:10039000F0E08827E153FE4F8F4F0C945712EF0186
:1003A000F301E101E701EB012102F601FC0100028A
:1003B00006020A020E021402180221021C02220284
:1003C0002602809180008F7780938000089580912D
:1003D00080008F7DF9CF80918000877FF5CF84B535
:1003E0008F7784BD089584B58F7DFBCF8091B00059
:1003F0008F778093B00008958091B0008F7DF9CF02
:10040000809190008F778093900008958091900064
:100410008F7DF9CF80919000877FF5CF8091A000EC
:100420008F778093A00008958091A0008F7DF9CFF1
:100430008091A000877FF5CF809120018F778093F6
:1004400020010895809120018F7DF9CF80912001B6
:10045000877FF5CF1F93CF93DF93282F30E0F901EB
:10046000EB52FD4F8491F901E157FD4FD491F90111
:10047000E75BFD4FC491CC23A9F0162F81110E9498
:10048000C301EC2FF0E0EE0FFF1FE15DFD4FA591E2
:10049000B4918FB7F894EC91111108C0D095DE2378
:1004A000DC938FBFDF91CF911F910895DE2BF8CFA2
:1004B000CF93DF9390E0FC01E157FD4F2491875BE0
:1004C0009D4FFC0184918823D1F090E0880F991F03
:1004D000FC01EB5EFD4FA591B491FC01E15DFD4F88
:1004E000C591D49161110EC09FB7F8948C91E22F01
:1004F000E0958E238C932881E223E8839FBFDF91D0
:10050000CF9108958FB7F894EC91E22BEC938FBFC5
:10051000F6CF863308F0865320917B00982F987091
:10052000277F922B90937B008770806480937C0060
:1005300080917A00806480937A0080917A0086FDB1
:10054000FCCF809178009091790008953FB7F8949E
:100550008091DD029091DE02A091DF02B091E00275
:1005600026B5A89B05C02F3F19F00196A11DB11D0E
:100570003FBFBA2FA92F982F8827BC01CD01620F4A
:10058000711D811D911D42E0660F771F881F991F05
:100590004A95D1F7089508950895AF92BF92CF92EA
:1005A000DF92EF92FF920F931F93CF93DF936C0133
:1005B0007B018B01040F151FEB015E01AE18BF0814
:1005C000C017D10759F06991D601ED91FC910190C6
:1005D000F081E02DC6011995892B79F7C501DF91CE
:1005E000CF911F910F91FF90EF90DF90CF90BF9030
:1005F000AF900895FC01A089B1898C91A689B78933
:1006000082FD0FC09C91818D8F5F8F73228D821729
:1006100049F0A18DAE0FBF2FB11D5D969C93818FC8
:1006200008958C910895FC01538D448D252F30E061
:10063000842F90E0821B930B541710F0CF960895EF
:1006400001970895FC01918D828D981761F0A28D1C
:10065000AE0FBF2FB11D5D968C91928D9F5F9F73E2
:10066000928F90E008958FEF9FEF0895FC01918D98
:10067000828D981731F0828DE80FF11D858D90E005
:1006800008958FEF9FEF0895FC01918D228D892FA2
:1006900090E0805C9F4F821B91098F73992708958A
:1006A00083E393E00E94440321E0892B09F420E0D6
:1006B000822F089580ED93E00E94440321E0892B6E
:1006C00009F420E0822F08958DE694E00E9444030F
:1006D00021E0892B09F420E0822F0895FC01A48DEC
:1006E000A80FB92FB11DA35ABF4F2C91848D90E054
:1006F00001968F739927848FA689B7892C93A08937
:10070000B1898C91837080648C93938D848D9813C0
:1007100006C00288F389E02D80818F7D8083089553
:10072000EF92FF920F931F93CF93DF93EC0181E041
:10073000888F9B8D8C8D98131AC0E889F9898081E8
:1007400085FF15C09FB7F894EE89FF896083E8891B
:10075000F98980818370806480839FBF81E090E00D
:10076000DF91CF911F910F91FF90EF900895F62E9A
:100770000B8D10E00F5F1F4F0F731127E02E8C8D34
:100780008E110CC00FB607FCFACFE889F989808179
:1007900085FFF5CFCE010E946E03F1CFEB8DEC0FFC
:1007A000FD2FF11DE35AFF4FF0829FB7F8940B8F96
:1007B000EA89FB8980818062CFCFCF93DF93EC0100
:1007C000888D8823B9F0AA89BB89E889F9898C9139
:1007D00085FD03C0808186FD0DC00FB607FCF7CFF5
:1007E0008C9185FFF2CF808185FFEDCFCE010E94F5
:1007F0006E03E9CFDF91CF910895F0E0E0E0199426
:1008000080E090E0892B29F00E94640381110E940E
:10081000000080E090E0892B49F080E090E0892B97
:1008200029F00E94000081110E9400000E945A03DA
:1008300081110E94FD0380E090E0892B29F00E9445
:10084000500381110C94000008958EBD00000DB47A
:1008500007FEFDCF8EB5089508952091A802260FBA
:100860003327331F21323105ECF420910903FC01B9
:1008700090E080E0243069F082E00895A091A80221
:100880002191AC0148575D4FA40FB52FB11D2C939A
:100890000196861798F38091A802680F6093A802CA
:1008A00080E0089581E008951092090381E080932B
:1008B00008031092E30261E084E10E942A0261E0F1
:1008C00085E10E942A02E9EBF0E080818E7F80833F
:1008D00080818D7F808388E48093B80085E4809355
:1008E000BC000895CF93DF9391E090938702882313
:1008F000B9F0C091B800D091BA008091BC008A7B59
:100900008093BC0060E084E10E942A0260E085E1FF
:100910000E942A020E945404D093BA00C093B800E7
:10092000DF91CF910895CF92DF92EF92FF920F93D4
:100930001F93CF93DF93D091320381E0D13208F03F
:100940009CC0C09131030E94A6026B017C01809182
:10095000090381116CC082E08093090381E08093D8
:1009600008038FEF8093070310920603D0930503CB
:10097000A1E1B3E0E5EEF2E080E0D8138DC0109283
:10098000E4028091E402CC0FC82BC093E402809172
:10099000E302813009F084C01092E3020E94A602B3
:1009A0006B017C018091E4028093BB0080910B037A
:1009B00090910C03A0910D03B0910E03892B8A2B0B
:1009C0008B2BA1F00E94A60200910B0310910C0347
:1009D00020910D0330910E036C197D098E099F093A
:1009E000061717072807390708F442C08091BC0092
:1009F00083FDD8CF85EC8093BC000E94A6026B01DA
:100A00007C0180910903823009F44CC08091070376
:100A10008F3F09F469C080910703803209F466C0F2
:100A200080910703803309F463C084E026C080917D
:100A30000B0390910C03A0910D03B0910E03892B31
:100A40008A2B8B2B09F483CF0E94A60200910B0303
:100A500010910C0320910D0330910E036C197D0948
:100A60008E099F09061717072807390708F06FCF67
:100A700080910A030E94720485E010921003109284
:100A8000320310920F03DF91CF911F910F91FF90CE
:100A9000EF90DF90CF9008959D9191938F5F6DCFF0
:100AA00085EEA9CF80910B0390910C03A0910D03CB
:100AB000B0910E03892B8A2B8B2B09F4A2CF0E94B5
:100AC000A60200910B0310910C0320910D033091AD
:100AD0000E036C197D098E099F0906171707280751
:100AE000390708F08ECFC4CF80E0C7CF82E0C5CFF2
:100AF00083E0C3CF0F931F93CF93DF93162F072F5E
:100B0000C1EED6E0AA85BB859C8521E020930F032A
:100B1000909331031092100310923203ED91FC91E7
:100B200011970190F081E02D682FCD0119958A85EC
:100B30009B85DC01ED91FC910190F081E02D602F0F
:100B400019958A859B85DC01ED91FC910190F081DE
:100B5000E02D612F1995DF91CF911F910F910C948A
:100B600093040895E091D7028091D602E81730F4FB
:100B7000F0E0E959FD4F808190E008958FEF9FEFFD
:100B800008959091D7028091D6022FEF3FEF9817EA
:100B900048F4E92FF0E0E959FD4F208130E09F5FF4
:100BA0009093D702C90108958091D6029091D702FF
:100BB000891B990B0895CF92DF92EF92FF920F93CA
:100BC0001F93CF93DF937C01CB018A0120910F0308
:100BD000222389F0EB016B01C40ED51ECC15DD0577
:100BE00069F06991D701ED91FC910190F081E02DC0
:100BF000C7011995F3CF642F0E942D04C801DF911E
:100C0000CF911F910F91FF90EF90DF90CF900895BB
:100C1000CF93DF931F92CDB7DEB7698320910F0387
:100C20002223F9F020913203203258F021E030E005
:100C3000FC013383228390E080E00F90DF91CF911D
:100C4000089580911003E82FF0E0EF5EFC4F99814A
:100C500090838F5F809310038093320381E090E054
:100C6000ECCF61E0CE0101960E942D04F7CFFC018C
:100C7000248131E030930F0320933103109210034D
:100C8000109232038485682B88E197E00E94080661
:100C90000C94930490E080E008950F931F93CF93FA
:100CA0008C01C62F64600E9437066C2F6B7FC801D1
:100CB0000E94370683EC90E00197F1F7CF911F91E6
:100CC0000F9108950F931F93CF93DF938C01C62F3D
:100CD000D62FD07FD1606D2F0E9437066D2FC801AF
:100CE0000E944D0680E1C89FE0011124C1606C2F75
:100CF000C8010E9437066C2FC8010E944D0681E092
:100D000090E0DF91CF911F910F910895FC01019028
:100D10000020E9F73197AF01481B590BBC018DE664
:100D200094E00C94CD028F929F92AF92BF920F935A
:100D30001F93CF93DF93CDB7DEB7A1970FB6F8948B
:100D4000DEBF0FBECDBF19A2423008F44AE08E01CB
:100D50000F5D1F4F842E912CB12CA12CA501940165
:100D60000E942912E62FB901CA01EA30F4F4E05DCD
:100D7000D801EE938D01232B242B252B79F790E0BE
:100D800080E0109719F0CD010E948606A1960FB65B
:100D9000F894DEBF0FBECDBFDF91CF911F910F91B1
:100DA000BF90AF909F908F900895E95CE1CF85ED63
:100DB0008093BC0080910B0390910C03A0910D03D4
:100DC000B0910E030796A11DB11D23E0B695A7951E
:100DD000979587952A95D1F72091BC0024FD03C0F3
:100DE00010920903089540910B0350910C036091F8
:100DF0000D0370910E03452B462B472B69F300978B
:100E0000A105B10541F02AE22A95F1F700C001974A
:100E1000A109B109E1CF80910A030C9472041F92D9
:100E20000F920FB60F9211240F900FBE0F901F90CC
:100E300018951F920F920FB60F9211242F933F9384
:100E40008F939F93AF93BF938091D9029091DA02D1
:100E5000A091DB02B091DC023091D80223E0230F95
:100E60002D3758F50196A11DB11D2093D80280930E
:100E7000D9029093DA02A093DB02B093DC02809156
:100E8000DD029091DE02A091DF02B091E0020196B6
:100E9000A11DB11D8093DD029093DE02A093DF02BD
:100EA000B093E002BF91AF919F918F913F912F91AD
:100EB0000F900FBE0F901F90189526E8230F0296F3
:100EC000A11DB11DD2CF1F920F920FB60F92112408
:100ED0000BB60F922F933F934F935F936F937F9334
:100EE0008F939F93AF93BF93EF93FF938091CD0226
:100EF0009091CE02A091CF02B091D002892B8A2B83
:100F00008B2BD1F19091CC028091000089278093A6
:100F100000008091CD029091CE02A091CF02B091BD
:100F2000D002181619061A061B069CF48091CD02F1
:100F30009091CE02A091CF02B091D0020197A10969
:100F4000B1098093CD029093CE02A093CF02B093CB
:100F5000D002FF91EF91BF91AF919F918F917F91BF
:100F60006F915F914F913F912F910F900BBE0F901A
:100F70000FBE0F901F90189580910002E4E1F2E0FF
:100F8000E4919FEF90930002E230E9F040F4EE2309
:100F900089F0E13091F060E00E942A02DACFE4307B
:100FA00049F110F1E530B9F7909173009D7F90936E
:100FB0007300F1CF10926E00EECF90916F009D7F85
:100FC00090936F00E8CF909170009D7F9093700098
:100FD00091E09093B0009091B100987F94609093CD
:100FE000B1001092B300D7CF909171009D7F909384
:100FF0007100D1CF909172009D7F90937200CBCF02
:101000001F920F920FB60F9211240BB60F922F93CF
:101010003F934F935F936F937F938F939F93AF9380
:10102000BF93EF93FF9383E393E00E946E03FF91DE
:10103000EF91BF91AF919F918F917F916F915F9150
:101040004F913F912F910F900BBE0F900FBE0F90BD
:101050001F9018951F920F920FB60F9211240BB686
:101060000F922F933F934F935F936F937F938F9341
:101070009F93AF93BF93EF93FF9383E393E00E941B
:10108000FA02FF91EF91BF91AF919F918F917F9164
:101090006F915F914F913F912F910F900BBE0F90E9
:1010A0000FBE0F901F9018951F920F920FB60F92C0
:1010B00011240BB60F922F933F934F935F936F932F
:1010C0007F938F939F93AF93BF93EF93FF9380EDA5
:1010D00093E00E946E03FF91EF91BF91AF919F91BA
:1010E0008F917F916F915F914F913F912F910F90D1
:1010F0000BBE0F900FBE0F901F9018951F920F926E
:101100000FB60F9211240BB60F922F933F934F936C
:101110005F936F937F938F939F93AF93BF93EF935F
:10112000FF9380ED93E00E94FA02FF91EF91BF914F
:10113000AF919F918F917F916F915F914F913F916F
:101140002F910F900BBE0F900FBE0F901F90189510
:101150001F920F920FB60F9211240BB60F922F937E
:101160003F934F935F936F937F938F939F93AF932F
:10117000BF93EF93FF938DE694E00E946E03FF917F
:10118000EF91BF91AF919F918F917F916F915F91FF
:101190004F913F912F910F900BBE0F900FBE0F906C
:1011A0001F9018951F920F920FB60F9211240BB635
:1011B0000F922F933F934F935F936F937F938F93F0
:1011C0009F93AF93BF93EF93FF938DE694E00E94BC
:1011D000FA02FF91EF91BF91AF919F918F917F9113
:1011E0006F915F914F913F912F910F900BBE0F9098
:1011F0000FBE0F901F9018951F920F920FB60F926F
:1012000011240BB60F922F933F934F935F936F93DD
:101210007F938F939F93AF93BF93CF93DF93EF937E
:10122000FF9320910B0530E0F901EB52FD4F8491C3
:10123000F901E157FD4FD491F901E75BFD4FC491EE
:10124000CC2379F081110E94C301EC2FF0E0EE0F66
:10125000FF1FE650FE4FA591B491EC91ED2381E084
:1012600009F480E020910F05309110052F5F3F4F6A
:101270003093100520930F0590910E05953618F0C8
:1012800096E090930A0590910A05943009F466C09F
:10129000B8F49230F1F0933009F444C090910D0508
:1012A000992309F46BC081117EC080910C058823BD
:1012B00009F463C080910C0561E00E942A025EC0BF
:1012C000953009F457C0963049F791E09093DB05CB
:1012D0004FC08111E3CF20910F05309110052436C6
:1012E000310528F41092100510920F05D7CF1092F7
:1012F000DB0510920E05E0910E0591E09E0F909394
:101300000E05F0E020910F0530911005EE0FFF1F44
:10131000E65FFA4F308727831092100510920F0571
:1013200093E019C0813009F0B9CFE0910E0591E04A
:101330009E0F90930E05F0E020910F05309110055F
:10134000EE0FFF1FE65FFA4F3087278310921005DC
:1013500010920F0594E090930A05A0CF882359F2CC
:1013600020910F05309110052536310508F496CFF0
:1013700095E0F1CF811192CFB5CF2F9AFF91EF91E8
:10138000DF91CF91BF91AF919F918F917F916F919D
:101390005F914F913F912F910F900BBE0F900FBE19
:1013A0000F901F90189580910C05882321F0809153
:1013B0000C0560E082CF2F98E1CF1F920F920FB6FD
:1013C0000F9211240BB60F922F933F934F935F937D
:1013D0006F937F938F939F93AF93BF93CF93DF933D
:1013E000EF93FF938091CB02C0911806D0E087FF66
:1013F00023C010928500109284008091CB028F5FF1
:101400008093CB028091CB02082E000C990B8C1795
:101410009D0724F48091CB028C3074F1809184007C
:101420009091850084349C4908F465C080918400C3
:1014300090918500049661C08091CB02082E000C2B
:10144000990B8C179D07CCF63091CB0225E0320327
:10145000F0011124E452FA4F808186FFCECF309103
:10146000CB023203F0011124E452FA4F808160E094
:101470008F730E942A02C1CF8091840090918500D1
:101480003091CB0225E03203F0011124E452FA4FEF
:1014900041815281840F951F909389008093880029
:1014A0003091CB023203F0011124E452FA4F8081D3
:1014B00086FF0CC03091CB023203F0011124E452BC
:1014C000FA4F808161E08F730E942A02FF91EF91B1
:1014D000DF91CF91BF91AF919F918F917F916F914C
:1014E0005F914F913F912F910F900BBE0F900FBEC8
:1014F0000F901F90189580E49CE990938900809349
:1015000088008FEF8093CB02E1CF1F920F920FB62E
:101510000F9211240BB60F922F933F934F935F932B
:101520006F937F938F939F93AF93BF93EF93FF93AB
:101530008091B900887F803609F44DC008F040C022
:10154000883209F4A9C028F5803109F49DC0C8F497
:10155000882309F4FBC0883009F496C0FF91EF910D
:10156000BF91AF919F918F917F916F915F914F91BB
:101570003F912F910F900BBE0F900FBE0F901F90B9
:101580001895883109F488C0803241F780930703A9
:1015900014C0803409F49DC040F48033B9F388331B
:1015A000E9F68093070385ECB0C0803509F485C067
:1015B000883509F496C0883489F60E94D706CECFC4
:1015C000883909F48CC038F5883729F050F488360A
:1015D00011F0803719F683E0809309031092CA0254
:1015E00057C0883809F47BC0803919F0803809F079
:1015F000B5CF8091CA02803208F071C0E091CA0272
:1016000081E08E0F8093CA028091BB00F0E0E65526
:10161000FD4F80833DC0803B39F0E0F4803A09F40F
:1016200079C0883A09F09ACF84E080930903109238
:10163000A9021092A802E091D402F091D502199566
:101640008091A80281110FC081E08093A8021092BE
:10165000880209C0803C09F4A6CF883C09F4A3CFD6
:10166000883B09F07BCFE091A90281E08E0F809347
:10167000A902F0E0E857FD4F80818093BB00909174
:10168000A9028091A80229C08091E4028093BB0046
:1016900085EC8093BC0062CF909106038091050396
:1016A000981758F5E091060381E08E0F80930603AA
:1016B000F0E0EB51FD4F8081E9CFE091060381E03E
:1016C0008E0F809306038091BB00F0E0EB51FD4F3D
:1016D000808390910603809105039817C8F285E8EE
:1016E000D8CFE091060381E08E0F809306038091AE
:1016F000BB00F0E0EB51FD4F808380910803811126
:101700005CCF81E08093E30284EA8093BC00109276
:10171000090324CF85EC8093BC00109209038091CB
:10172000CA02803230F4E091CA02F0E0E655FD4F83
:1017300010826091CA0270E0E091D202F091D3026F
:101740008AEA92E019951092CA0208CF1092070314
:1017500034CF109236031092350348EE53E060E028
:1017600070E04093370350933803609339037093CC
:101770003A0383E192E0909334038093330325E3AB
:1017800031E03093400320933F0324E331E0309372
:1017900042032093410320E331E03093440320933C
:1017A000430321E331E0309346032093450322E3D2
:1017B00031E0309348032093470326E331E0309330
:1017C0004A032093490310924C0310924D03109248
:1017D0004E0310924F031092D3031092D203409302
:1017E000D4035093D5036093D6037093D70390939B
:1017F000D1038093D00325ED30E03093DD032093B7
:10180000DC0324ED30E03093DF032093DE0320ED92
:1018100030E03093E1032093E00321ED30E030939A
:10182000E3032093E20322ED30E03093E5032093BD
:10183000E40326ED30E03093E7032093E6031092B3
:10184000E9031092EA031092EB031092EC0310925A
:10185000700410926F04409371045093720460936B
:1018600073047093740490936E0480936D0485ECFC
:1018700090E090937A048093790484EC90E09093C4
:101880007C0480937B0480EC90E090937E048093B2
:101890007D0481EC90E09093800480937F0482EC3F
:1018A00090E0909382048093810486EC90E0909382
:1018B000840480938304109286041092870410920B
:1018C0008804109289048091070290910802A091E7
:1018D0000902B0910A028093020790930307A09334
:1018E0000407B093050780910B0290910C02A09120
:1018F0000D02B0910E028093060790930707A09304
:101900000807B093090784E080930A0787E0809373
:101910000B0710920C0784EB80930D0786E18093F0
:101920000E0788E180930F0787E18093100789E114
:1019300080931107E0911806EC3008F4ACC08FEFEB
:1019400080931207E0911806EC3008F4B5C08FEFD1
:10195000809313078CE08093E10684E28093E20693
:1019600086E08093E30685E08093E4068FE1809330
:10197000E5068EE18093E60683E28093E70682E245
:101980008093E80685E48093E90684E48093EA0680
:1019900080E48093ED061092F2061092F306109206
:1019A000F4061092F5061092F6061092F7061092C1
:1019B000F8061092F906E3E2F6E021EE36E08FEF4A
:1019C0009FEFDC0112821382148215821682178225
:1019D0001086118683879487A587B6878787908B23
:1019E000A18BB28B12861182108273962E173F073D
:1019F00049F78DE090E00E940315FC0113821282EA
:101A000085E292E091838083118687E2848384E17A
:101A1000828784E083871486F0932006E0931F0674
:101A2000109221061092220685E280930B051092F7
:101A30000D0510921A061092190610921C061092AB
:101A40001B0610921E0610921D0661E070E090E0E9
:101A500080E00E942816009709F43FC090931A0670
:101A60008093190610921C0610921B0620911D06E9
:101A700030911E06232B11F4FC01108210921E06D9
:101A800010921D066DE472E08091190690911A067D
:101A90000E94121736C081E08E0F80931806E093E3
:101AA000120785E0E89FF0011124E452FA4F88EB19
:101AB0009BE09283818346CF81E08E0F809318064E
:101AC000E093130785E0E89FF0011124E452FA4FF8
:101AD00088EB9BE0928381833DCF809119069091A2
:101AE0001A06009711F00E949F1510921A06109284
:101AF000190610921E0610921D0610921C061092D6
:101B00001B0610921B0710921A0788EE93E0A0E0C4
:101B1000B0E080931C0790931D07A0931E07B0931D
:101B20001F0781E392E090931907809318071092A2
:101B30002507109224071092260786ED8093290727
:101B400081E090E090932807809327070895789488
:101B500084B5826084BD84B5816084BD85B58260B2
:101B600085BD85B5816085BD80916E008160809363
:101B70006E001092810080918100826080938100CC
:101B800080918100816080938100809180008160DC
:101B9000809380008091B10084608093B100809137
:101BA000B00081608093B00080919100826080934A
:101BB00091008091910081608093910080919000CC
:101BC0008160809390008091A10082608093A10049
:101BD0008091A10081608093A1008091A00081602C
:101BE0008093A000809121018260809321018091E7
:101BF0002101816080932101809120018160809387
:101C0000200180917A00846080937A0080917A002C
:101C1000826080937A0080917A00816080937A005C
:101C200080917A00806880937A001092C100E091E0
:101C30007D04F0917E0482E08083E0917904F0914C
:101C40007A041082E0917B04F0917C048FEC808315
:101C500010928504E0918104F091820486E08083F3
:101C6000E0917F04F0918004808180618083E09125
:101C70007F04F0918004808188608083E0917F04FC
:101C8000F0918004808180688083E0917F04F091EE
:101C9000800480818F7D808361E08091E2060E94D4
:101CA000580260E08091E2060E942A0260E0809182
:101CB000E1060E94580288E197E09093EC06809339
:101CC000EB061092D7021092D602109210031092D7
:101CD00032030E9454048BEC92E09093D5028093DF
:101CE000D4028CEC92E09093D3028093D20280E0F5
:101CF00090E1A0E0B0E08093EE069093EF06A09311
:101D0000F006B093F1068AE090E0A0E0B0E08093A6
:101D1000F2069093F306A093F406B093F50680E0E4
:101D200090E0A0E0B0E48093F6069093F706A093CD
:101D3000F806B093F90660E070E185E00E947A054C
:101D40006FE979E380E00E947A0503EE16E0C1EEC8
:101D5000D6E06EE7A62E62E0B62E74EC872E72E017
:101D6000972EEBECEE2EE7E0FE2EFBE8CF2EDD24E7
:101D7000D394D80112969C91F80181918F01898F9B
:101D80009A8F61E00E94580261E08A8D0E94580299
:101D9000D80115969C91159713968C918D8F9E8FD7
:101DA00061E00E94580260E08E8D0E94580261E05E
:101DB0008D8D0E942A027FB6F8948091D102811104
:101DC00025C0F5018491F4019491E82FF0E0EE0F25
:101DD000FF1FEB5EFD4FA591B4918C91982321F4E8
:101DE00061E085E30E942A0261E085E30E945802D7
:101DF0008CB580618CBD8CB580648CBD61E084E362
:101E00000E94580261E083E30E9458028091D1024F
:101E10008F5F8093D1027FBEC7010197F1F760E029
:101E20008D8D0E942A0288E80E94250483E00E948A
:101E3000250461E08D8D0E942A02C7010197F1F708
:101E400060E08D8D0E942A0288E90E94250480E0CE
:101E50000E94250480E00E94250480E00E94250461
:101E600080E00E94250461E08D8D0E942A02C60157
:101E70000197F1F760E08D8D0E942A0280EE0E94AA
:101E8000250461E08D8D0E942A022296F6E0C53E6F
:101E9000DF0709F06ECF06E017E0C2E0D7E04AE0C6
:101EA000E42E47E0F42E60E0D8018D918D010E9470
:101EB0005802E016F106B9F70AE017E095E0F92EAE
:101EC0002CE0D22E32E0E32EF801C1908F01878101
:101ED0008C3008F046C061E08C2D0E945802D80179
:101EE00017968C91F89EF0011124E452FA4F2C2D94
:101EF0002F739081907C922B9083138214826D2D8E
:101F00000E944B128D9DA001112430E020E0BA0107
:101F1000620F731FF69EF001F79EF00D1124E4523C
:101F2000FA4F908196FD12C02F5F3F4F2C30310544
:101F300071F781110BC010928000E0928100109225
:101F4000850010928400E6BAE0926F00D8011796DF
:101F5000EC91FE9EF0011124E452FA4F80818064DE
:101F60008083F801958183818A8B9B8B60E00E943E
:101F7000580261E08B890E94580260E08B890E94C0
:101F80002A022296F7E0C630DF0709F09DCFF894C9
:101F90001092200189E08093210180E293E09093E8
:101FA000290180932801109225011092240182E0DA
:101FB00080937300789480930A0510920E058091A7
:101FC0000B0560E00E94580261E08EE20E94580218
:101FD00061E08CE20E94580261E08FE20E945802A8
:101FE00061E08DE20E9458020E94A6024B015C0152
:101FF00088EEC82E83E0D82EE12CF12C0E94A60298
:10200000681979098A099B09683E73408105910521
:10201000A8F321E0C21AD108E108F10888EE880E81
:1020200083E0981EA11CB11CC114D104E104F10489
:1020300029F78EE30E948902EC0107E010E08EE3AD
:102040000E948902C80FD91F01501109C1F7BE01B2
:10205000DD0F880B990B0E940C1120E030E040E06E
:102060005EE30E946B110E943E13072E000C880B4A
:10207000990B0E940C112DED34E246E95FEB0E94B2
:10208000791320E038E44AE656E40E946B112BE70E
:1020900034E14EE050E40E94601225EE30ED42EA59
:1020A0005FE30E94CC126B017C014B015C01AC012F
:1020B0009B010E94C913882359F08FE392E00E948C
:1020C00086068BE492E00E9486060E9400048CCF74
:1020D00026013701E89477F82FEF3FEF4FE75FE7EE
:1020E000C301B2010E94C91381110DC02FEF3FEF50
:1020F0004FE75FE7C301B2010E94051118161CF4F7
:1021000083E492E0DCCF2FEF3FEF4FE75FE4C701BE
:10211000B6010E94741318161CF487E492E0CFCF26
:102120002FEF3FEF4FE75FECC701B6010E940511AB
:1021300087FDF3CF20E030E0A901C701B6010E947E
:10214000051187FF0BC06DE28DE694E00E949003BD
:1021500046015701B7FAB094B7F8B0942AE037EDCA
:1021600043EA5BE3C501B4010E9460124B015C01CC
:102170000E9445136B017C010E940A119B01AC0176
:10218000C501B4010E945F124B015C014AE0C70126
:10219000B6010E9493066EE28DE694E00E949003E1
:1021A00020E030E040E251E4C501B4010E946B112F
:1021B0004B015C010E9445136B01F12CE12C4AE0BC
:1021C000C701B6010E949306C701B6010E940A1119
:1021D0009B01AC01C501B4010E945F1220E030E018
:1021E00040E251E40E946B110E94451390E080E0B0
:1021F0004AE00E94930665CF8091190690911A06D5
:10220000009711F00C949F1508950E94471108F44F
:1022100081E00895E89409C097FB3EF4909580957D
:10222000709561957F4F8F4F9F4F9923A9F0F92F9C
:1022300096E9BB279395F695879577956795B7951A
:10224000F111F8CFFAF4BB0F11F460FF1BC06F5F00
:102250007F4F8F4F9F4F16C0882311F096E911C012
:10226000772321F09EE8872F762F05C0662371F033
:1022700096E8862F70E060E02AF09A95660F771F47
:10228000881FDAF7880F9695879597F90895990F23
:102290000008550FAA0BE0E8FEEF16161706E80730
:1022A000F907C0F012161306E407F50798F0621B51
:1022B000730B840B950B39F40A2661F0232B242B26
:1022C000252B21F408950A2609F4A140A6958FEF45
:1022D000811D811D08950E947E110C94EF110E94B2
:1022E000E11138F00E94E81120F0952311F00C94D0
:1022F000D8110C94DE1111240C9423120E940012A8
:1023000070F3959FC1F3950F50E0551F629FF00148
:10231000729FBB27F00DB11D639FAA27F00DB11D61
:10232000AA1F649F6627B00DA11D661F829F2227EA
:10233000B00DA11D621F739FB00DA11D621F839F71
:10234000A00D611D221F749F3327A00D611D231F47
:10235000849F600D211D822F762F6A2F11249F5795
:1023600050409AF0F1F088234AF0EE0FFF1FBB1F98
:10237000661F771F881F91505040A9F79E3F510557
:1023800080F00C94D8110C9423125F3FE4F3983E34
:10239000D4F3869577956795B795F795E7959F5F01
:1023A000C1F7FE2B880F911D9695879597F9089593
:1023B00097F99F6780E870E060E008959FEF80ECF8
:1023C000089500240A94161617061806090608959B
:1023D00000240A9412161306140605060895092E01
:1023E0000394000C11F4882352F0BB0F40F4BF2B70
:1023F00011F460FF04C06F5F7F4F8F4F9F4F0895B0
:1024000057FD9058440F551F59F05F3F71F04795A5
:10241000880F97FB991F61F09F3F79F0879508958A
:10242000121613061406551FF2CF4695F1DF08C0A9
:10243000161617061806991FF1CF869571056105C6
:1024400008940895E894BB2766277727CB0197F96E
:102450000895A1E21A2EAA1BBB1BFD010DC0AA1FE5
:10246000BB1FEE1FFF1FA217B307E407F50720F0FD
:10247000A21BB30BE40BF50B661F771F881F991F78
:102480001A9469F760957095809590959B01AC01C1
:10249000BD01CF010895991B79E004C0991F9617DB
:1024A00008F0961B881F7A95C9F780950895EE0F5E
:1024B000FF1F881F8BBF0790F691E02D199450588D
:1024C000BB27AA270E9477120C94EF110E94E111FA
:1024D00038F00E94E81120F039F49F3F19F426F4F7
:1024E0000C94DE110EF4E095E7FB0C94D811E92F63
:1024F0000E94001258F3BA17620773078407950702
:1025000020F079F4A6F50C9422120EF4E0950B2E2F
:10251000BA2FA02D0B01B90190010C01CA01A00135
:102520001124FF27591B99F0593F50F4503E68F190
:102530001A16F040A22F232F342F4427585FF3CFD1
:10254000469537952795A795F0405395C9F77EF4A2
:102550001F16BA0B620B730B840BBAF09150A1F0EB
:10256000FF0FBB1F661F771F881FC2F70EC0BA0F71
:10257000621F731F841F48F4879577956795B795F9
:10258000F7959E3F08F0B0CF9395880F08F09927F4
:10259000EE0F9795879508950E94E0120C94EF1125
:1025A0000E94E81158F00E94E11140F029F45F3FC9
:1025B00029F00C94D81151110C9423120C94DE11B3
:1025C0000E94001268F39923B1F3552391F3951BF0
:1025D000550BBB27AA2762177307840738F09F5F44
:1025E0005F4F220F331F441FAA1FA9F335D00E2EB1
:1025F0003AF0E0E832D091505040E695001CCAF71E
:102600002BD0FE2F29D0660F771F881FBB1F2617E0
:1026100037074807AB07B0E809F0BB0B802DBF01B7
:10262000FF2793585F4F3AF09E3F510578F00C9486
:10263000D8110C9423125F3FE4F3983ED4F38695AF
:1026400077956795B795F7959F5FC9F7880F911DA7
:102650009695879597F90895E1E0660F771F881F93
:10266000BB1F621773078407BA0720F0621B730B46
:10267000840BBA0BEE1F88F7E09508950E9445136E
:102680006894B1110C94231208950E94081288F0E6
:102690009F5798F0B92F9927B751B0F0E1F0660F26
:1026A000771F881F991F1AF0BA95C9F714C0B13067
:1026B00091F00E942212B1E008950C942212672F2B
:1026C000782F8827B85F39F0B93FCCF38695779596
:1026D0006795B395D9F73EF490958095709561957F
:1026E0007F4F8F4F9F4F08950E94471108F48FEF3F
:1026F0000895FA01EE0FFF1F309621053105A1F173
:102700006115710561F48038BFE39B0749F1689456
:102710009038810561F08038BFEF9B0741F0992325
:102720004AF5FF3FE1053105210519F1E8940894C8
:10273000E795D901AA2329F4AB2FBE2FF85FD0F378
:1027400010C0FF5F70F4A695E0F7F73950F019F06C
:10275000FF3A38F49F779F930DD00F9007FC905865
:10276000089546F00C94DE1160E070E080E89FE38D
:1027700008954FE79F775F934F933F932F930E9466
:1027800079142F913F914F915F910E946B110C949E
:10279000D6130E944711880B990B089529F416F05F
:1027A0000C94D8110C9422120C94DE110E94081281
:1027B000A8F39638A0F707F80F92E8942BE33AEACB
:1027C00048EB5FE70E9481110F920F920F924DB775
:1027D0005EB70F920E94C114E4EEF0E00E9408146C
:1027E0004F915F91EF91FF91E595EE1FFF1F49F02B
:1027F000FE57E0684427EE0F441FFA95E1F7419534
:10280000550B0E943B140F9007FE0C942F14089553
:10281000DF93CF931F930F93FF92EF92DF927B0191
:102820008C01689406C0DA2EEF010E947E11FE0131
:10283000E894A5912591359145915591A6F3EF0125
:102840000E947712FE019701A801DA9469F7DF90E0
:10285000EF90FF900F911F91CF91DF9108959B0111
:10286000AC0160E070E080E89FE30C94CC120C9423
:10287000D8110C94F5140E940812D8F39923C9F3C7
:10288000940F511DA3F39150504094F059F08823B8
:1028900032F0660F771F881F91505040C1F79E3F5E
:1028A00051052CF7880F911D9695879597F90895F6
:1028B0005F3FACF0983E9CF0BB2786957795679577
:1028C000B79508F4B1609395C1F7BB0F58F711F4B1
:1028D00060FFE8CF6F5F7F4F8F4F9F4FE3CF0C9428
:1028E000231216F00C94F5140C94DE1168940C94D9
:1028F000D8110E940812A8F39923C1F3AEF3DF9315
:10290000CF931F930F93FF92C92FDD2788232AF0BF
:102910002197660F771F881FDAF720E030E040E844
:102920005FEB9FE3883920F0803E38F021968F7767
:102930000E946012ECE0F1E004C00E946012E9E342
:10294000F1E00E9408148B01BE01EC01FB2E6F57D1
:1029500071097595771F880B990B0E940C1128E15E
:1029600032E741E35FE30E947E11AF2D9801AE0193
:10297000FF900F911F91CF91DF910E9477120C94DD
:10298000EF11FA01DC01AA0FBB1F9B01AC01BF577D
:1029900028F4222733274427507820C0B75190F4D9
:1029A000AB2F0024469537952795011CA395D2F3AC
:1029B000002071F0220F331F441FB395DAF30ED0BD
:1029C0000C945F1261307105A0E88A07B94630F4B3
:1029D0009B01AC016627772788279078309621F0F5
:1029E000208331834283538308959F3F31F0915078
:1029F00020F4879577956795B795880F911D9695E3
:102A0000879597F908950F931F93CF93DF938230A3
:102A1000910510F482E090E0E0912C07F0912D07F1
:102A200030E020E0B0E0A0E0309799F421153105C6
:102A300009F44AC0281B390B24303105D8F58A81A6
:102A40009B816115710589F1FB0193838283FE01EE
:102A500011C0408151810281138148175907E0F06C
:102A60004817590799F4109761F012960C93129732
:102A700013961C933296CF01DF91CF911F910F9146
:102A8000089500932C0710932D07F4CF21153105DD
:102A900051F04217530738F0A901DB019A01BD013B
:102AA000DF01F801C1CFEF01F9CF90932D0780939B
:102AB0002C07CDCFFE01E20FF31F8193919322509B
:102AC000310939832883D7CF20912A0730912B07EA
:102AD000232B41F4209103023091040230932B0701
:102AE00020932A072091010230910202211531051D
:102AF00041F42DB73EB74091050250910602241BC8
:102B0000350BE0912A07F0912B07E217F307A0F4A9
:102B10002E1B3F0B2817390778F0AC014E5F5F4F33
:102B20002417350748F04E0F5F1F50932B07409333
:102B30002A07819391939FCFF0E0E0E09CCFCF9361
:102B4000DF930097E9F0FC01329713821282A09183
:102B50002C07B0912D07ED0130E020E01097A1F493
:102B600020813181820F931F20912A0730912B07FA
:102B70002817390709F061C0F0932B07E0932A0763
:102B8000DF91CF910895EA01CE17DF07E8F54A817A
:102B90005B819E0141155105B1F7E901FB83EA8391
:102BA00049915991C40FD51FEC17FD0761F480813D
:102BB00091810296840F951FE90199838883828110
:102BC00093819B838A83F0E0E0E012968D919C9143
:102BD00013970097B9F52D913C911197CD0102966D
:102BE000820F931F20912A0730912B07281739074E
:102BF00039F6309751F510922D0710922C07B093AB
:102C00002B07A0932A07BCCFD383C2834081518175
:102C1000840F951FC817D90761F44E5F5F4F8881F5
:102C20009981480F591F518340838A819B819383E7
:102C300082832115310509F0B0CFF0932D07E09381
:102C40002C079ECFFD01DC01C0CF13821282D7CFAB
:102C50004F925F926F927F928F929F92AF92BF92AC
:102C6000CF92DF92EF92FF920F931F93CF93DF9358
:102C70008C01009799F4CB01DF91CF911F910F91B7
:102C8000FF90EF90DF90CF90BF90AF909F908F908C
:102C90007F906F905F904F900C940315FC01E60FAE
:102CA000F71F9C0122503109E217F30708F4AEC068
:102CB000D901CD91DC911197C617D70720F1C53006
:102CC000D10578F0CE0104978617970750F0C61B00
:102CD000D70B2297C193D1936D937C93CF010E9420
:102CE0009F15C801DF91CF911F910F91FF90EF9039
:102CF000DF90CF90BF90AF909F908F907F906F901C
:102D00005F904F9008955B01AC1ABD0A4C018C0E88
:102D10009D1EA0912C07B0912D07512C412CF12C18
:102D2000E12C109731F580912A0790912B07881597
:102D3000990509F05CC04616570608F058C0809106
:102D4000010290910202009741F48DB79EB7409125
:102D5000050250910602841B950BE817F90708F04D
:102D600055C0F0932B07E0932A07F9017183608324
:102D7000B8CF8D919C91119712966C9012971396E3
:102D80007C901397A815B90559F56C0142E0C40E63
:102D9000D11CCA14DB0420F1AC014A195B09DA0129
:102DA0001296159780F06282738251834083D90115
:102DB0006D937C93E114F10471F0D7011396FC93A9
:102DC000EE9312978ECF22968C0F9D1FF90191835F
:102DD0008083F301EFCFF0932D07E0932C0781CF91
:102DE0004816590608F42C017D01D3019ACFCB0176
:102DF0000E9403157C01009749F0AE01B8010E94C2
:102E00000917C8010E949F1587016BCF10E000E0F1
:102E100068CFFB01DC0102C001900D92415050408F
:102E2000D8F70895FB01DC0101900D920020E1F735
:102E3000089511E0CFE8D1E000E006C0802FFE0148
:102E40000E9457122196011DC039D10780E0080762
:062E5000A9F7F894FFCF82
:102E5600FF00002E078000363738391B1D1A1C006C
:102E66000000009003CD021303DD03440322033662
:102E760003000000006206CD024A062C0400000092
:102E8600000806DB054A06B105D405C105B2056E84
:0E2E9600616E00696E66006F7666000D0A00C0
:00000001FF
