:100000000C944F010C9480010C9480010C9480019D
:100010000C9480010C9480010C9480010C9480015C
:100020000C9480010C9446070C9446070C944607E8
:100030000C9480010C949A070C9480010C9480011C
:100040000C9480010C94140A0C9480010C9480018F
:100050000C9480010C9480010C9480010C94500746
:100060000C9480010C9409090C94DF080C94800115
:100070000C9480010C9480010C9480010C948001FC
:100080000C9480010C9480010C9480010C948001EC
:100090000C9480010C9480010C9480010C94BC0A97
:1000A0000C9480010C9480010C9480010C948001CC
:1000B0000C9480010C9480010C9480010C94330901
:1000C0000C9480010C9480010C9480010C94B50870
:1000D0000C948B080C9480010C9461080C943708E4
:1000E0000C9480010C94CD010C943F060C94E1011A
:1000F0000C941F100C946D020C94D3010C94DB0132
:100100000C94AE010C941D060C94B5020C94D7010E
:100110000C94A0010C946E020C94B2010C94CD06C8
:100120000C941C060C94D8020C9473060C9497043F
:100130000C94AA010C94C5010C9446060C94A601DB
:100140000C94BF010C94B5060C94E6020C94E501E6
:100150000C94C4020C942C060C94E00B0C94BB0180
:100160000C946F020C94B5010C94C9010C947F039C
:100170000C9432030C94E0010000200023002600C0
:1001800029002C002F0032000001000003010601AD
:1001900009010200002100240027002A002D003060
:1001A00000330001010000040107010A01000022E0
:1001B00000250028002B002E003100340002010031
:1001C00000050108010B01050505050705080808DC
:1001D00008020202020A0A080804040404010101D8
:1001E00001010101010303030303030303040707E0
:1001F000070C0C0C0C0C0C0C0C020202020606067E
:1002000006060606060B0B0B0B0B0B0B0B01021065
:100210002020080810204010204080020102010820
:1002200004020101020408102040808040201008D0
:100230000402018004020180402010080402010829
:100240000402010102040810204080010204081089
:1002500020408000000A0B02090C0D0E0807030461
:10026000010000000000000000000000000000008D
:10027000000000000000000000000000000000126C
:10028000111000000000000000000000000000004D
:1002900000000000000000000000E00B1F1011240F
:1002A0001FBECFEFD1E2DEBFCDBF00E00CBF12E03A
:1002B000A0E0B2E0EEE8F5E200E00BBF02C007907C
:1002C0000D92A036B107D9F727E0A0E6B2E001C051
:1002D0001D92A034B207E1F711E0CEE4D1E000E0D6
:1002E00006C021970109802FFE010E949710CD348E
:1002F000D10780E00807A9F70E94DE0D0C94B51223
:100300000C9400008150823108F05AC0E82FF0E0D0
:100310008827E257FE4F8F4F0C949710AE01B20121
:10032000A001A601AA01E001B501BB01BF01C50101
:10033000C901CD01D301D701E001DB01E101E501F4
:10034000809180008F778093800008958091800055
:100350008F7DF9CF80918000877FF5CF84B58F772F
:1003600084BD089584B58F7DFBCF8091B0008F77D9
:100370008093B00008958091B0008F7DF9CF809177
:1003800090008F77809390000895809190008F7DEA
:10039000F9CF80919000877FF5CF8091A0008F7773
:1003A0008093A00008958091A0008F7DF9CF809167
:1003B000A000877FF5CF809120018F778093200167
:1003C0000895809120018F7DF9CF80912001877F52
:1003D000F5CF1F93CF93DF93282F30E0F901ED5A2B
:1003E000FD4F8491F901E35FFD4FD491F901E95389
:1003F000FE4FC491CC23A9F0162F81110E948201D7
:10040000EC2FF0E0EE0FFF1FE355FE4FA591B491E6
:100410008FB7F894EC91111108C0D095DE23DC93CE
:100420008FBFDF91CF911F910895DE2BF8CFCF932F
:10043000DF9390E0FC01E35FFD4F249189539E4FD1
:10044000FC0184918823D1F090E0880F991FFC0172
:10045000ED56FE4FA591B491FC01E355FE4FC591B9
:10046000D49161110EC09FB7F8948C91E22FE09562
:100470008E238C932881E223E8839FBFDF91CF9165
:1004800008958FB7F894EC91E22BEC938FBFF6CFE1
:100490003FB7F8948091EF029091F002A091F102A1
:1004A000B091F20226B5A89B05C02F3F19F0019626
:1004B000A11DB11D3FBFBA2FA92F982F8827BC01BE
:1004C000CD01620F711D811D911D42E0660F771FE6
:1004D000881F991F4A95D1F7089508950895AF92FE
:1004E000BF92CF92DF92EF92FF920F931F93CF9321
:1004F000DF936C017B018B01040F151FEB015E0183
:10050000AE18BF08C017D10759F06991D601ED9117
:10051000FC910190F081E02DC6011995892B79F7A6
:10052000C501DF91CF911F910F91FF90EF90DF9068
:10053000CF90BF90AF900895FC01A089B1898C91B4
:10054000A689B78982FD0FC09C91818D8F5F8F73C3
:10055000228D821749F0A18DAE0FBF2FB11D5D9680
:100560009C93818F08958C910895FC01538D448D47
:10057000252F30E0842F90E0821B930B541710F04E
:10058000CF96089501970895FC01918D828D98175B
:1005900061F0A28DAE0FBF2FB11D5D968C91928D33
:1005A0009F5F9F73928F90E008958FEF9FEF089564
:1005B000FC01918D828D981731F0828DE80FF11D2D
:1005C000858D90E008958FEF9FEF0895FC01918D48
:1005D000228D892F90E0805C9F4F821B91098F7341
:1005E0009927089585E493E00E94E60221E0892B93
:1005F00009F420E0822F089582EE93E00E94E60243
:1006000021E0892B09F420E0822F08958FE794E000
:100610000E94E60221E0892B09F420E0822F089550
:10062000FC01A48DA80FB92FB11DA35ABF4F2C9167
:10063000848D90E001968F739927848FA689B7895E
:100640002C93A089B1898C91837080648C93938D55
:10065000848D981306C00288F389E02D80818F7DF8
:1006600080830895EF92FF920F931F93CF93DF93B0
:10067000EC0181E0888F9B8D8C8D98131AC0E889DE
:10068000F989808185FF15C09FB7F894EE89FF89AD
:100690006083E889F98980818370806480839FBF4B
:1006A00081E090E0DF91CF911F910F91FF90EF904B
:1006B0000895F62E0B8D10E00F5F1F4F0F7311275B
:1006C000E02E8C8D8E110CC00FB607FCFACFE88996
:1006D000F989808185FFF5CFCE010E941003F1CF0B
:1006E000EB8DEC0FFD2FF11DE35AFF4FF0829FB70A
:1006F000F8940B8FEA89FB8980818062CFCFCF93FA
:10070000DF93EC01888D8823B9F0AA89BB89E88939
:10071000F9898C9185FD03C0808186FD0DC00FB6DF
:1007200007FCF7CF8C9185FFF2CF808185FFEDCF5D
:10073000CE010E941003E9CFDF91CF910895F0E040
:10074000E0E0199480E090E0892B29F00E940603F4
:1007500081110E94000080E090E0892B49F080E048
:1007600090E0892B29F00E94000081110E94000076
:100770000E94FC0281110E949F0380E090E0892B7F
:1007800029F00E94F20281110C94000008958EBDA0
:1007900000000DB407FEFDCF8EB50895CF92DF9215
:1007A000EF92FF92CF93DF93DC01EC91EC3008F0F5
:1007B0004EC0CE2FD0E0B5E0EB9FF0011124E25106
:1007C000FA4F838158E8C52ED12CC81AD10887FD6D
:1007D000D394CC0CDD1CCC0CDD1C683C71050CF0FA
:1007E0003DC00D2C000CEE08FF08848128E532E0A6
:1007F000281B310987FD3395220F331F220F331F2A
:10080000032E000C440B550B2C193D094E095F09B2
:10081000DB010E94521024EB30E040E050E00E94E7
:100820002810C20ED31EE41EF51E8FB7F89495E073
:100830009C9FF0019D9FF00D1124E251FA4F96E02C
:10084000C91AD108CC0CDD1CD282C1828FBFDF91C6
:10085000CF91FF90EF90DF90CF9008956C157D05BC
:1008600024F3848128E5C22E22E0D22EC81AD108B2
:1008700087FDD394CC0CDD1CCC0CDD1C6C157D05E8
:10088000A4F66B01D2CF1F93CF93DF93EC01162F09
:1008900088818C3008F046C061E0812F0E941702E9
:1008A000888195E0899FF0011124E251FA4F1F736E
:1008B0006081607C612B6083138214822CE0622F44
:1008C0000E948B10829FB001112430E020E095E05F
:1008D000AB01420F531F949FF001959FF00D11241F
:1008E000E251FA4F408146FD13C02F5F3F4F2C303D
:1008F000310571F781110CC01092800082E0809365
:100900008100109285001092840086BB80936F0056
:10091000E88185E0E89FF0011124E251FA4F8081DF
:10092000806480838881DF91CF911F91089508951D
:100930002091BA02260F3327331F21323105ECF400
:1009400020911B03FC0190E080E0243069F082E0FC
:100950000895A091BA022191AC0146565D4FA40FB3
:10096000B52FB11D2C930196861798F38091BA028A
:10097000680F6093BA0280E0089581E008951092B4
:100980001B0381E080931A031092F50261E084E179
:100990000E94E90161E085E10E94E901E9EBF0E0F4
:1009A00080818E7F808380818D7F808388E48093A7
:1009B000B80085E48093BC000895CF93DF9391E065
:1009C000909399028823B9F0C091B800D091BA00F1
:1009D0008091BC008A7B8093BC0060E084E10E942F
:1009E000E90160E085E10E94E9010E94BF04D09323
:1009F000BA00C093B800DF91CF910895CF92DF92F3
:100A0000EF92FF920F931F93CF93DF93D091440304
:100A100081E0D13208F09CC0C09143030E9448029B
:100A20006B017C0180911B0381116CC082E080937B
:100A30001B0381E080931A038FEF809319031092B8
:100A40001803D0931703A3E2B3E0E7EFF2E080E0EE
:100A5000D8138DC01092F6028091F602CC0FC82BED
:100A6000C093F6028091F502813009F084C01092A3
:100A7000F5020E9448026B017C018091F60280938E
:100A8000BB0080911D0390911E03A0911F03B091A4
:100A90002003892B8A2B8B2BA1F00E944802009106
:100AA0001D0310911E0320911F03309120036C1928
:100AB0007D098E099F09061717072807390708F4CB
:100AC00042C08091BC0083FDD8CF85EC8093BC00F0
:100AD0000E9448026B017C0180911B03823009F463
:100AE0004CC0809119038F3F09F469C080911903AC
:100AF000803209F466C080911903803309F463C021
:100B000084E026C080911D0390911E03A0911F03D5
:100B1000B0912003892B8A2B8B2B09F483CF0E9461
:100B2000480200911D0310911E0320911F03309174
:100B300020036C197D098E099F09061717072807DE
:100B4000390708F06FCF80911C030E94DD0485E017
:100B5000109222031092440310922103DF91CF914F
:100B60001F910F91FF90EF90DF90CF9008959D918E
:100B700091938F5F6DCF85EEA9CF80911D039091EA
:100B80001E03A0911F03B0912003892B8A2B8B2B6E
:100B900009F4A2CF0E94480200911D0310911E0388
:100BA00020911F03309120036C197D098E099F0944
:100BB000061717072807390708F08ECFC4CF80E043
:100BC000C7CF82E0C5CF83E0C3CF0F931F93CF93EE
:100BD000DF93162F072FC3EFD6E0AA85BB859C8530
:100BE00021E020932103909343031092220310925B
:100BF0004403ED91FC9111970190F081E02D682F55
:100C0000CD0119958A859B85DC01ED91FC910190C0
:100C1000F081E02D602F19958A859B85DC01ED918F
:100C2000FC910190F081E02D612F1995DF91CF911A
:100C30001F910F910C94FE040895E091E9028091B8
:100C4000E802E81730F4F0E0E758FD4F808190E0CB
:100C500008958FEF9FEF08959091E9028091E80247
:100C60002FEF3FEF981748F4E92FF0E0E758FD4FDA
:100C7000208130E09F5F9093E902C901089580913F
:100C8000E8029091E902891B990B0895CF92DF92B7
:100C9000EF92FF920F931F93CF93DF937C01CB01D1
:100CA0008A0120912103222389F0EB016B01C40EFC
:100CB000D51ECC15DD0569F06991D701ED91FC9148
:100CC0000190F081E02DC7011995F3CF642F0E94A8
:100CD0009804C801DF91CF911F910F91FF90EF9081
:100CE000DF90CF900895CF93DF931F92CDB7DEB7FB
:100CF0006983209121032223F9F0209144032032BB
:100D000058F021E030E0FC013383228390E080E062
:100D10000F90DF91CF91089580912203E82FF0E0AA
:100D2000ED5DFC4F998190838F5F809322038093C8
:100D3000440381E090E0ECCF61E0CE0101960E9497
:100D40009804F7CFFC01248131E0309321032093F4
:100D5000430310922203109244038485682B8AE295
:100D600097E00E9473060C94FE0490E080E00895E2
:100D70000F931F93CF938C01C62F64600E94A2062D
:100D80006C2F6B7FC8010E94A20683EC90E0019754
:100D9000F1F7CF911F910F9108950F931F93CF9368
:100DA000DF938C01C62FD62FD07FD1606D2F0E948C
:100DB000A2066D2FC8010E94B80680E1C89FE0011D
:100DC0001124C1606C2FC8010E94A2066C2FC801BB
:100DD0000E94B80681E090E0DF91CF911F910F91C2
:100DE0000895CF93DF93FC0101900020E9F731973C
:100DF000AF01481B590BBC018FE794E00E946F02C2
:100E0000EC0142E050E06FE372E08FE794E00E9473
:100E10006F028C0F9D1FDF91CF91089585ED809318
:100E2000BC0080911D0390911E03A0911F03B091FF
:100E300020030796A11DB11D23E0B695A7959795B0
:100E400087952A95D1F72091BC0024FD03C010920C
:100E50001B03089540911D0350911E0360911F03D1
:100E600070912003452B462B472B69F30097A10572
:100E7000B10541F02AE22A95F1F700C00197A109D6
:100E8000B109E1CF80911C030C94DD041F920F92F5
:100E90000FB60F9211240F900FBE0F901F90189550
:100EA0001F920F920FB60F9211242F933F938F939F
:100EB0009F93AF93BF938091EB029091EC02A0912E
:100EC000ED02B091EE023091EA0223E0230F2D37BC
:100ED00058F50196A11DB11D2093EA028093EB0203
:100EE0009093EC02A093ED02B093EE028091EF029A
:100EF0009091F002A091F102B091F2020196A11D31
:100F0000B11D8093EF029093F002A093F102B09391
:100F1000F202BF91AF919F918F913F912F910F90CE
:100F20000FBE0F901F90189526E8230F0296A11D63
:100F3000B11DD2CF1F920F920FB60F9211240BB694
:100F40000F922F933F934F935F936F937F938F9362
:100F50009F93AF93BF93EF93FF938091DF029091A4
:100F6000E002A091E102B091E202892B8A2B8B2B47
:100F7000D1F19091DE0280910000892780930000DA
:100F80008091DF029091E002A091E102B091E20233
:100F9000181619061A061B069CF48091DF02909120
:100FA000E002A091E102B091E2020197A109B1092A
:100FB0008093DF029093E002A093E102B093E202FB
:100FC000FF91EF91BF91AF919F918F917F916F9121
:100FD0005F914F913F912F910F900BBE0F900FBEDD
:100FE0000F901F90189580910002E2E9F1E0E491E2
:100FF0009FEF90930002E230E9F040F4EE2389F095
:10100000E13091F060E00E94E901DACFE43049F18B
:1010100010F1E530B9F7909173009D7F90937300C4
:10102000F1CF10926E00EECF90916F009D7F909364
:101030006F00E8CF909170009D7F9093700091E0D9
:101040009093B0009091B100987F94609093B1001C
:101050001092B300D7CF909171009D7F9093710053
:10106000D1CF909172009D7F90937200CBCF1F9251
:101070000F920FB60F9211240BB60F922F933F933E
:101080004F935F936F937F938F939F93AF93BF9390
:10109000EF93FF9385E493E00E941003FF91EF919B
:1010A000BF91AF919F918F917F916F915F914F9180
:1010B0003F912F910F900BBE0F900FBE0F901F907E
:1010C00018951F920F920FB60F9211240BB60F9224
:1010D0002F933F934F935F936F937F938F939F9340
:1010E000AF93BF93EF93FF9385E493E00E949C023C
:1010F000FF91EF91BF91AF919F918F917F916F91F0
:101100005F914F913F912F910F900BBE0F900FBEAB
:101110000F901F9018951F920F920FB60F921124E7
:101120000BB60F922F933F934F935F936F937F93E1
:101130008F939F93AF93BF93EF93FF9382EE93E0D0
:101140000E941003FF91EF91BF91AF919F918F91FA
:101150007F916F915F914F913F912F910F900BBEB7
:101160000F900FBE0F901F9018951F920F920FB601
:101170000F9211240BB60F922F933F934F935F93CF
:101180006F937F938F939F93AF93BF93EF93FF934F
:1011900082EE93E00E949C02FF91EF91BF91AF918C
:1011A0009F918F917F916F915F914F913F912F917F
:1011B0000F900BBE0F900FBE0F901F9018951F92AF
:1011C0000F920FB60F9211240BB60F922F933F93ED
:1011D0004F935F936F937F938F939F93AF93BF933F
:1011E000EF93FF938FE794E00E941003FF91EF913C
:1011F000BF91AF919F918F917F916F915F914F912F
:101200003F912F910F900BBE0F900FBE0F901F902C
:1012100018951F920F920FB60F9211240BB60F92D2
:101220002F933F934F935F936F937F938F939F93EE
:10123000AF93BF93EF93FF938FE794E00E949C02DC
:10124000FF91EF91BF91AF919F918F917F916F919E
:101250005F914F913F912F910F900BBE0F900FBE5A
:101260000F901F9018951F920F920FB60F92112496
:101270000BB60F922F933F934F935F936F937F9390
:101280008F939F93AF93BF93CF93DF93EF93FF938E
:1012900020911D0530E0F901ED5AFD4F8491F901CF
:1012A000E35FFD4FD491F901E953FE4FC491CC2384
:1012B00079F081110E948201EC2FF0E0EE0FFF1F08
:1012C000E858FE4FA591B491EC91ED2381E009F42B
:1012D00080E020912105309122052F5F3F4F309310
:1012E00022052093210590912005953618F096E06F
:1012F00090931C0590911C05943009F466C0B8F4D5
:101300009230F1F0933009F444C090911F05992375
:1013100009F46BC081117EC080911E05882309F4F9
:1013200063C080911E0561E00E94E9015EC09530B6
:1013300009F457C0963049F791E09093ED054FC0FE
:101340008111E3CF2091210530912205243631050A
:1013500028F41092220510922105D7CF1092ED05A6
:1013600010922005E091200591E09E0F90932005BA
:10137000F0E02091210530912205EE0FFF1FE45E81
:10138000FA4F30872783109222051092210593E0AF
:1013900019C0813009F0B9CFE091200591E09E0F8E
:1013A00090932005F0E02091210530912205EE0F69
:1013B000FF1FE45EFA4F30872783109222051092B8
:1013C000210594E090931C05A0CF882359F2209129
:1013D0002105309122052536310508F496CF95E098
:1013E000F1CF811192CFB5CF2F9AFF91EF91DF917D
:1013F000CF91BF91AF919F918F917F916F915F91AD
:101400004F913F912F910F900BBE0F900FBE0F90F9
:101410001F90189580911E05882321F080911E054C
:1014200060E082CF2F98E1CF1F920F920FB60F92FC
:1014300011240BB60F922F933F934F935F936F93AB
:101440007F938F939F93AF93BF93CF93DF93EF934C
:10145000FF938091DD02C0912A06D0E087FF23C070
:1014600010928500109284008091DD028F5F80933E
:10147000DD028091DD02082E000C990B8C179D0770
:1014800024F48091DD028C3074F18091840090917D
:10149000850084349C4908F465C080918400909153
:1014A0008500049661C08091DD02082E000C990B26
:1014B0008C179D07CCF63091DD0225E03203F00158
:1014C0001124E251FA4F808186FFCECF3091DD02A8
:1014D0003203F0011124E251FA4F808160E08F73F2
:1014E0000E94E901C1CF80918400909185003091E4
:1014F000DD0225E03203F0011124E251FA4F41816F
:101500005281840F951F90938900809388003091B9
:10151000DD023203F0011124E251FA4F808186FF8F
:101520000CC03091DD023203F0011124E251FA4F78
:10153000808161E08F730E94E901FF91EF91DF915B
:10154000CF91BF91AF919F918F917F916F915F915B
:101550004F913F912F910F900BBE0F900FBE0F90A8
:101560001F90189580E49CE99093890080938800EF
:101570008FEF8093DD02E1CF1F920F920FB60F9293
:1015800011240BB60F922F933F934F935F936F935A
:101590007F938F939F93AF93BF93EF93FF9380912C
:1015A000B900887F803609F44DC008F040C0883209
:1015B00009F4A9C028F5803109F49DC0C8F4882336
:1015C00009F4FBC0883009F496C0FF91EF91BF91F8
:1015D000AF919F918F917F916F915F914F913F91CB
:1015E0002F910F900BBE0F900FBE0F901F9018956C
:1015F000883109F488C0803241F78093190314C000
:10160000803409F49DC040F48033B9F38833E9F69F
:101610008093190385ECB0C0803509F485C0883506
:1016200009F496C0883489F60E940E07CECF883917
:1016300009F48CC038F5883729F050F4883611F059
:10164000803719F683E080931B031092DC0257C0A9
:10165000883809F47BC0803919F0803809F0B5CF9B
:101660008091DC02803208F071C0E091DC0281E000
:101670008E0F8093DC028091BB00F0E0E454FD4FBC
:1016800080833DC0803B39F0E0F4803A09F479C0B2
:10169000883A09F09ACF84E080931B031092BB0232
:1016A0001092BA02E091E602F091E702199580915A
:1016B000BA0281110FC081E08093BA0210929A029F
:1016C00009C0803C09F4A6CF883C09F4A3CF883B2D
:1016D00009F07BCFE091BB0281E08E0F8093BB02CB
:1016E000F0E0E656FD4F80818093BB009091BB02F5
:1016F0008091BA0229C08091F6028093BB0085ECEC
:101700008093BC0062CF90911803809117039817C3
:1017100058F5E091180381E08E0F80931803F0E0F4
:10172000E950FD4F8081E9CFE091180381E08E0FF1
:10173000809318038091BB00F0E0E950FD4F808357
:1017400090911803809117039817C8F285E8D8CFB5
:10175000E091180381E08E0F809318038091BB0005
:10176000F0E0E950FD4F808380911A0381115CCF36
:1017700081E08093F50284EA8093BC0010921B0301
:1017800024CF85EC8093BC0010921B038091DC0277
:10179000803230F4E091DC02F0E0E454FD4F10823E
:1017A0006091DC0270E0E091E402F091E5028CEBE4
:1017B00092E019951092DC0208CF1092190334CFF1
:1017C000109248031092470348EE53E060E070E047
:1017D0004093490350934A0360934B0370934C0327
:1017E00083E192E0909346038093450325E331E043
:1017F000309352032093510324E331E03093540398
:101800002093530320E331E0309356032093550394
:1018100021E331E0309358032093570322E331E072
:1018200030935A032093590326E331E030935C034D
:1018300020935B0310925E0310925F03109260038B
:10184000109261031092E5031092E4034093E603C3
:101850005093E7036093E8037093E9039093E303E5
:101860008093E20325ED30E03093EF032093EE0305
:1018700024ED30E03093F1032093F00320ED30E0CD
:101880003093F3032093F20321ED30E03093F5031E
:101890002093F40322ED30E03093F7032093F60316
:1018A00026ED30E03093F9032093F8031092FB0308
:1018B0001092FC031092FD031092FE03109282041A
:1018C00010928104409383045093840460938504B0
:1018D000709386049093800480937F0485EC90E05D
:1018E00090938C0480938B0484EC90E090938E040E
:1018F00080938D0480EC90E09093900480938F040B
:1019000081EC90E0909392048093910482EC90E0BB
:10191000909394048093930486EC90E090939604C3
:1019200080939504109298041092990410929A044E
:1019300010929B048091070290910802A0910902E5
:10194000B0910A028093140790931507A09316078D
:10195000B093170780910B0290910C02A0910D0299
:10196000B0910E028093180790931907A0931A075D
:10197000B0931B0784E080931C0787E080931D07CA
:1019800010921E0784EB80931F0786E18093200747
:1019900088E18093210787E18093220789E1809382
:1019A0002307E0912A06EC3008F4ACC08FEF809357
:1019B0002407E0912A06EC3008F4B5C08FEF80933D
:1019C00025078CE08093F30684E28093F40686E09A
:1019D0008093F50685E08093F6068FE18093F70605
:1019E0008EE18093F80683E28093F90682E2809389
:1019F000FA0685E48093FB0684E48093FC0680E489
:101A00008093FF06109204071092050710920607B4
:101A100010920707109208071092090710920A0700
:101A200010920B07E5E3F6E023EF36E08FEF9FEF30
:101A3000DC011282138214821582168217821086AC
:101A4000118683879487A587B6878787908BA18B1C
:101A5000B28B12861182108273962E173F0749F7B8
:101A60008DE090E00E949F10FC011382128285E2BB
:101A700092E091838083118687E2848384E1828768
:101A800084E083871486F0933206E0933106109247
:101A900033061092340685E280931D0510921F05CF
:101AA00010922C0610922B0610922E0610922D06E4
:101AB0001092300610922F0661E070E090E080E016
:101AC0000E94C411009709F43FC090932C068093A4
:101AD0002B0610922E0610922D0620912F06309183
:101AE0003006232B11F4FC01108210923006109264
:101AF0002F0661E472E080912B0690912C060E94E3
:101B0000AE1236C081E08E0F80932A06E093240740
:101B100085E0E89FF0011124E251FA4F88EB9BE049
:101B20009283818346CF81E08E0F80932A06E093D3
:101B3000250785E0E89FF0011124E251FA4F88EB78
:101B40009BE0928381833DCF80912B0690912C0660
:101B5000009711F00E943B1110922C0610922B0658
:101B60001092300610922F0610922E0610922D061B
:101B700010922D0710922C0788EE93E0A0E0B0E0C1
:101B800080932E0790932F07A0933007B0933107CF
:101B900081E392E090932B0780932A0710923707F6
:101BA000109236071092380786ED80933B0781E04C
:101BB00090E090933A07809339070895789484B51C
:101BC000826084BD84B5816084BD85B5826085BD39
:101BD00085B5816085BD80916E00816080936E00C7
:101BE00010928100809181008260809381008091B9
:101BF000810081608093810080918000816080936A
:101C000080008091B10084608093B1008091B00029
:101C100081608093B00080919100826080939100F8
:101C2000809191008160809391008091900081600B
:101C3000809390008091A10082608093A1008091A8
:101C4000A10081608093A1008091A00081608093B9
:101C5000A000809121018260809321018091210167
:101C60008160809321018091200181608093200117
:101C700080917A00846080937A0080917A008260FB
:101C800080937A0080917A00816080937A008091BD
:101C90007A00806880937A001092C100E0918F04EE
:101CA000F091900482E08083E0918B04F0918C04A9
:101CB0001082E0918D04F0918E048FEC808310925D
:101CC0009704E0919304F091940486E08083E0917E
:101CD0009104F0919204808180618083E09191046D
:101CE000F0919204808188608083E0919104F0916A
:101CF0009204808180688083E0919104F091920445
:101D000080818F7D808361E08091F4060E941702BC
:101D100060E08091F4060E94E90160E08091F306A2
:101D20000E9417028AE297E09093FE068093FD06D8
:101D30001092E9021092E8021092220310924403DA
:101D40000E94BF048DE692E09093E7028093E60242
:101D50008EE692E09093E5028093E40280E090E1C9
:101D6000A0E0B0E08093000790930107A0930207E2
:101D7000B09303078AE090E0A0E0B0E0809304070E
:101D800090930507A0930607B093070780E090E0C3
:101D9000A0E0B0E48093080790930907A0930A0796
:101DA000B0930B0760E070E185E00E94E5056FE904
:101DB00079E380E00E94E50505EF16E0C3EFD6E089
:101DC0009CEFA92E91E0B92E22E4822E22E0922EE1
:101DD0003BECE32E37E0F32E4BE8C42EDD24D39406
:101DE000F801928181918F01898F9A8F61E00E9421
:101DF000170261E08A8D0E941702F80195818381A4
:101E00008D8F9E8F61E00E94170260E08E8D0E9490
:101E1000170261E08D8D0E94E9017FB6F8948091F0
:101E2000E302811125C0F5018491F4019491E82F1A
:101E3000F0E0EE0FFF1FED56FE4FA591B4918C918F
:101E4000982321F461E085E30E94E90161E085E3E4
:101E50000E9417028CB580618CBD8CB580648CBDEE
:101E600061E084E30E94170261E083E30E941702AD
:101E70008091E3028F5F8093E3027FBEC7010197E9
:101E8000F1F760E08D8D0E94E90188E80E94C703A8
:101E900083E00E94C70361E08D8D0E94E901C701C4
:101EA0000197F1F760E08D8D0E94E90188E90E94B9
:101EB000C70380E00E94C70380E00E94C70380E060
:101EC0000E94C70380E00E94C70361E08D8D0E94DD
:101ED000E901C6010197F1F760E08D8D0E94E901EB
:101EE00080EE0E94C70361E08D8D0E94E901229679
:101EF000F6E0C73FDF0709F073CFC8E1D7E060E045
:101F000089910E94170287E0CC31D807C1F7609110
:101F10001C0770E084E297E00E944304909122073E
:101F200080912007809326079093270760E00E9406
:101F3000170261E0809127070E94170260E08091FC
:101F400027070E94E90160911D0770E085E297E094
:101F50000E944304909123078091210780932807D2
:101F60009093290760E00E94170261E080912907A1
:101F70000E94170260E0809129070E94E901F8940D
:101F80001092200189E08093210180E293E09093F8
:101F9000290180932801109225011092240182E0EA
:101FA00080937300789480931C0510922005809193
:101FB0001D0560E00E94170261E08EE20E94170298
:101FC00061E08CE20E94170261E08FE20E9417023A
:101FD00061E08DE20E94170260911C0770E084E2CC
:101FE00097E00E94430460911D0770E085E297E04E
:101FF0000E94430480911E07811115C070E060E0CB
:1020000085E297E00E94CE0380911E07853B20F475
:1020100080911F07843B60F482E492E00E94F10605
:102020000E94A203E7CF82E492E00E94F106ECCF87
:1020300064EB70E084E297E00E94CE03F1CF8091E0
:102040002B0690912C06009711F00C943B110895EB
:10205000052E97FB1EF400940E943F1057FD07D0F9
:102060000E945A1007FC03D04EF40C943F10509578
:102070004095309521953F4F4F4F5F4F0895909574
:102080008095709561957F4F8F4F9F4F08950E9467
:102090007C10A59F900DB49F900DA49F800D911D65
:1020A00011240895B7FF0C9447100E944710821B1B
:1020B000930B0895A1E21A2EAA1BBB1BFD010DC0B4
:1020C000AA1FBB1FEE1FFF1FA217B307E407F507E8
:1020D00020F0A21BB30BE40BF50B661F771F881FC4
:1020E000991F1A9469F760957095809590959B015A
:1020F000AC01BD01CF010895A29FB001B39FC00103
:10210000A39F700D811D1124911DB29F700D811D23
:102110001124911D0895991B79E004C0991F961709
:1021200008F0961B881F7A95C9F780950895EE0FE1
:10213000FF1F881F8BBF0790F691E02D19940F9316
:102140001F93CF93DF938230910510F482E090E0EB
:10215000E0913E07F0913F0730E020E0B0E0A0E0E2
:10216000309799F42115310509F44AC0281B390B21
:1021700024303105D8F58A819B816115710589F17B
:10218000FB0193838283FE0111C040815181028152
:10219000138148175907E0F04817590799F4109729
:1021A00061F012960C93129713961C933296CF01FE
:1021B000DF91CF911F910F91089500933E071093E7
:1021C0003F07F4CF2115310551F04217530738F07E
:1021D000A901DB019A01BD01DF01F801C1CFEF01C7
:1021E000F9CF90933F0780933E07CDCFFE01E20FDA
:1021F000F31F819391932250310939832883D7CFDC
:1022000020913C0730913D07232B41F4209103029C
:102210003091040230933D0720933C072091010246
:10222000309102022115310541F42DB73EB740919E
:10223000050250910602241B350BE0913C07F091FA
:102240003D07E217F307A0F42E1B3F0B28173907B1
:1022500078F0AC014E5F5F4F2417350748F04E0F02
:102260005F1F50933D0740933C07819391939FCF0D
:10227000F0E0E0E09CCFCF93DF930097E9F0FC0122
:10228000329713821282A0913E07B0913F07ED0171
:1022900030E020E01097A1F420813181820F931F5C
:1022A00020913C0730913D072817390709F061C09C
:1022B000F0933D07E0933C07DF91CF910895EA0149
:1022C000CE17DF07E8F54A815B819E014115510574
:1022D000B1F7E901FB83EA8349915991C40FD51FF6
:1022E000EC17FD0761F4808191810296840F951FA0
:1022F000E90199838883828193819B838A83F0E0BB
:10230000E0E012968D919C9113970097B9F52D916D
:102310003C911197CD010296820F931F20913C07AB
:1023200030913D072817390739F6309751F510924B
:102330003F0710923E07B0933D07A0933C07BCCFE8
:10234000D383C28340815181840F951FC817D90759
:1023500061F44E5F5F4F88819981480F591F518307
:1023600040838A819B81938382832115310509F003
:10237000B0CFF0933F07E0933E079ECFFD01DC0115
:10238000C0CF13821282D7CF4F925F926F927F920B
:102390008F929F92AF92BF92CF92DF92EF92FF9275
:1023A0000F931F93CF93DF938C01009799F4CB0188
:1023B000DF91CF911F910F91FF90EF90DF90CF9021
:1023C000BF90AF909F908F907F906F905F904F9055
:1023D0000C949F10FC01E60FF71F9C01225031095D
:1023E000E217F30708F4AEC0D901CD91DC91119743
:1023F000C617D70720F1C530D10578F0CE01049774
:102400008617970750F0C61BD70B2297C193D1931D
:102410006D937C93CF010E943B11C801DF91CF9156
:102420001F910F91FF90EF90DF90CF90BF90AF90F2
:102430009F908F907F906F905F904F9008955B0179
:10244000AC1ABD0A4C018C0E9D1EA0913E07B091A6
:102450003F07512C412CF12CE12C109731F5809144
:102460003C0790913D078815990509F05CC0461618
:10247000570608F058C0809101029091020200971F
:1024800041F48DB79EB74091050250910602841B1E
:10249000950BE817F90708F055C0F0933D07E09356
:1024A0003C07F90171836083B8CF8D919C9111979E
:1024B00012966C90129713967C901397A815B905F5
:1024C00059F56C0142E0C40ED11CCA14DB0420F1A2
:1024D000AC014A195B09DA011296159780F0628205
:1024E000738251834083D9016D937C93E114F1048D
:1024F00071F0D7011396FC93EE9312978ECF22962C
:102500008C0F9D1FF90191838083F301EFCFF0932E
:102510003F07E0933E0781CF4816590608F42C0187
:102520007D01D3019ACFCB010E949F107C010097BF
:1025300049F0AE01B8010E94A512C8010E943B11EA
:1025400087016BCF10E000E068CFFB01DC0102C027
:1025500001900D9241505040D8F70895FB01DC01E5
:1025600001900D920020E1F7089511E0CEE4D1E052
:1025700000E006C0802FFE010E9497102196011DE9
:0E258000CF34D10780E00807A9F7F894FFCF09
:10258E00FF000040078000363738391B1D1A1C002B
:10259E0000000032036F02B5027F03E602C402D8C8
:1025AE000200000000CD066F02B506970400000081
:1025BE000073064606B5061C063F062C061D060DC4
:1025CE000A00536572766F20616E676C65206973C1
:1025DE00206F7574206F662072616E676521000032
:00000001FF
